:1000000015C1000043C1000041C100003FC1000014
:100010003DC100003BC1000039C1000037C10000F4
:1000200035C1000033C1000031C100002FC1000004
:100030002DC100002BC1000029C1000027C1000014
:1000400025C1000023C1000021C100001FC1000024
:100050001DC100001BC1000019C100006AC30000DF
:1000600015C100009DC2000072C200000FC1000057
:100070000DC100000BC1000009C1000007C1000054
:1000800005C1000003C1000001C10000FFC0000065
:10009000FDC00000FBC00000F9C00000F7C0000078
:1000A000F5C00000F3C00000F1C00000EFC0000088
:1000B000EDC00000EBC00000E9C00000E7C0000098
:1000C000E5C00000E3C00000E1C00000DFC00000A8
:1000D000DDC00000DBC00000D9C00000D7C00000B8
:1000E000D5C0000068026B025A025E026402A202DE
:1000F0006F02730279027D02810287028B028F02F6
:10010000A202950299029D0200002100240027000E
:100110002A002D0030003300010100000401070116
:100120000A0100002200250028002B002E003100CB
:10013000340002010000050108010B01000020004D
:100140002300260029002C002F00320000010000AF
:10015000030106010901050505050705080808084A
:10016000020202020A0A080804040404010101014F
:10017000010101010303030303030303040707074A
:100180000C0C0C0C0C0C0C0C0202020206060606EF
:10019000060606060B0B0B0B0B0B0B0B01021020BC
:1001A00020080810204010204080020102010804AD
:1001B0000201010204081020408080402010080441
:1001C000020180040201804020100804020108049A
:1001D00002010102040810204080010204081020DE
:1001E000408000000A0B02090C0D0E0807030401F1
:1001F00000000000000000000000000000000000FF
:1002000000000000000000000000000000001211CB
:1002100010000000000000000000000000000000CE
:100220000000000000000000ED0CEC0C11241FBECB
:10023000CFEFD1E2DEBFCDBF00E00CBF25E0A0ECE8
:10024000B3E001C01D92A73EB207E1F713E0A0E0C2
:10025000B2E0E0E2F7E200E00BBF02C007900D92CF
:10026000A03CB107D9F711E0C5E1D1E000E006C03C
:1002700021970109802FFE010E94680EC431D10729
:1002800080E00807A9F775D50C947F13B9CEFC015F
:10029000538D448D252F30E0842F90E0821B930BEB
:1002A000541710F0CF96089501970895FC01918D91
:1002B000828D981761F0828DDF01A80FB11D5D96C8
:1002C0008C91928D9F5F9F73928F90E008958FEF36
:1002D0009FEF0895FC01918D828D981731F0828DEA
:1002E000E80FF11D858D90E008958FEF9FEF089541
:1002F000FC01918D228D892F90E0805C9F4F821BA5
:1003000091098F739927089585EC93E0F1DF21E03F
:10031000892B09F420E0822F0895FC01848DDF01F0
:10032000A80FB11DA35ABF4F2C91848D90E0019668
:100330008F739927848FA689B7892C93A089B18957
:100340008C9180648C93938D848D981306C0028861
:10035000F389E02D80818F7D80830895EF92FF9255
:100360000F931F93CF93DF93EC0181E0888F9B8DD8
:100370008C8D981305C0E889F989808185FD23C09B
:10038000F62E0B8D10E00F5F1F4F0F731127E02E1D
:100390008C8DE8120BC00FB607FCFACFE889F989FB
:1003A000808185FFF5CFCE01B8DFF2CF8B8DFE01C6
:1003B000E80FF11DE35AFF4FF0820B8FEA89FB89AA
:1003C0008081806207C0EE89FF896083E889F989AE
:1003D00080818064808381E090E0DF91CF911F91E4
:1003E0000F91FF90EF900895CF93DF93EC01888DEC
:1003F0008823C1F0EA89FB89808185FD05C0A88931
:10040000B9898C9186FD0EC00FB607FCF5CF8081AF
:1004100085FFF2CFA889B9898C9185FFEDCFCE01F8
:100420007CDFE8CFDF91CF91089580E090E0892BC9
:1004300019F06ADF811125C080E090E0892B41F03E
:1004400080E090E0892B21F00E94000081111CC007
:1004500080E090E0892B41F080E090E0892B21F052
:100460000E940000811113C080E090E0892BA1F070
:1004700080E090E0892B81F00E94000081110AC089
:1004800008950E940000D8CF0E940000E1CF0E9492
:100490000000EACF0C940000089590E0FC01319731
:1004A000E231F10508F04EC08827EE58FF4F8F4F1C
:1004B0000C94680E809180008F7703C0809180003B
:1004C0008F7D80938000089580918000877FF9CF91
:1004D00084B58F7702C084B58F7D84BD08958091E7
:1004E000B0008F7703C08091B0008F7D8093B00003
:1004F0000895809190008F7707C0809190008F7D44
:1005000003C080919000877F809390000895809130
:10051000A0008F7707C08091A0008F7D03C08091DD
:10052000A000877F8093A0000895809120018F779D
:1005300007C0809120018F7D03C080912001877FBB
:10054000809320010895089580E090E008951F921F
:100550000F920FB60F9211240BB60F922F933F9369
:100560004F935F936F937F938F939F93AF93BF93BB
:10057000EF93FF9385EC93E0D0DEFF91EF91BF9175
:10058000AF919F918F917F916F915F914F913F912B
:100590002F910F900BBE0F900FBE0F901F901895CC
:1005A0001F920F920FB60F9211240BB60F922F933A
:1005B0008F939F93EF93FF93E091D503F091D60330
:1005C0008081E091DB03F091DC0382FD12C0908119
:1005D0008091DE038F5F8F732091DF03821751F0CC
:1005E000E091DE03F0E0EB53FC4F958F8093DE0348
:1005F00001C08081FF91EF919F918F912F910F907A
:100600000BBE0F900FBE0F901F901895CF93DF93E6
:10061000282F30E0F901EE51FE4F8491F901E456A4
:10062000FE4FD491F901EA5AFE4FC491CC2389F0D0
:10063000811133DFEC2FF0E0EE0FFF1FE45CFE4F83
:10064000A591B491EC91ED2381E090E021F480E05C
:1006500002C080E090E0DF91CF9108951F93CF9387
:10066000DF93282F30E0F901EE51FE4F8491F9011C
:10067000E456FE4FD491F901EA5AFE4FC491CC23BF
:10068000C1F0162F811109DFEC2FF0E0EE0FFF1FF4
:10069000EE5DFE4FA591B4918FB7F894111105C08E
:1006A0009C91ED2FE095E92302C0EC91ED2BEC93AA
:1006B0008FBFDF91CF911F910895CF93DF9390E08B
:1006C000FC01E456FE4F2491FC01EA5AFE4F84914E
:1006D000882361F190E0880F991FFC01E85FFE4FCD
:1006E000C591D491FC01EE5DFE4FA591B4916111CD
:1006F00009C09FB7F8948881209582238883EC9164
:100700002E230BC0623061F49FB7F8943881822F9A
:10071000809583238883EC912E2B2C939FBF06C05A
:100720008FB7F894E8812E2B28838FBFDF91CF916C
:1007300008951F920F920FB60F9211242F933F939B
:100740008F939F93AF93BF938091620490916304C2
:10075000A0916404B09165043091C40323E0230F99
:100760002D3720F40196A11DB11D05C026E8230FE9
:100770000296A11DB11D2093C4038093620490933F
:100780006304A0936404B09365048091C0039091C6
:10079000C103A091C203B091C3030196A11DB11D75
:1007A0008093C0039093C103A093C203B093C3038B
:1007B000BF91AF919F918F913F912F910F900FBE5D
:1007C0000F901F901895CF92DF92EF92FF920F93A8
:1007D0001F93CF93DF936C017A018B01C0E0D0E0CF
:1007E000CE15DF0589F0D8016D918D01D601ED910F
:1007F000FC910190F081E02DC6011995892B11F42F
:100800007E0102C02196ECCFC701DF91CF911F91ED
:100810000F91FF90EF90DF90CF900895EF92FF92AD
:100820000F931F93CF93DF93E82EF62EC7E0D0E00F
:10083000042F10E098010C2E02C0359527950A94DC
:10084000E2F7B901617077278E2D08DF61E08F2D07
:1008500005DF60E08F2D02DF219760F7DF91CF91F8
:100860001F910F91FF90EF9008950E9495100097AF
:1008700061F0FC0101900020E9F73197AF01481BBE
:10088000590BBC0185EC93E09ECF80E090E0089589
:10089000CF93DF93ECDFEC0187E393E0E8DF8C0F8D
:1008A0009D1FDF91CF910895CF93DF93C7EAD5E0E5
:1008B00061E0888102DF60E08881D0DE61E08091C4
:1008C000A605CCDE61E08881C9DE60E08881DF9129
:1008D000CF91F3CE0F931F93CF93DF93C7EAD5E069
:1008E00061E08881EADE06EA15E060E0F8018081D7
:1008F000B5DE61E08881B2DE61E0F8018081AEDEC4
:1009000060E0F8018081AADE60E08881DF91CF910C
:100910001F910F91D2CE1F93CF93DF9360E0809110
:10092000A705CBDEC7E0D0E010E061E08091A6052E
:1009300095DE8091A7056ADE9C0133270C2E01C04D
:10094000220F0A94EAF7122B60E08091A60586DE5A
:10095000219758F7812FDF91CF911F91089560E083
:100960008091A705AADE61E08091A60577DE8091DF
:10097000A7054CDE0197D9F360E08091A6056ECE05
:10098000EF92FF920F931F93CF93DF931F92CDB7F8
:10099000DEB7482F87EAE82E85E0F82E61E0F70100
:1009A000808149838ADE61E0F701808157DE06EAB3
:1009B00015E061E0F801808151DE60E0F70180819F
:1009C0004DDE60E0F801808149DE4981F8016081F7
:1009D000F70180810F90DF91CF911F910F91FF90D0
:1009E000EF901CCF0F931F93CF93DF931F92CDB740
:1009F000DEB7482F07EA15E061E0F80180814983FE
:100A00005CDE49816091A605F80180810F90DF913D
:100A1000CF911F910F9102CF0F931F93CF93DF932D
:100A2000CDB7DEB728970FB6F894DEBF0FBECDBFA7
:100A30008091B005882309F446C084EE8093BC0001
:100A40008091BC0087FFFCCF80ED8093BB0084ECDD
:100A50008093BC008091BC0087FFFCCF1092BB004C
:100A600084EC8093BC008091BC0087FFFCCF84EEB7
:100A70008093BC008091BC0087FFFCCF81ED809308
:100A8000BB0084EC8093BC008091BC0087FFFCCF4E
:100A9000E8EAF5E094EC9093BC008091BC0087FFFD
:100AA000FCCF8091BB00819375E0EF3AF70799F78F
:100AB00084E88093BC008091BC0087FFFCCF84E970
:100AC0008093BC0033C080ED5BDF49DF80E08ADFCC
:100AD00046DF81ED55DF43DF00E010E01CDFF80169
:100AE000E855FA4F808306301105C9F061E0809126
:100AF000A705E3DD60E08091A605B0DD60E08091B0
:100B0000A705ACDD61E08091A605A8DD60E08091DD
:100B1000A605A4DD60E08091A705CFDD01C0DADE87
:100B20000F5F1F4F07301105C9F6BEDE8091A80583
:100B3000482F4695469546954E70942F990F990FDC
:100B4000490F8F70480F8091A905382F369536953B
:100B500036953E70932F990F990F390F8F70380F7C
:100B60008091AA05282F2F7087FF08C085FB992741
:100B700090F98CE0989F200D112409C08073869510
:100B800086958695982F990F990F890F280FE091D8
:100B9000AB056091AC057091AD058091AE05562F07
:100BA0005695569556955E70952F990F990F590F3A
:100BB0006F70560F672F6695669566956E70962FC7
:100BC000990F990F690F7F70670F982F92959F70FB
:100BD0008F707AE0979F800D112490E08053984F9A
:100BE0009F838E83782F8F819E2F28960FB6F8943F
:100BF000DEBF0FBECDBFDF91CF911F910F91089542
:100C00000F931F93CF93DF93EC0188819981009715
:100C100029F02A813B812617370788F48B016F5F03
:100C20007F4F0E94B10F009761F0998388831B83E7
:100C30000A832C813D81232B11F4FC01108281E079
:100C400001C080E0DF91CF911F910F910895EF9245
:100C5000FF920F931F93CF93DF93FC012481358183
:100C60006115710511F480E018C041155105A1F01E
:100C70007B01EC018A01020F131FB801C1DF882339
:100C800091F3288139818C819D81B701820F931F57
:100C90000E94A2101D830C8381E0DF91CF911F91F0
:100CA0000F91FF90EF900895EF92FF920F931F9393
:100CB000CF93DF93CDB7DEB728970FB6F894DEBF9A
:100CC0000FBECDBF7C01CB014AE08E010F5F1F4FED
:100CD000B80175D7F80101900020E9F73197AF010D
:100CE000401B510BB801C701B2DF28960FB6F8942C
:100CF000DEBF0FBECDBFDF91CF911F910F91FF904F
:100D0000EF900895EF92FF920F931F93CF93DF938D
:100D100000D01F92CDB7DEB77C01862F4AE08E014E
:100D20000F5F1F4FB80190E04AD7F80101900020F3
:100D3000E9F73197AF01401B510BB801C70187DFBD
:100D40000F900F900F900F90DF91CF911F910F9107
:100D5000FF90EF9008956115710549F0FB01019036
:100D60000020E9F73197AF01461B570B70CF80E0A9
:100D70000895CF93DF93CDB7DEB7CB5ED1090FB621
:100D8000F894DEBF0FBECDBF789484B5826084BD79
:100D900084B5816084BD85B5826085BD85B581607F
:100DA00085BD80916E00816080936E0010928100FD
:100DB00080918100826080938100809181008160B8
:100DC0008093810080918000816080938000809179
:100DD000B10084608093B1008091B0008160809305
:100DE000B000809191008260809391008091910089
:100DF0008160809391008091900081608093900049
:100E00008091A10082608093A1008091A100816007
:100E10008093A1008091A00081608093A0008091C8
:100E20002101826080932101809121018160809362
:100E300021018091200181608093200180917A00BE
:100E4000846080937A0080917A00826080937A0037
:100E500080917A00816080937A0080917A00806826
:100E600080937A001092C100E091D503F091D603EF
:100E700082E08083E091D103F091D2031082E0916F
:100E8000D303F091D40380E180831092DD03E091DD
:100E9000D903F091DA0386E08083E091D703F091E3
:100EA000D803808180618083E091D703F091D803DB
:100EB000808188608083E091D703F091D80380819E
:100EC00080688083E091D703F091D80380818F7D83
:100ED00080838AE392E0DCDC0BEC14E07801F7011C
:100EE0003B971082319720812B3008F457C027E1BF
:100EF000E20EF11C81EBE81685E0F80681F78AE244
:100F000080936704FF24F394F092680482E0809356
:100F10006904F0926A0485E090E0A0E0B0E080937C
:100F20006B0490936C04A0936D04B0936E0483E003
:100F300080937304F09274048AE090E0A0E0B0E043
:100F40008093750490937604A0937704B09378040B
:100F500062E08AE2B2DB8BE280939204F092930427
:100F600010929404F09295048FE090E0A0E0B0E03D
:100F70008093960490939704A0939804B093990457
:100F800062E08BE29ADB36E6A32E34E0B32E44E730
:100F9000C42E44E0D42E76013501A4C01A82F70194
:100FA0003A9780818B83319680818C8331968081C2
:100FB0008D83319680818E83319680818F833296A6
:100FC00080818887319680818987319680818A8760
:100FD000319680818B87D7018C918C87BCE02B9FC9
:100FE000900111245901E4E6AE0EB11CCE01019628
:100FF0004C01690190E7C90ED11CD4016D914D01DE
:10100000C501C551DF4F6883CB5ED0402CD6C5519A
:10101000DF4F6881CB5ED040681711F0C5012BD639
:10102000BFEFAB1ABB0AAC14BD0439F760CF89839C
:10103000F7013D9790819A83319690819B833196F9
:1010400090819C83319690819D83D30115964D911B
:101050005D916D917C9118974E835F836887798746
:10106000399690819E87F70190819F871F964D91B9
:101070005D916D917C915297488B598B6A8B7B8BDC
:10108000F7E18F9F4001112424012CED420E511CE9
:10109000CE0101961C0193EF890E911CD1016D9137
:1010A0001D01C201C551DF4F6883CB5ED040DBD547
:1010B000C551DF4F6881CB5ED040681711F0C20187
:1010C000DAD5BFEF4B1A5B0A4814590439F7FBE233
:1010D0006F0E711C2BE2E20EF11C8CEB681684E0A3
:1010E000780629F0F3018081833088F7A0CF80E56E
:1010F00092E0CEDB8FE592E0CBDB8091A7058431D7
:10110000F1F48091A6058531D1F481E08093B0059A
:1011100061E084E1A3DA61E085E1A0DA8091B900C1
:101120008E7F8093B9008091B9008D7F8093B90044
:101130008CE08093B80085E08093BC0006C01092DC
:10114000B00561E08091A605B8DA8091B0058823EA
:1011500009F43FC084EE8093BC008091BC0087FFFF
:10116000FCCF80ED8093BB0084EC8093BC00809129
:10117000BC0087FFFCCF1092BB0084EC8093BC00C6
:101180008091BC0087FFFCCF84EE8093BC008091EF
:10119000BC0087FFFCCF81ED8093BB0084EC809383
:1011A000BC008091BC0087FFFCCF84EC8093BC0026
:1011B0008091BC0087FFFCCF8091BB0094E89093A6
:1011C000BC009091BC0097FFFCCF94E99093BC00C9
:1011D00016C080EDD5DBC3DB80E004DCC0DB81ED35
:1011E000CFDBBDDB98DBC551DF4F8883CB5ED040C2
:1011F00071DB5ADBC551DF4F8881CB5ED0408F77E2
:10120000F82E8091B005882339F184EE8093BC00DC
:101210008091BC0087FFFCCF80ED8093BB0084EC05
:101220008093BC008091BC0087FFFCCF1092BB0074
:1012300084EC8093BC008091BC0087FFFCCFF092CF
:10124000BB0084EC8093BC008091BC0087FFFCCF86
:1012500084E98093BC000AC080ED92DB80DB80E0F3
:10126000C1DB7DDB8F2DBEDB7ADB1EDB87E792E007
:101270000FDB8BECE82E84E0F82E94E6892E912C7F
:1012800060E020E1422E27E2522EFE01E952FF4F9C
:101290003F011401FCE02F0E311CC401C551DF4F8A
:1012A0006883CB5ED040DFD4D3018D933D01BFEF87
:1012B0008B1A9B0AC551DF4F6881CB5ED0408214E8
:1012C000930459F7F7013C976083C852DF4F888138
:1012D000C85DD04031968083C752DF4F8881C95D99
:1012E000D04031968083C652DF4F8881CA5DD0409E
:1012F00031968083C552DF4FF881CB5DD040D70156
:101300001897FC93C452DF4FE881CC5DD040119612
:10131000EC93C352DF4F7881CD5DD04011967C9322
:10132000C252DF4F9881CE5DD040C152DF4FA881BD
:10133000CF5DD040C052DF4FB881C05ED040949D99
:10134000A001959D500D112424E6A29F400D511D32
:1013500011244B0F511DF49D9001F59D300D11246A
:10136000F4E6EF9F200D311D1124270F311D421788
:1013700053074CF4880FF7013597808387FF03C02C
:101380008F7781608083F701349790833196A083B3
:101390003196B0833196CF51DF4F8881C15ED04006
:1013A0008083CE51DF4F8881C25ED040D7018C93BD
:1013B000B7E1EB0EF11C6F5F41016A3009F065CFB8
:1013C000A6E62A2EA4E03A2EBCED4B2E512CFE01AF
:1013D00031967F0147013201F7E16F0E711CC201A6
:1013E00042D4D4018D934D01BFEF4B1A5B0A4614D2
:1013F0005704A9F78981F1018083F6013D978A811D
:10140000808331968B81808331968C818083319665
:101410008D8180838E819F81A885B985F101858327
:101420009683A783B087F60131978E8580838F8559
:10143000D6018C9388899989AA89BB89F10187870C
:10144000908BA18BB28BFBE22F0E311C2BE2C20ED4
:10145000D11C8AE0481681E0580609F0BBCF85E927
:1014600092E016DA88ECD7011D928A95E9F7D4DA72
:10147000C753DF4F2883C95CD040C653DF4F388342
:10148000CA5CD040C553DF4F4883CB5CD040C453C7
:10149000DF4F5883CC5CD040C353DF4F6883CD5CB3
:1014A000D040C253DF4F7883CE5CD040C153DF4F72
:1014B0008883CF5CD040C053DF4F9883C05DD0405D
:1014C0002A3010F480E304C0822F6AE0E2D3805D0A
:1014D00080930B023AE0822F632FDBD3905D9093D1
:1014E0000C028AE380930D02C653DF4F2881CA5C49
:1014F000D0402A3010F480E304C0822F632FC9D378
:10150000805D80930E023AE0822F632FC2D3905DFC
:1015100090930F028AE380931002C553DF4F288116
:10152000CB5CD0402A3010F480E304C0822F632FBC
:10153000B0D3805D809311026AE0D62E822F6D2D8C
:10154000A8D3905D90931202109213028EE0EAE10C
:10155000F2E0DE01A753BF4F01900D928A95E1F7AB
:101560005BDAE92FCD51DF4F2883C35ED040CC51E9
:10157000DF4F3883C45ED040CB51DF4F4883C55E18
:10158000D040CA51DF4F5883C65ED040C951DF4FAB
:101590006883C75ED040C851DF4F7883C85ED040B3
:1015A000C751DF4F8883C95ED040C651DF4F988353
:1015B000CA5ED040CE0187539F4F8E0F911D8E0F74
:1015C000911DFC013297C080718026DAE62FC75347
:1015D000DF4F2883C95CD040C653DF4F3883CA5CD5
:1015E000D040C553DF4F4883CB5CD040C453DF4F5E
:1015F0005883CC5CD040C353DF4F6883CD5CD04070
:10160000C253DF4F7883CE5CD040C153DF4F888315
:10161000CF5CD040C053DF4F9883C05DD040C253F1
:10162000DF4F28813981CE5CD040C90168EE73E07C
:101630003CD3605D6093000274E6872E912CB40168
:1016400034D3605D60930102C901B4012ED3FAE086
:101650008F2E912CB40129D3605D60930202C901E1
:10166000B40123D3805D809303028FE28093040250
:10167000EA3010F480E304C08E2F6D2D0AD3805D14
:10168000809305023AE08E2F632F03D3905D9093F1
:1016900006028FE280930702C453DF4F2881CC5C9F
:1016A000D0402A3010F480E304C0822F632FF1D29F
:1016B000805D8093080240E052E0822F6AE0E9D228
:1016C000905D9093090210920A028BE092E09F9342
:1016D0008F937F92CF925F934F938DEA92E09F9387
:1016E0008F931F9288EC8F93FF92EF9232D5C701B0
:1016F000CFD89FEBC92E94E0D92E0FB6F894DEBF59
:101700000FBECDBF28EC422E39EE632E32E0732E91
:1017100047EC542E5EEC852E52E0952ED701E42D39
:101720001D92EA95E9F7F8013B9780813196811186
:101730000FC080811F928F93D6018C911F928F933F
:101740009F928F921F925F92FF92EF9202D536C0C6
:10175000D8018C911F928F9311978C911F928F9328
:1017600011978C911F928F9311978C911F928F9349
:1017700011978C911F928F9311978C911F928F9339
:1017800011978C911F928F9311978C911F928F9329
:1017900011978C911F928F9311978C911F928F9319
:1017A00080811F928F93F60180811F928F937F9289
:1017B0006F921F925F92FF92EF92CBD40FB6F89484
:1017C000DEBF0FBECDBFC70152D887E393E04FD82D
:1017D00097E1C90ED11C095E1F4FA5EACA16A5E004
:1017E000DA0609F09BCF8AE393E052D8C12CD12CC2
:1017F000C753DF4F19821882C95CD040C553DF4FF1
:1018000019821882CB5CD040C353DF4F19821882F3
:10181000CD5CD04060E070E0CE0187539F4FF0D99F
:10182000C753DF4F28813981C95CD040811118C06E
:101830002115310511F0C901FCD2C753DF4F1982C0
:101840001882C95CD040C353DF4F19821882CD5C27
:10185000D040C553DF4F19821882CB5CD0400AC0FC
:10186000C353DF4F19821882CD5CD04069E373E027
:10187000C90168D464E670E0CE0187539F4FC0D998
:101880006AE473E0CE0187539F4F65DAF50160810A
:10189000CE0187539F4F36DA65E573E0CE0187535B
:1018A0009F4F59DA86010A591B4FD80111966C9146
:1018B000CE0187539F4F26DAF8018281811107C03C
:1018C0006CED72E0CE0187539F4F45DA5CC061E654
:1018D00073E0CE0187539F4F3EDAD50157966D9145
:1018E0007C915897CE0187539F4FDED985010C5FBD
:1018F0001F4F812C912C6EE673E0CE0187539F4FD2
:101900002ADAB401CE0187539F4FCED965E773E041
:10191000CE0187539F4F1FDAF8018081882321F180
:1019200031976081CE0187539F4FECD968E773E010
:10193000CE0187539F4F0FDAD80111966D917D919B
:101940008D919C9114972AE0A70143D1F701019052
:101950000020E9F73197AF014E195F09B701CE01B9
:1019600087539F4F74D906C06AE773E0CE0187534F
:101970009F4FF1D9065F1F4F8A94892821F0882450
:101980008394912CB8CFC353DF4F48815981CD5CEC
:10199000D040C753DF4F68817981C95CD04085EC66
:1019A00093E00E94E30387E393E00E943704C75368
:1019B000DF4F88819981C95CD0403BD2EBE2CE0EEB
:1019C000D11CFBE2AF0EB11C26E5C216D10409F012
:1019D0000FCF0E941502FDCF08950F931F93CF9351
:1019E000DF931092C8031092C70388EE93E0A0E043
:1019F000B0E08093C9039093CA03A093CB03B09344
:101A0000CC038CE292E09093C6038093C50385ECEF
:101A100090E09093D2038093D10384EC90E0909374
:101A2000D4038093D30380EC90E09093D60380930B
:101A3000D50381EC90E09093D8038093D70382EC98
:101A400090E09093DA038093D90386EC90E0909332
:101A5000DC038093DB031092DE031092DF0310920D
:101A6000E0031092E1031092B30581E08093BB057F
:101A700082E08093C30583E08093CB0584E080936C
:101A8000D30585E08093DB050FEB14E0E3EDF4E094
:101A9000D8016AED77E081E045E09BE053967C93C6
:101AA0006E9352979F0123503109E9018883215099
:101AB0003109E901888323503109E90118822F5F38
:101AC0003F4FE90118822F5F3F4FE90118824083A1
:101AD0009C932E503109E901188257967796D5E0EC
:101AE000A53ABD07D9F684E18093A70585E18093E7
:101AF000A60583EB95E09093B2058093B10580E055
:101B000023EB35E0F8018083368B258B8F5F095EF0
:101B10001F4F8A30B9F7EAE6F4E021E030E04FB732
:101B2000F8948091620490916304A0916404B09150
:101B300065044FBFAC01BD014250510961097109F3
:101B4000458B568B678B708FAC01BD01415051099D
:101B500061097109418F528F638F748F858F968FC2
:101B6000A78FB0A3348B238B108215821682178225
:101B7000108612861786108A118A128ABB9684E014
:101B8000E03CF80761F683EB95E09093BD04809309
:101B9000BC041092660410926804909390048093A1
:101BA0008F0421E020939104109293049093BB043E
:101BB0008093BA04DF91CF911F910F910895BB27B5
:101BC0004A3031F4992322F4BDE2909581959F4FDC
:101BD00022C0BB27FA01A62F621771058105910566
:101BE000330B30FB66F0AA27660F771F881F991FFB
:101BF000AA1FA21710F0A21B63953850A9F7A05D89
:101C0000AA3308F0A95DA19336F7B111B193108200
:101C1000CA0119C0BB27FB015527AA27880F991FA6
:101C2000AA1FA41710F0A41B83955051B9F7A05D0B
:101C3000AA3308F0A95DA193009779F7B111B19388
:101C40001192CB0100C0DC01FC01672F7191772359
:101C5000E1F7329704C07C916D9370836291AE1767
:101C6000BF07C8F30895F999FECF92BD81BDF89AD8
:101C7000992780B50895262FF999FECF1FBA92BDF6
:101C800081BD20BD0FB6F894FA9AF99A0FBE01965D
:101C90000895991B79E004C0991F961708F0961BC8
:101CA000881F7A95C9F78095089597FB072E16F43B
:101CB000009406D077FD08D013D007FC05D03EF481
:101CC000909581959F4F0895709561957F4F0895E8
:101CD000EE0FFF1F881F8BBF0790F691E02D199420
:101CE000AA1BBB1B51E107C0AA1FBB1FA617B70742
:101CF00010F0A61BB70B881F991F5A95A9F780955E
:101D00009095BC01CD010895CF93DF93823091056A
:101D100010F482E090E0E091E505F091E60520E026
:101D200030E0C0E0D0E0309711F140815181481798
:101D30005907C0F04817590761F4828193812097B1
:101D400019F09B838A832BC09093E6058093E50569
:101D500026C02115310519F04217530718F49A01CE
:101D6000BE01DF01EF010280F381E02DDCCF211500
:101D7000310509F1281B390B2430310590F41296F6
:101D80008D919C9113976115710521F0FB0193834F
:101D9000828304C09093E6058093E505FD013296A9
:101DA00044C0FD01E20FF31F81939193225031094A
:101DB0002D933C933AC02091E3053091E405232B09
:101DC00041F420911602309117023093E4052093DC
:101DD000E30520911402309115022115310541F4DB
:101DE0002DB73EB74091180250911902241B350BB4
:101DF000E091E305F091E405E217F307A0F42E1B50
:101E00003F0B2817390778F0AC014E5F5F4F24175E
:101E1000350748F04E0F5F1F5093E4054093E305EC
:101E20008193919302C0E0E0F0E0CF01DF91CF9188
:101E300008950F931F93CF93DF93009709F48CC0FD
:101E4000FC013297138212820091E5051091E6059C
:101E50000115110581F420813181820F931F20919A
:101E6000E3053091E4052817390779F5F093E40587
:101E7000E093E30571C0D80140E050E0AE17BF0722
:101E800050F412962D913C911397AD012115310517
:101E900009F1D901F3CF9D01DA01338322836081F7
:101EA0007181860F971F8217930769F4EC012881CF
:101EB0003981260F371F2E5F3F4F318320838A8160
:101EC0009B8193838283452B29F4F093E605E0936D
:101ED000E50542C01396FC93EE931297ED014991EC
:101EE00059919E01240F351FE217F30771F4808189
:101EF0009181840F951F029611969C938E938281F7
:101F0000938113969C938E931297E0E0F0E0D801B2
:101F100012968D919C911397009719F0F8018C01FE
:101F2000F6CF8D919C9198012E5F3F4F820F931FAA
:101F30002091E3053091E4052817390769F43097BB
:101F400029F41092E6051092E50502C01382128270
:101F50001093E4050093E305DF91CF911F910F915A
:101F600008956F927F928F929F92AF92BF92CF927D
:101F7000DF92EF92FF920F931F93CF93DF93EC01C9
:101F8000009781F4CB01DF91CF911F910F91FF90CA
:101F9000EF90DF90CF90BF90AF909F908F907F9009
:101FA0006F90B2CEFC01E60FF71F9C012250310961
:101FB000E217F30708F4A8C0D9010D911C911197FD
:101FC00006171707A8F00530110508F49BC0C801D3
:101FD00004978617970708F495C002501109061B4D
:101FE000170B019311936D937C93CF0122DF8AC06D
:101FF0005B01A01AB10A4C01800E911EA091E5056B
:10200000B091E60540E050E0E12CF12C109709F486
:102010004AC0A815B905D1F56D907C901197630160
:1020200082E0C80ED11CCA14DB0480F1A3014A1956
:102030005B096A0182E0C80ED11C1296BC9012970F
:102040001396AC91B5E0CB16D10440F0B282A383D5
:1020500051834083D9016D937C930AC00E5F1F4F5B
:10206000C301800F911FF90191838083EB2DFA2F1B
:10207000E114F10431F0D7011396FC93EE9312971B
:1020800041C0F093E605E093E5053CC08D919C913D
:1020900011974817590708F4AC017D0112960D906D
:1020A000BC91A02DB3CF8091E3059091E4058815F4
:1020B0009905E1F446175707C8F4809114029091EE
:1020C0001502009741F48DB79EB7409118025091C8
:1020D0001902841B950BE817F907B0F4F093E40597
:1020E000E093E305F901718360830CC0CB010CDE42
:1020F0007C01009749F0A801BE011BD0CE0199DEFA
:10210000C70104C0CE0102C080E090E0DF91CF9112
:102110001F910F91FF90EF90DF90CF90BF90AF9005
:102120009F908F907F906F90089581E090E0F89459
:10213000E6C2FB01DC0102C001900D92415050400B
:10214000D8F70895FB01DC0101900D920020E1F722
:1021500008950F931F93CF93DF93CDB7DEB72E97DC
:102160000FB6F894DEBF0FBECDBF0E891F89888DD4
:10217000998D26E02C831A83098397FF02C080E0A3
:1021800090E801979E838D83AE01445E5F4F6A8D18
:102190007B8DCE01019619D04D815E8157FD0AC01D
:1021A0002F813885421753070CF49A01F801E20F8A
:1021B000F31F10822E960FB6F894DEBF0FBECDBF70
:1021C000DF91CF911F910F9108952F923F924F92DF
:1021D0005F926F927F928F929F92AF92BF92CF92B7
:1021E000DF92EF92FF920F931F93CF93DF93CDB7C0
:1021F000DEB72C970FB6F894DEBF0FBECDBF7C01C3
:102200006B018A01FC0117821682838181FFB0C1B4
:10221000CE0101964C01F7019381F60193FD859162
:1022200093FF81916F01882309F49EC1853239F4AF
:1022300093FD859193FF81916F01853221F4B70160
:1022400090E0C7D1E8CF512C312C20E02032A0F40F
:102250008B3269F030F4803259F0833269F42061B6
:102260002CC08D3239F0803339F4216026C02260D1
:10227000246023C0286021C027FD27C030ED380F1F
:102280003A3078F426FF06C0FAE05F9E300D112444
:10229000532E13C08AE0389E300D1124332E206255
:1022A0000CC08E3221F426FD5FC1206406C08C363E
:1022B00011F4206802C0883641F4F60193FD85913F
:1022C00093FF81916F018111C1CF982F9F7D95540C
:1022D000933028F40C5F1F4FFFE3F9830DC0833662
:1022E00031F0833771F0833509F057C021C0F80110
:1022F000808189830E5F1F4F44244394512C5401E5
:1023000014C03801F2E06F0E711CF801A080B1809A
:1023100026FF03C0652D70E002C06FEF7FEFC5019F
:102320002C874CD12C0183012C852F77222E16C0AF
:102330003801F2E06F0E711CF801A080B18026FF19
:1023400003C0652D70E002C06FEF7FEFC5012C87E1
:102350002AD12C012C852068222E830123FC19C050
:10236000832D90E048165906A0F4B70180E290E072
:1023700030D13A94F5CFF50127FC859127FE819164
:102380005F01B70190E025D131103A94F1E04F1A86
:1023900051084114510479F7DEC0843611F08936B2
:1023A00031F5F80127FF07C0608171818281938137
:1023B0000C5F1F4F08C060817181072E000C880BD5
:1023C000990B0E5F1F4F2F76722E97FF09C09095C5
:1023D0008095709561957F4F8F4F9F4F2068722E2B
:1023E0002AE030E0A4012DD1A82EA81843C08537DB
:1023F00029F42F7EB22E2AE030E025C0F22FF97F9B
:10240000BF2E8F36C1F018F4883579F0ADC0803713
:1024100019F0883721F0A8C02F2F2061B22EB4FE0A
:102420000DC08B2D8460B82E09C024FF0AC09F2FD9
:102430009660B92E06C028E030E005C020E130E00B
:1024400002C020E132E0F801B7FE07C0608171816F
:10245000828193810C5F1F4F06C06081718180E093
:1024600090E00E5F1F4FA401ECD0A82EA818FB2D02
:10247000FF777F2E76FE0BC0372D3E7FA51450F4DC
:1024800074FE0AC072FC08C0372D3E7E05C0BA2C0F
:10249000372D03C0BA2C01C0B52C34FF0DC0FE018E
:1024A000EA0DF11D8081803311F4397E09C032FFBD
:1024B00006C0B394B39404C0832F867809F0B39414
:1024C00033FD12C030FF06C05A2CB31418F4530C5D
:1024D0005B18B32CB31460F4B70180E290E03C8742
:1024E00078D0B3943C85F6CFB31410F43B1801C0F8
:1024F000312C34FF11C0B70180E390E03C8769D0F4
:102500003C8532FF16C031FD03C088E790E002C071
:1025100088E590E0B7010CC0832F867851F031FF39
:1025200002C08BE201C080E237FD8DE2B70190E08E
:1025300050D0A51430F4B70180E390E04AD05A940B
:10254000F8CFAA94F401EA0DF11D8081B70190E063
:1025500040D0A110F6CF332009F45DCEB70180E260
:1025600090E037D03A94F7CFF7018681978102C087
:102570008FEF9FEF2C960FB6F894DEBF0FBECDBF46
:10258000DF91CF911F910F91FF90EF90DF90CF904F
:10259000BF90AF909F908F907F906F905F904F9083
:1025A0003F902F900895FC010590615070400110FC
:1025B000D8F7809590958E0F9F1F0895FC0161506C
:1025C000704001900110D8F7809590958E0F9F1F55
:1025D00008950F931F93CF93DF93FB01238121FD78
:1025E00003C08FEF9FEF28C022FF16C0468157819E
:1025F000248135814217530744F4A081B1819D01A4
:102600002F5F3F4F318320838C93268137812F5F4B
:102610003F4F3783268310C0EB01092F182F00840A
:10262000F185E02D1995892BE1F68E819F81019628
:102630009F838E83812F902FDF91CF911F910F91D8
:102640000895FA01AA27283051F1203181F1E89448
:102650006F936E7F6E5F7F4F8F4F9F4FAF4FB1E095
:102660003ED0B4E03CD0670F781F891F9A1FA11D90
:10267000680F791F8A1F911DA11D6A0F711D811D91
:10268000911DA11D20D009F468943F912AE0269F56
:1026900011243019305D3193DEF6CF010895462FB5
:1026A0004770405D4193B3E00FD0C9F7F6CF462F96
:1026B0004F70405D4A3318F0495D31FD40524193FF
:1026C00002D0A9F7EACFB4E0A695979587957795BC
:1026D0006795BA95C9F700976105710508959B0143
:1026E000AC010A2E06945795479537952795BA95CC
:1026F000C9F7620F731F841F951FA01D089511E075
:10270000C5E1D1E000E005C0802FFE01E1DA2196AD
:10271000011DC631D10780E00807B1F7F894FFCF5B
:1027200078787878787878787878007878787878A1
:10273000787878000000E705800086038D03950314
:102740009F03A803AF03B80300000000AE01E3033A
:102750004701F401780156016A0153657269616CA1
:1027600020706F72742069732072656164792E0025
:10277000526573657420697320646F6E652E00491D
:102780006E697469616C697A696E6720445331338C
:102790003037202E2E2E004C6F6164696E672074D6
:1027A000696D65722066726F6D20454550524F4DC0
:1027B000202E2E2E00496E697469616C697A6174ED
:1027C000696F6E20697320646F6E652E000A53680E
:1027D0006F7720616C6C0A54696D653A0A25732025
:1027E00025732025730A54696D65723A0A004944BD
:1027F0003A25642C2050696E3A256420556E617626
:1028000061696C61626C65210049443A25642C2041
:1028100050696E3A25642053746172743A25784881
:10282000202D20253032643A253032643A2530326A
:102830006420456E643A257848202D202530326486
:102840003A253032643A2530326420496E7465721C
:102850003A25642D2564000D0A0053686F772061C6
:102860006C6C205369676E616C005369676E616CB4
:102870002049643A0020627574746F6E50696E3A34
:102880000020627574746F6E537461743A0020692D
:102890006E73745B005D3A002D00556E6176616960
:1028A0006C61626C65004D6F6E6461790054756592
:1028B00073646179005765646E657364617900546F
:1028C0006875727364617900467269646179005356
:1028D000617475726461790053756E64617900008A
:00000001FF
