:100000000C9463000C948B000C948B000C9478057A
:100010000C9478050C9478050C948B000C948B0050
:100020000C948B000C948B000C948B000C948B0024
:100030000C948B000C948B000C948B000C948B0014
:100040000C942E050C948B000C94FC040C94D60498
:100050000C948B000C948B000C948B000C948B00F4
:100060000C948B000C948B000000000024002700EF
:100070002A0000000000250028002B0000000000DE
:1000800023002600290004040404040404040202DA
:100090000202020203030303030301020408102007
:1000A0004080010204081020010204081020000012
:1000B0000008000201000003040700000000000027
:1000C00000008205CE0911241FBECFEFD8E0DEBFAD
:1000D000CDBF24E0AAE5B2E001C01D92A632B2076E
:1000E000E1F712E0A0E0B1E0E0E1FAE102C0059042
:1000F0000D92AA35B107D9F710E0C2E6D0E004C0EE
:100100002197FE010E94420AC136D107C9F70E9419
:1001100029060C94FB0C0C940000CF92DF92EF9216
:10012000FF920F931F93CF93DF936C017A018B01A2
:10013000C0E0D0E0CE15DF0589F0D8016D918D01CA
:10014000D601ED91FC910190F081E02DC601099559
:10015000892B11F47E0102C02196ECCFC701DF91FB
:10016000CF911F910F91FF90EF90DF90CF90089566
:10017000FC01538D448D252F30E0842F90E0821BAD
:10018000930B541710F0CF96089501970895FC0132
:10019000918D828D981761F0828DDF01A80FB11DBE
:1001A0005D968C91928D9F5F9F73928F90E00895E2
:1001B0008FEF9FEF0895FC01918D828D981731F09C
:1001C000828DE80FF11D858D90E008958FEF9FEFF0
:1001D0000895FC01918D228D892F90E0805C9F4FC6
:1001E000821B91098F739927089585E692E00E94FA
:1001F000E90021E0892B09F420E0822F0895FC0119
:10020000848DDF01A80FB11DA35ABF4F2C91848D9F
:1002100090E001968F739927848FA689B7892C93D4
:10022000A089B1898C9180648C93938D848D98136F
:1002300006C00288F389E02D80818F7D8083089538
:10024000EF92FF920F931F93CF93DF93EC0181E026
:10025000888F9B8D8C8D981305C0E889F9898081E2
:1002600085FD24C0F62E0B8D10E00F5F1F4F0F731E
:100270001127E02E8C8DE8120CC00FB607FCFACFC8
:10028000E889F989808185FFF5CFCE010E94FF00C2
:10029000F1CF8B8DFE01E80FF11DE35AFF4FF08285
:1002A0000B8FEA89FB898081806207C0EE89FF8914
:1002B0006083E889F98980818064808381E090E0AF
:1002C000DF91CF911F910F91FF90EF900895CF9301
:1002D000DF93EC01888D8823C9F0EA89FB8980814E
:1002E00085FD05C0A889B9898C9186FD0FC00FB620
:1002F00007FCF5CF808185FFF2CFA889B9898C9161
:1003000085FFEDCFCE010E94FF00E7CFDF91CF91B7
:10031000089580E090E0892B29F00E94F50081117A
:100320000C9400000895833081F028F4813099F016
:100330008230A1F008958730A9F08830B9F0843078
:10034000D1F4809180008F7D03C0809180008F77F1
:1003500080938000089584B58F7702C084B58F7D27
:1003600084BD08958091B0008F7703C08091B00064
:100370008F7D8093B0000895CF93DF93282F30E0D6
:10038000F901E255FF4F8491F901E656FF4FD491F0
:10039000F901EA57FF4FC491CC2391F081110E94DB
:1003A0009301EC2FF0E0EE0FFF1FE458FF4FA591F3
:1003B000B491EC91ED2381E090E021F480E002C063
:1003C00080E090E0DF91CF9108951F93CF93DF936A
:1003D000282F30E0F901E255FF4F8491F901E656EC
:1003E000FF4FD491F901EA57FF4FC491CC23C9F0D4
:1003F000162F81110E949301EC2FF0E0EE0FFF1FEA
:10040000EE58FF4FA591B4918FB7F894111105C024
:100410009C91ED2FE095E92302C0EC91ED2BEC933C
:100420008FBFDF91CF911F910895CF93DF9390E01D
:10043000FC01E656FF4F2491FC01EA57FF4F8491DF
:10044000882361F190E0880F991FFC01E859FF4F64
:10045000C591D491FC01EE58FF4FA591B491611163
:1004600009C09FB7F8948881209582238883EC91F6
:100470002E230BC0623061F49FB7F8943881822F2D
:10048000809583238883EC912E2B2C939FBF06C0ED
:100490008FB7F894E8812E2B28838FBFDF91CF91FF
:1004A0000895CF93DF93CAEED3E061E088810E9484
:1004B000150260E088810E94E50161E08091E90316
:1004C0000E94E50161E088810E94E50160E0888189
:1004D000DF91CF910C9415020F931F93CF93DF936D
:1004E000CAEED3E061E088810E94150209EE13E0B4
:1004F00060E0F80180810E94E50161E088810E944E
:10050000E50161E0F80180810E94E50160E0F80109
:1005100080810E94E50160E08881DF91CF911F9189
:100520000F910C9415021F93CF93DF9360E080919D
:10053000EA030E941502C7E0D0E010E061E080917C
:10054000E9030E94E5018091EA030E94BC019C013D
:1005500033270C2E01C0220F0A94EAF7122B60E019
:100560008091E9030E94E501219740F7812FDF91F7
:10057000CF911F91089560E08091EA030E941502D7
:1005800061E08091E9030E94E5018091EA030E9405
:10059000BC010197D1F360E08091E9030C94E5017F
:1005A0003FB7F8948091610290916202A09163023A
:1005B000B091640226B5A89B05C02F3F19F00196A3
:1005C000A11DB11D3FBFBA2FA92F982F8827820FD9
:1005D000911DA11DB11DBC01CD0142E0660F771F29
:1005E000881F991F4A95D1F708958F929F92AF92D5
:1005F000BF92CF92DF92EF92FF926B017C010E943B
:10060000D0024B015C01C114D104E104F104F1F00A
:100610000E94D002DC01CB0188199909AA09BB0903
:10062000883E9340A105B10570F321E0C21AD108BC
:10063000E108F10888EE880E83E0981EA11CB11C29
:10064000C114D104E104F10419F7DDCFFF90EF905C
:10065000DF90CF90BF90AF909F908F9008950895B6
:1006600080E090E00895EF92FF920F931F93CF9355
:10067000DF93E82EF62EC7E0D0E0042F10E09801BB
:100680000C2E02C0359527950A94E2F7B9016170E6
:1006900077278E2D0E94E50161E08F2D0E94E501F4
:1006A00060E08F2D0E94E501219748F7DF91CF91FF
:1006B0001F910F91FF90EF900895EF92FF920F938B
:1006C0001F93CF93DF931F92CDB7DEB7482F8AEEEB
:1006D000E82E83E0F82E61E0F701808149830E94D3
:1006E000150261E0F70180810E94E50109EE13E047
:1006F00061E0F80180810E94E50160E0F7018081FE
:100700000E94E50160E0F80180810E94E5014981D5
:10071000F8016081F70180810F90DF91CF911F91E7
:100720000F91FF90EF900C9433030F931F93CF938F
:10073000DF931F92CDB7DEB7482F0AEE13E061E0DA
:10074000F801808149830E94150249816091E90383
:10075000F80180810F90DF91CF911F910F910C9440
:1007600033030F931F93CF93DF93CDB7DEB7289753
:100770000FB6F894DEBF0FBECDBF8091F303882380
:1007800009F446C084EE8093BC008091BC0087FFD2
:10079000FCCF80ED8093BB0084EC8093BC00809103
:1007A000BC0087FFFCCF1092BB0084EC8093BC00A0
:1007B0008091BC0087FFFCCF84EE8093BC008091C9
:1007C000BC0087FFFCCF81ED8093BB0084EC80935D
:1007D000BC008091BC0087FFFCCFEBEEF3E094EC13
:1007E0009093BC008091BC0087FFFCCF8091BB0040
:1007F000819373E0E23FF70799F784E88093BC00A8
:100800008091BC0087FFFCCF84E98093BC0042C08C
:1008100080ED0E945D030E94BB0280E00E94950370
:100820000E94BB0281ED0E945D030E94BB0200E0BA
:1008300010E00E949302F801E551FC4F80830630DE
:100840001105F9F061E08091EA030E94150260E071
:100850008091E9030E94E50160E08091EA030E9433
:10086000E50161E08091E9030E94E50160E080918B
:10087000E9030E94E50160E08091EA030E9415020D
:1008800002C00E946C020F5F1F4F0730110589F6EE
:100890000E9451028091EB03482F4695469546955C
:1008A0004E70942F990F990F490F8F70480F8091B8
:1008B000EC03382F3695369536953E70932F990F69
:1008C000990F390F8F70380F8091ED03282F2F70FB
:1008D00087FF08C085FB992790F98CE0989F200D31
:1008E000112409C08073869586958695982F990F57
:1008F000990F890F280FE091EE036091EF0370913B
:10090000F0038091F103562F5695569556955E70DB
:10091000952F990F990F590F6F70560F672F669586
:10092000669566956E70962F990F990F690F7F7077
:10093000670F982F92959F708F707AE0979F800D28
:10094000112490E08053984F9F838E83782F8F815E
:100950009E2F28960FB6F894DEBF0FBECDBFDF9155
:10096000CF911F910F910895009769F0FC010190BC
:100970000020E9F73197AF01481B590BBC0185E610
:1009800092E00C948D0080E090E00895CF93DF9387
:100990000E94B404EC0184E391E00E94B4048C0F43
:1009A0009D1FDF91CF9108950E94480A1F920F92D8
:1009B0000FB60F9211242F933F934F935F936F9332
:1009C0007F938F939F93AF93BF93EF93FF9385E6AE
:1009D00092E00E94FF00FF91EF91BF91AF919F9134
:1009E0008F917F916F915F914F913F912F910F90D8
:1009F0000FBE0F901F9018951F920F920FB60F9277
:100A000011242F938F939F93EF93FF93E09175029F
:100A1000F09176028081E0917B02F0917C0282FD70
:100A200012C0908180917E028F5F8F7320917F0230
:100A3000821751F0E0917E02F0E0EB59FD4F958F67
:100A400080937E0201C08081FF91EF919F918F91F1
:100A50002F910F900FBE0F901F9018951F920F921D
:100A60000FB60F9211242F933F938F939F93AF93C1
:100A7000BF9380915D0290915E02A0915F02B09160
:100A8000600230915C0223E0230F2D3720F40196A1
:100A9000A11DB11D05C026E8230F0296A11DB11DA1
:100AA00020935C0280935D0290935E02A0935F02AC
:100AB000B09360028091610290916202A091630202
:100AC000B09164020196A11DB11D809361029093C3
:100AD0006202A0936302B0936402BF91AF919F91B1
:100AE0008F913F912F910F900FBE0F901F901895EF
:100AF0001F920F920FB60F9211240F900FBE0F90FE
:100B00001F9018950F931F93CF93DF931092680255
:100B10001092670288EE93E0A0E0B0E08093690253
:100B200090936A02A0936B02B0936C0286E291E00C
:100B3000909366028093650285EC90E09093720238
:100B40008093710284EC90E090937402809373021E
:100B500080EC90E0909376028093750281EC90E0B7
:100B6000909378028093770282EC90E090937A02DF
:100B70008093790286EC90E090937C0280937B02D4
:100B800010927E0210927F021092800210928102D7
:100B90001092F60381E08093FE0382E080930604C6
:100BA00083E080930E0484E08093160485E08093B4
:100BB0001E0402E013E0E6E1F3E0D8016AED77E01D
:100BC00081E045E09BE053967C936E9352979F01A2
:100BD00023503109E901888321503109E9018883D3
:100BE00023503109E90118822F5F3F4FE901188234
:100BF0002F5F3F4FE901188240839C932E503109AB
:100C0000E901188257967796D3E0A83EBD07D9F63A
:100C100087E391E00E94C60484E08093EA0385E0C4
:100C20008093E90386EF93E09093F5038093F403B8
:100C300080E026EF33E0F8018083368B258B8F5FD1
:100C4000095E1F4F8A30B9F7DF91CF911F910F9145
:100C50000895CF93DF93CDB7DEB7CE5DD1090FB640
:100C6000F894DEBF0FBECDBF789484B5826084BD9A
:100C700084B5816084BD85B5826085BD85B58160A0
:100C800085BD80916E00816080936E00109281001E
:100C900080918100826080938100809181008160D9
:100CA000809381008091800081608093800080919A
:100CB000B10084608093B1008091B0008160809326
:100CC000B00080917A00846080937A0080917A00ED
:100CD000826080937A0080917A00816080937A00AC
:100CE00080917A00806880937A001092C100E09130
:100CF0007502F091760282E08083E0917102F091BA
:100D000072021082E0917302F091740280E180839C
:100D100010927D02E0917902F0917A0286E0808360
:100D2000E0917702F0917802808180618083E09188
:100D30007702F0917802808188608083E091770269
:100D4000F0917802808180688083E0917702F09151
:100D5000780280818F7D808384E591E00E94C604C3
:100D60008AE691E00E94C6048091EA03823101F58F
:100D70008091E9038331E1F481E08093F30361E042
:100D800082E10E94E50161E083E10E94E50180913A
:100D9000B9008E7F8093B9008091B9008D7F8093D8
:100DA000B9008CE08093B80085E08093BC0007C058
:100DB0001092F30361E08091E9030E941502809193
:100DC000F303882309F43FC084EE8093BC00809134
:100DD000BC0087FFFCCF80ED8093BB0084EC809348
:100DE000BC008091BC0087FFFCCF1092BB0084EC5C
:100DF0008093BC008091BC0087FFFCCF84EE809381
:100E0000BC008091BC0087FFFCCF81ED8093BB00CC
:100E100084EC8093BC008091BC0087FFFCCF84EC05
:100E20008093BC008091BC0087FFFCCF1091BB0079
:100E300084E88093BC008091BC0087FFFCCF84E9EC
:100E40008093BC0016C080ED0E945D030E94BB022F
:100E500080E00E9495030E94BB0281ED0E945D0329
:100E60000E94BB020E949302182F0E946C020E94F3
:100E700051021F778091F303882339F184EE809328
:100E8000BC008091BC0087FFFCCF80ED8093BB004D
:100E900084EC8093BC008091BC0087FFFCCF109253
:100EA000BB0084EC8093BC008091BC0087FFFCCF2A
:100EB0001093BB0084EC8093BC008091BC0087FF42
:100EC000FCCF84E98093BC0011C080ED0E945D03DB
:100ED0000E94BB0280E00E9495030E94BB02812F0A
:100EE0000E9495030E94BB020E94510282E891E099
:100EF0000E94C6047EE0E72E73E0F72ECE01019635
:100F00006C0188249924881A990A8701B12C3E0122
:100F10009CE0690E711CE0E14E2EE7E25E2E1601A8
:100F2000C101880D991D0E94CF09D1018D931D012A
:100F3000A615B705A9F78981882309F449C0F801E6
:100F40003C97B082319680838A81319680839B81E1
:100F500031969083AC813196A0837D8131967083E8
:100F60006E81319660838F81E885F985849DA0012B
:100F7000859D500D1124B4E6EB9F400D511D1124A9
:100F80004F0F511DA49D9001A59D300D1124A4E685
:100F90007A9F200D311D1124260F311D4217530752
:100FA0004CF4990FD80115979C9397FF03C09F7736
:100FB00091609C93D80114978C931196EC931196A1
:100FC000FC938A85F801319780838B85F8018083B3
:100FD000095E1F4FB394FBE08F0E911C2AE0B21202
:100FE0009ECF64E670E080E090E00E94F50288EC1D
:100FF000D6011D928A95E9F70E94B103C753DF4FCE
:101000002883C95CD040C653DF4F3883CA5CD040C8
:10101000C553DF4F4883CB5CD040C453DF4F588368
:10102000CC5CD040C353DF4F6883CD5CD040C2530B
:10103000DF4F7883CE5CD040C153DF4F8883CF5CD5
:10104000D040C053DF4F9883C05DD0402A3010F4A9
:1010500080E305C0822F6B2D0E940E0A805D809375
:101060000B013AE0822F632F0E940E0A905D90934D
:101070000C018AE380930D01C653DF4F2881CA5CBF
:10108000D0402A3010F480E305C0822F632F0E94E5
:101090000E0A805D80930E013AE0822F632F0E943A
:1010A0000E0A905D90930F018AE380931001C5535F
:1010B000DF4F2881CB5CD0402A3010F480E305C09C
:1010C000822F632F0E940E0A805D809311014AE0F7
:1010D000B42E822F6B2D0E940E0A905D9093120108
:1010E000109213018EE0E4E1F1E0DE01A753BF4F5F
:1010F00001900D928A95E1F70E94B103E92FC95240
:10110000DF4F2883C75DD040C852DF4F3883C85DAA
:10111000D040C752DF4F4883C95DD040C652DF4F31
:101120005883CA5DD040C552DF4F6883CB5DD04045
:10113000C452DF4F7883CC5DD040C352DF4F8883E9
:10114000CD5DD040C252DF4F9883CE5DD040CE01FE
:1011500087539F4F8E0F911D8E0F911DFC0132976B
:10116000108101810E94B103262FC453DF4F5883A1
:10117000CC5CD040C253DF4F7883CE5CD040C153AB
:10118000DF4F8883CF5CD040C253DF4FE881F981C5
:10119000CE5CD040CF0168EE73E00E941A0A605D19
:1011A0006093000154E6852E912CB4010E941A0A26
:1011B00080E3860F80930101CF01B4010E941A0AD7
:1011C0006AE0862E912CB4010E941A0A80E3860FF1
:1011D00080930201CF01B4010E941A0A805D8093BE
:1011E00003018FE2809304012A3010F480E305C0EC
:1011F000822F6B2D0E940E0A805D809305013AE0DC
:10120000822F632F0E940E0A905D909306018FE259
:1012100080930701C453DF4F2881CC5CD0402A3033
:1012200010F480E305C0822F632F0E940E0A805DB8
:101230008093080140E051E0822F6AE00E940E0A8C
:10124000905D9093090110920A018BE091E09F93C9
:101250008F930F931F935F934F9380EA91E09F9337
:101260008F931F9288EC8F93DF92CF920E944D0A4A
:10127000C6010E94C60402E013E00FB6F894DEBF78
:101280000FBECDBF88EC382E93ED892E91E0992EBC
:1012900027ECB22E38EB632E31E0732E2701FBE0F2
:1012A0004F1A5108D2018C91882309F464C06AE076
:1012B00070E080E090E00E94F502F601232D11928B
:1012C0002A95E9F7D2018C91F7013A97811110C064
:1012D00080811F928F93F80180811F928F937F925C
:1012E0006F921F92BF92DF92CF920E944D0A37C039
:1012F000D7018C911F928F9311978C911F928F938E
:1013000011978C911F928F9311978C911F928F93AD
:1013100011978C911F928F9311978C911F928F939D
:1013200011978C911F928F9311978C911F928F938D
:1013300011978C911F928F9311978C911F928F937D
:1013400080811F928F93F80180811F928F939F92CB
:101350008F921F92BF92DF92CF920E944D0A0FB6DA
:10136000F894DEBF0FBECDBFC6010E94B40484E373
:1013700091E00E94B404095E1F4F97E1E90EF11C51
:10138000A3E0083E1A0709F089CF68EE73E080E019
:1013900090E00E94F5020E948901F7CF0895F99923
:1013A000FECF92BD81BDF89A992780B508952F92FE
:1013B0003F924F925F926F927F928F929F92AF92E5
:1013C000BF92CF92DF92EF92FF920F931F93CF9332
:1013D000DF93CDB7DEB7CA1BDB0B0FB6F894DEBFC9
:1013E0000FBECDBF09942A88398848885F846E84EF
:1013F0007D848C849B84AA84B984C884DF80EE8039
:10140000FD800C811B81AA81B981CE0FD11D0FB641
:10141000F894DEBF0FBECDBFED010895991B79E0B2
:1014200004C0991F961708F0961B881F7A95C9F774
:101430008095089597FB072E16F4009407D077FD4A
:1014400009D00E942E0A07FC05D03EF490958195A4
:101450009F4F0895709561957F4F0895AA1BBB1B00
:1014600051E107C0AA1FBB1FA617B70710F0A61BA4
:10147000B70B881F991F5A95A9F780959095BC01C5
:10148000CD010895EE0FFF1F0590F491E02D099412
:1014900081E090E0F8940C94FB0CAEE0B0E0E3E562
:1014A000FAE00C94E5090D891E898F89988D26E054
:1014B0002C831A83098397FF02C080E090E801978C
:1014C0009E838D83AE01455E5F4F698D7A8DCE011F
:1014D00001960E947D0A4D815E8157FD0AC02F81D1
:1014E0003885421753070CF49A01F801E20FF31FF5
:1014F00010822E96E4E00C94010AACE0B0E0E3E840
:10150000FAE00C94D7097C016B018A01FC01178277
:101510001682838181FFBDC1CE0101964C01F70186
:101520009381F60193FD859193FF81916F0188234B
:1015300009F4ABC1853239F493FD859193FF819114
:101540006F01853229F4B70190E00E94650CE7CF66
:10155000512C312C20E02032A0F48B3269F030F491
:10156000803259F0833269F420612CC08D3239F019
:10157000803339F4216026C02260246023C02860B3
:1015800021C027FD27C030ED380F3A3078F426FF10
:1015900006C0FAE05F9E300D1124532E13C08AE07E
:1015A000389E300D1124332E20620CC08E3221F46F
:1015B00026FD6BC1206406C08C3611F4206802C081
:1015C000883641F4F60193FD859193FF81916F0177
:1015D0008111C1CF982F9F7D9554933028F40C5FD3
:1015E0001F4FFFE3F9830DC0833631F0833771F06D
:1015F000833509F05BC022C0F801808189830E5FCA
:101600001F4F44244394512C540115C03801F2E07B
:101610006F0E711CF801A080B18026FF03C0652DFC
:1016200070E002C06FEF7FEFC5012C870E945A0C5B
:101630002C0183012C852F77222E17C03801F2E070
:101640006F0E711CF801A080B18026FF03C0652DCC
:1016500070E002C06FEF7FEFC5012C870E944F0C36
:101660002C012C852068222E830123FC1BC0832D96
:1016700090E048165906B0F4B70180E290E00E946D
:10168000650C3A94F4CFF50127FC859127FE8191F2
:101690005F01B70190E00E94650C31103A94F1E0CF
:1016A0004F1A51084114510471F7E5C0843611F006
:1016B000893639F5F80127FF07C060817181828181
:1016C00093810C5F1F4F08C060817181072E000C51
:1016D000880B990B0E5F1F4F2F76722E97FF09C054
:1016E00090958095709561957F4F8F4F9F4F2068A3
:1016F000722E2AE030E0A4010E949D0CA82EA818AA
:1017000044C0853729F42F7EB22E2AE030E025C070
:10171000F22FF97FBF2E8F36C1F018F4883579F09B
:10172000B4C0803719F0883721F0AFC02F2F206167
:10173000B22EB4FE0DC08B2D8460B82E09C024FFDC
:101740000AC09F2F9660B92E06C028E030E005C081
:1017500020E130E002C020E132E0F801B7FE07C02E
:1017600060817181828193810C5F1F4F06C060810F
:10177000718180E090E00E5F1F4FA4010E949D0CDC
:10178000A82EA818FB2DFF777F2E76FE0BC0372DD5
:101790003E7FA51450F474FE0AC072FC08C0372DB9
:1017A0003E7E05C0BA2C372D03C0BA2C01C0B52C23
:1017B00034FF0DC0FE01EA0DF11D8081803311F46C
:1017C000397E09C032FF06C0B394B39404C0832F9E
:1017D000867809F0B39433FD13C030FF06C05A2C4D
:1017E000B31418F4530C5B18B32CB31468F4B7019A
:1017F00080E290E03C870E94650CB3943C85F5CF75
:10180000B31410F43B1801C0312C34FF12C0B701DF
:1018100080E390E03C870E94650C3C8532FF17C056
:1018200031FD03C088E790E002C088E590E0B70191
:101830000CC0832F867859F031FF02C08BE201C0C3
:1018400080E237FD8DE2B70190E00E94650CA5149F
:1018500038F4B70180E390E00E94650C5A94F7CF0A
:10186000AA94F401EA0DF11D8081B70190E00E9475
:10187000650CA110F5CF332009F451CEB70180E2F9
:1018800090E00E94650C3A94F6CFF701868197812B
:1018900002C08FEF9FEF2C96E2E10C94F309FC015C
:1018A0000590615070400110D8F7809590958E0F8B
:1018B0009F1F0895FC016150704001900110D8F7FE
:1018C000809590958E0F9F1F08950F931F93CF9330
:1018D000DF93FB01238121FD03C08FEF9FEF28C021
:1018E00022FF16C046815781248135814217530754
:1018F00044F4A081B1819D012F5F3F4F318320834C
:101900008C93268137812F5F3F4F3783268310C00A
:10191000EB01092F182F0084F185E02D0995892B03
:10192000E1F68E819F8101969F838E83812F902F78
:10193000DF91CF911F910F910895FA01AA272830C6
:1019400051F1203181F1E8946F936E7F6E5F7F4F8C
:101950008F4F9F4FAF4FB1E03ED0B4E03CD0670F08
:10196000781F891F9A1FA11D680F791F8A1F911D5B
:10197000A11D6A0F711D811D911DA11D20D009F4AB
:1019800068943F912AE0269F11243019305D3193ED
:10199000DEF6CF010895462F4770405D4193B3E0D6
:1019A0000FD0C9F7F6CF462F4F70405D4A3318F07D
:1019B000495D31FD4052419302D0A9F7EACFB4E02E
:1019C000A6959795879577956795BA95C9F70097E6
:1019D0006105710508959B01AC010A2E0694579587
:1019E000479537952795BA95C9F7620F731F841FDE
:1019F000951FA01D089510E0C2E6D0E004C0FE01CE
:101A00000E94420A2196C336D107C9F7F894FFCF46
:101A100078787878787878787878007878787878BE
:101A2000787878002102280230023A0243024A0202
:101A300053020000000020018D00B8006701E9009A
:101A4000C700DB000D0A0054696D65725065727342
:101A500069737420697320636F6E73747275637435
:101A600065642E0053657269616C20706F7274201A
:101A700069732072656164792E00496E69746961C9
:101A80006C697A696E6720445331333037202E2ECB
:101A90002E004C6F6164696E672074696D657220F9
:101AA00066726F6D20454550524F4D202E2E2E00F0
:101AB0000A53686F7720616C6C0A54696D653A252A
:101AC000732025732025730049443A25642C205047
:101AD000696E3A256420556E617661696C61626C4D
:101AE00065210049443A25642C2050696E3A2564EA
:101AF0002053746172743A257848202D20253032A5
:101B0000643A253032643A2530326420456E643AB6
:101B1000257848202D20253032643A253032643A29
:101B20002530326420496E7465723A25642D25642F
:101B3000004D6F6E6461790054756573646179005E
:101B40005765646E65736461790054687572736477
:101B500061790046726964617900536174757264D9
:0A1B600061790053756E646179002D
:107E0000112484B714BE81FFF0D085E080938100F7
:107E100082E08093C00088E18093C10086E0809377
:107E2000C20080E18093C4008EE0C9D0259A86E02C
:107E300020E33CEF91E0309385002093840096BBD3
:107E4000B09BFECF1D9AA8958150A9F7CC24DD24C4
:107E500088248394B5E0AB2EA1E19A2EF3E0BF2EE7
:107E6000A2D0813461F49FD0082FAFD0023811F036
:107E7000013811F484E001C083E08DD089C08234E0
:107E800011F484E103C0853419F485E0A6D080C0E4
:107E9000853579F488D0E82EFF2485D0082F10E0AE
:107EA000102F00270E291F29000F111F8ED06801E7
:107EB0006FC0863521F484E090D080E0DECF843638
:107EC00009F040C070D06FD0082F6DD080E0C81688
:107ED00080E7D80618F4F601B7BEE895C0E0D1E017
:107EE00062D089930C17E1F7F0E0CF16F0E7DF06D8
:107EF00018F0F601B7BEE89568D007B600FCFDCFD4
:107F0000A601A0E0B1E02C9130E011968C91119780
:107F100090E0982F8827822B932B1296FA010C0160
:107F200087BEE89511244E5F5F4FF1E0A038BF0790
:107F300051F7F601A7BEE89507B600FCFDCF97BE46
:107F4000E89526C08437B1F42ED02DD0F82E2BD052
:107F50003CD0F601EF2C8F010F5F1F4F84911BD097
:107F6000EA94F801C1F70894C11CD11CFA94CF0C13
:107F7000D11C0EC0853739F428D08EE10CD085E9AC
:107F80000AD08FE07ACF813511F488E018D01DD067
:107F900080E101D065CF982F8091C00085FFFCCF94
:107FA0009093C60008958091C00087FFFCCF809118
:107FB000C00084FD01C0A8958091C6000895E0E648
:107FC000F0E098E1908380830895EDDF803219F02E
:107FD00088E0F5DFFFCF84E1DECF1F93182FE3DFCA
:107FE0001150E9F7F2DF1F91089580E0E8DFEE27F6
:047FF000FF270994CA
:027FFE00040479
:0400000300007E007B
:00000001FF