:100000000C9462000C948A000C948A000C948A0070
:100010000C948A000C948A000C948A000C948A0038
:100020000C948A000C948A000C948A000C948A0028
:100030000C948A000C948A000C948A000C948A0018
:100040000C94BA040C948A000C9488040C946204F6
:100050000C948A000C948A000C948A000C948A00F8
:100060000C948A000C948A000000000024002700F1
:100070002A0000000000250028002B0000000000DE
:1000800023002600290004040404040404040202DA
:100090000202020203030303030301020408102007
:1000A0004080010204081020010204081020000012
:1000B0000008000201000003040700000000000027
:1000C0000000040511241FBECFEFD8E0DEBFCDBF76
:1000D00011E0A0E0B1E0E0E0F0E102C005900D9297
:1000E000A638B107D9F722E0A6E8B1E001C01D9219
:1000F000AF3FB207E1F710E0C2E6D0E004C02197BD
:10010000FE010E94EC07C136D107C9F70E943705EE
:100110000C94FE070C940000CF92DF92EF92FF92B6
:100120000F931F93CF93DF936C017A018B01C0E093
:10013000D0E0CE15DF0589F0D8016D918D01D60193
:10014000ED91FC910190F081E02DC6010995892B7C
:1001500011F47E0102C02196ECCFC701DF91CF914F
:100160001F910F91FF90EF90DF90CF900895089529
:1001700080E090E00895FC01538D448D252F30E000
:10018000842F90E0821B930B541710F0CF960895A4
:1001900001970895FC01918D828D981761F0828DF1
:1001A000DF01A80FB11D5D968C91928D9F5F9F73AB
:1001B000928F90E008958FEF9FEF0895FC01918D4D
:1001C000828D981731F0828DE80FF11D858D90E0BA
:1001D00008958FEF9FEF0895FC01918D228D892F57
:1001E00090E0805C9F4F821B91098F73992708953F
:1001F00087E592E00E94EC0021E0892B09F420E0E1
:10020000822F0895FC01848DDF01A80FB11DA35A30
:10021000BF4F2C91848D90E001968F739927848F26
:10022000A689B7892C93A089B1898C9180648C931D
:10023000938D848D981306C00288F389E02D808108
:100240008F7D80830895EF92FF920F931F93CF933A
:10025000DF93EC0181E0888F9B8D8C8D981305C016
:10026000E889F989808185FD24C0F62E0B8D10E088
:100270000F5F1F4F0F731127E02E8C8DE8120CC0FB
:100280000FB607FCFACFE889F989808185FFF5CFA1
:10029000CE010E940201F1CF8B8DFE01E80FF11D0E
:1002A000E35AFF4FF0820B8FEA89FB8980818062DD
:1002B00007C0EE89FF896083E889F98980818064BD
:1002C000808381E090E0DF91CF911F910F91FF90AB
:1002D000EF900895CF93DF93EC01888D8823C9F0C8
:1002E000EA89FB89808185FD05C0A889B9898C913F
:1002F00086FD0FC00FB607FCF5CF808185FFF2CFDA
:10030000A889B9898C9185FFEDCFCE010E940201A9
:10031000E7CFDF91CF91089580E090E0892B29F01D
:100320000E94F80081110C9400000895833081F040
:1003300028F4813099F08230A1F008958730A9F037
:100340008830B9F08430D1F4809180008F7D03C073
:10035000809180008F7780938000089584B58F7797
:1003600002C084B58F7D84BD08958091B0008F77E1
:1003700003C08091B0008F7D8093B0000895CF932B
:10038000DF93282F30E0F901E255FF4F8491F90106
:10039000E656FF4FD491F901EA57FF4FC491CC23A1
:1003A00091F081110E949601EC2FF0E0EE0FFF1FFB
:1003B000E458FF4FA591B491EC91ED2381E090E0DA
:1003C00021F480E002C080E090E0DF91CF910895B9
:1003D0001F93CF93DF93282F30E0F901E255FF4FB1
:1003E0008491F901E656FF4FD491F901EA57FF4F86
:1003F000C491CC23C9F0162F81110E949601EC2FD5
:10040000F0E0EE0FFF1FEE58FF4FA591B4918FB7AC
:10041000F894111105C09C91ED2FE095E92302C0DD
:10042000EC91ED2BEC938FBFDF91CF911F9108954D
:10043000CF93DF9390E0FC01E656FF4F2491FC013F
:10044000EA57FF4F8491882361F190E0880F991F4C
:10045000FC01E859FF4FC591D491FC01EE58FF4FC4
:10046000A591B491611109C09FB7F8948881209536
:1004700082238883EC912E230BC0623061F49FB7F6
:10048000F8943881822F809583238883EC912E2BDA
:100490002C939FBF06C08FB7F894E8812E2B28833A
:1004A0008FBFDF91CF910895CF93DF93C4EFD2E058
:1004B00061E089810E94180260E089810E94E80160
:1004C00061E088810E94E80161E089810E94E80181
:1004D00060E08981DF91CF910C941802CF93DF9374
:1004E000C4EFD2E061E089810E94180260E0888157
:1004F0000E94E80161E089810E94E80161E0888151
:100500000E94E80160E088810E94E80160E0898142
:10051000DF91CF910C9418021F93CF93DF9360E08B
:100520008091F5020E941802C7E0D0E010E061E07F
:100530008091F4020E94E8018091F5020E94BF01BF
:100540009C0133270C2E01C0220F0A94EAF7122BCC
:1005500060E08091F4020E94E801219740F7812F2A
:10056000DF91CF911F91089560E08091F5020E9484
:10057000180261E08091F4020E94E8018091F50286
:100580000E94BF010197D1F360E08091F4020C94C6
:10059000E801009769F0FC0101900020E9F731972C
:1005A000AF01481B590BBC0187E592E00C948C000D
:1005B00080E090E00895CF93DF930E94C902EC01A0
:1005C00084E391E00E94C9028C0F9D1FDF91CF91BF
:1005D0000895EF92FF920F931F93CF93DF93E82E2E
:1005E000F62EC7E0D0E0042F10E098010C2E02C0D8
:1005F000359527950A94E2F7B901617077278E2D1A
:100600000E94E80161E08F2D0E94E80160E08F2DDB
:100610000E94E801219748F7DF91CF911F910F9138
:10062000FF90EF9008950F931F93CF93DF931F9246
:10063000CDB7DEB7482F04EF12E061E0F801818109
:1006400049830E94180261E0F80181810E94E8015B
:1006500061E0F80180810E94E80160E0F801818199
:100660000E94E80160E0F80180810E94E801498170
:10067000F801608181810F90DF91CF911F910F91DF
:100680000C94E9020F931F93CF93DF931F92CDB782
:10069000DEB7482F04EF12E061E0F8018181498361
:1006A0000E9418024981F801608181810F90DF91D9
:1006B000CF911F910F910C94E9020F931F93CF9349
:1006C000DF93CDB7DEB728970FB6F894DEBF0FBE25
:1006D000CDBF8091FE02882309F446C084EE80934A
:1006E000BC008091BC0087FFFCCF80ED8093BB00F5
:1006F00084EC8093BC008091BC0087FFFCCF1092FB
:10070000BB0084EC8093BC008091BC0087FFFCCFD1
:1007100084EE8093BC008091BC0087FFFCCF81ED0C
:100720008093BB0084EC8093BC008091BC0087FF69
:10073000FCCFE6EFF2E094EC9093BC008091BC001B
:1007400087FFFCCF8091BB00819372E0ED3FF707FC
:1007500099F784E88093BC008091BC0087FFFCCFB0
:1007600084E98093BC0042C080ED0E9413030E9484
:10077000B40280E00E9442030E94B40281ED0E9414
:1007800013030E94B40200E010E00E948C02F80102
:10079000EC50FD4F828306301105F9F061E0809145
:1007A000F5020E94180260E08091F4020E94E801C4
:1007B00060E08091F5020E94E80161E08091F4021E
:1007C0000E94E80160E08091F4020E94E80160E08C
:1007D0008091F5020E94180202C00E946E020F5F13
:1007E0001F4F0730110589F60E9454028091F602CE
:1007F000482F4695469546954E70942F990F990F20
:10080000490F8F70480F8091F702382F3695369533
:1008100036953E70932F990F990F390F8F70380FBF
:100820008091F802282F2F7087FF08C085FB992739
:1008300090F98CE0989F200D112409C08073869553
:1008400086958695982F990F990F890F280FE0911B
:10085000F9026091FA027091FB028091FC02562F1E
:100860005695569556955E70952F990F990F590F7D
:100870006F70560F672F6695669566956E70962F0A
:10088000990F990F690F7F70670F982F92959F703E
:100890008F707AE0979F800D112490E08053984FDD
:1008A0009F838E83782F8F819E2F28960FB6F89482
:1008B000DEBF0FBECDBFDF91CF911F910F91089585
:1008C0000E94F2071F920F920FB60F9211242F93DE
:1008D0003F934F935F936F937F938F939F93AF93C8
:1008E000BF93EF93FF9387E592E00E940201FF918F
:1008F000EF91BF91AF919F918F917F916F915F9198
:100900004F913F912F910F900FBE0F901F90189510
:100910001F920F920FB60F9211242F938F939F93D4
:10092000EF93FF93E0916702F09168028081E0917C
:100930006D02F0916E0282FD12C090818091700272
:100940008F5F8F7320917102821751F0E0917002D6
:10095000F0E0E95AFD4F958F8093700201C08081CD
:10096000FF91EF919F918F912F910F900FBE0F905C
:100970001F9018951F920F920FB60F9211242F936C
:100980003F938F939F93AF93BF9380918B019091EF
:100990008C01A0918D01B0918E0130918A0123E0EC
:1009A000230F2D3720F40196A11DB11D05C026E8A7
:1009B000230F0296A11DB11D20938A0180938B0104
:1009C00090938C01A0938D01B0938E01809186014C
:1009D00090918701A0918801B09189010196A11D94
:1009E000B11D8093860190938701A0938801B093F5
:1009F0008901BF91AF919F918F913F912F910F905E
:100A00000FBE0F901F901895E7E5F2E01382128257
:100A100088EE93E0A0E0B0E084839583A683B7835B
:100A200086E291E09183808385EC90E095878487CE
:100A300084EC90E09787868780EC90E0918B808BA8
:100A400081EC90E0938B828B82EC90E0958B848B91
:100A500086EC90E0978B868B118E128E138E148EFF
:100A6000E4EFF2E084E0818385E080830895CF9312
:100A7000DF93CDB7DEB7E1970FB6F894DEBF0FBEB8
:100A8000CDBF789484B5826084BD84B5816084BD17
:100A900085B5826085BD85B5816085BD80916E001C
:100AA000816080936E00109281008091810082604D
:100AB000809381008091810081608093810080918A
:100AC00080008160809380008091B1008460809379
:100AD000B1008091B00081608093B00080917A0075
:100AE000846080937A0080917A00826080937A009B
:100AF00080917A00816080937A0080917A0080688A
:100B000080937A001092C100E0916702F091680230
:100B100082E08083E0916302F09164021082E091B0
:100B20006502F091660280E1808310926F02E0918D
:100B30006B02F0916C0286E08083E0916902F09193
:100B40006A02808180618083E0916902F0916A028B
:100B5000808188608083E0916902F0916A028081DF
:100B600080688083E0916902F0916A0280818F7DC4
:100B7000808387E391E00E94DB028091F50282315D
:100B800001F58091F4028331E1F481E08093FE026B
:100B900061E082E10E94E80161E083E10E94E801F6
:100BA0008091B9008E7F8093B9008091B9008D7FCC
:100BB0008093B9008CE08093B80085E08093BC00FE
:100BC00007C01092FE0261E08091F4020E941802B8
:100BD0008091FE02882309F43FC084EE8093BC001C
:100BE0008091BC0087FFFCCF80ED8093BB0084EC3C
:100BF0008093BC008091BC0087FFFCCF1092BB00AB
:100C000084EC8093BC008091BC0087FFFCCF84EE15
:100C10008093BC008091BC0087FFFCCF81ED809366
:100C2000BB0084EC8093BC008091BC0087FFFCCFAC
:100C300084EC8093BC008091BC0087FFFCCF1091B6
:100C4000BB0084E88093BC008091BC0087FFFCCF90
:100C500084E98093BC0016C080ED0E9413030E94BB
:100C6000B40280E00E9442030E94B40281ED0E941F
:100C700013030E94B4020E948C02182F0E946E027D
:100C80000E9454021F778091FE02882339F184EE7E
:100C90008093BC008091BC0087FFFCCF80ED8093E7
:100CA000BB0084EC8093BC008091BC0087FFFCCF2C
:100CB0001092BB0084EC8093BC008091BC0087FF45
:100CC000FCCF1093BB0084EC8093BC008091BC00EF
:100CD00087FFFCCF84E98093BC0011C080ED0E94A7
:100CE00013030E94B40280E00E9442030E94B402F7
:100CF000812F0E9442030E94B4020E9454020E946B
:100D00005D032AA73BA74CA75DA76EA77FA788AB6B
:100D100099AB2FA538A940E050E019A28E010F5DD4
:100D20001F4F8AE0C82ED12CE12CF12CCA01B90149
:100D3000A70196010E94B607605DF80162938F01DA
:100D4000211531054105510589F7CF010E94C902DE
:100D500084E391E00E94C9020E945D03E62F29838B
:100D60003A834B835C836D837E838F8398872E8148
:100D70003F81C90168EE73E00E94A207605D609345
:100D8000000104E610E0B8010E94A20780E3860F8C
:100D900080930101C901B8010E94A2070AE010E096
:100DA000B8010E94A20780E3860F80930201C90167
:100DB000B8010E94A207805D809303018FE28093B7
:100DC0000401EA3010F480E305C08E2F6AE00E942F
:100DD0009607805D809305013AE08E2F632F0E9475
:100DE0009607905D909306018FE2809307012C8116
:100DF0002A3010F480E305C0822F632F0E949607EB
:100E0000805D809308011AE0822F612F0E9496076F
:100E1000905D9093090110920A0160E071E08FE803
:100E200091E00E94F7078FE891E00E94DB028EE0DC
:100E3000E4E1F1E0DE01119601900D928A95E1F76F
:100E40000E945D03E92F2AA33BA34CA35DA36EA3DD
:100E50007FA388A799A7CE0101968E0F911D8E0FB3
:100E6000911DFC013297608171818FE891E00E94B1
:100E7000F7078FE891E00E94DB020E945D0329835F
:100E80003A834B835C836D837E838F8398872A307C
:100E900010F480E305C0822F612F0E949607805DC9
:100EA00080930B013AE0822F632F0E949607905D9A
:100EB00090930C018AE380930D012A812A3010F46B
:100EC00080E305C0822F632F0E949607805D809388
:100ED0000E013AE0822F632F0E949607905D909357
:100EE0000F018AE3809310012B812A3010F480E3F4
:100EF00005C0822F632F0E949607805D80931101A9
:100F0000822F6AE00E949607905D909312011092E2
:100F100013016BE071E08FE891E00E94F7078FE822
:100F200091E00E94DB020E948C01FDCF991B79E0C9
:100F300004C0991F961708F0961B881F7A95C9F769
:100F40008095089597FB072E16F4009407D077FD3F
:100F500009D00E94D80707FC05D03EF490958195F2
:100F60009F4F0895709561957F4F0895A1E21A2EC5
:100F7000AA1BBB1BFD010DC0AA1FBB1FEE1FFF1F3D
:100F8000A217B307E407F50720F0A21BB30BE40B8D
:100F9000F50B661F771F881F991F1A9469F76095D4
:100FA0007095809590959B01AC01BD01CF0108958E
:100FB000AA1BBB1B51E107C0AA1FBB1FA617B7077F
:100FC00010F0A61BB70B881F991F5A95A9F780959B
:100FD0009095BC01CD010895EE0FFF1F0590F4918F
:100FE000E02D099481E090E0F8940C94FE07FB0159
:100FF000DC0101900D920020E1F70895F894FFCFF5
:1010000078787878787878787878007878787878D8
:10101000787878004D0154015C0166016F0176011A
:101020007F010000000023018C00BB006A01EC007E
:10103000CA00DE000D0A0053657269616C20706F92
:1010400072742069732072656164792E004D6F6E31
:101050006461790054756573646179005765646EE5
:1010600065736461790054687572736461790046D0
:1010700072696461790053617475726461790053B7
:06108000756E6461790049
:107E0000112484B714BE81FFF0D085E080938100F7
:107E100082E08093C00088E18093C10086E0809377
:107E2000C20080E18093C4008EE0C9D0259A86E02C
:107E300020E33CEF91E0309385002093840096BBD3
:107E4000B09BFECF1D9AA8958150A9F7CC24DD24C4
:107E500088248394B5E0AB2EA1E19A2EF3E0BF2EE7
:107E6000A2D0813461F49FD0082FAFD0023811F036
:107E7000013811F484E001C083E08DD089C08234E0
:107E800011F484E103C0853419F485E0A6D080C0E4
:107E9000853579F488D0E82EFF2485D0082F10E0AE
:107EA000102F00270E291F29000F111F8ED06801E7
:107EB0006FC0863521F484E090D080E0DECF843638
:107EC00009F040C070D06FD0082F6DD080E0C81688
:107ED00080E7D80618F4F601B7BEE895C0E0D1E017
:107EE00062D089930C17E1F7F0E0CF16F0E7DF06D8
:107EF00018F0F601B7BEE89568D007B600FCFDCFD4
:107F0000A601A0E0B1E02C9130E011968C91119780
:107F100090E0982F8827822B932B1296FA010C0160
:107F200087BEE89511244E5F5F4FF1E0A038BF0790
:107F300051F7F601A7BEE89507B600FCFDCF97BE46
:107F4000E89526C08437B1F42ED02DD0F82E2BD052
:107F50003CD0F601EF2C8F010F5F1F4F84911BD097
:107F6000EA94F801C1F70894C11CD11CFA94CF0C13
:107F7000D11C0EC0853739F428D08EE10CD085E9AC
:107F80000AD08FE07ACF813511F488E018D01DD067
:107F900080E101D065CF982F8091C00085FFFCCF94
:107FA0009093C60008958091C00087FFFCCF809118
:107FB000C00084FD01C0A8958091C6000895E0E648
:107FC000F0E098E1908380830895EDDF803219F02E
:107FD00088E0F5DFFFCF84E1DECF1F93182FE3DFCA
:107FE0001150E9F7F2DF1F91089580E0E8DFEE27F6
:047FF000FF270994CA
:027FFE00040479
:0400000300007E007B
:00000001FF