:100000000C9435000C945D000C945D000C945D0024
:100010000C945D000C945D000C945D000C945D00EC
:100020000C945D000C945D000C945D000C945D00DC
:100030000C945D000C945D000C945D000C945D00CC
:100040000C940A020C945D000C94D8010C94B2013B
:100050000C945D000C945D000C945D000C945D00AC
:100060000C945D000C945D00540211241FBECFEF70
:10007000D8E0DEBFCDBF23E0A6E8B1E001C01D920D
:10008000AD36B207E1F711E0A0E0B1E0E6EEFCE04A
:1000900002C005900D92A638B107D9F710E0C5E36C
:1000A000D0E004C02197FE010E94B803C433D107F9
:1000B000C9F70E9492020C9471060C940000CF9232
:1000C000DF92EF92FF920F931F93CF93DF936C0118
:1000D0007A018B01C0E0D0E0CE15DF0589F0D801B0
:1000E0006D918D01D601ED91FC910190F081E02D93
:1000F000C6010995892B11F47E0102C02196ECCF2F
:10010000C701DF91CF911F910F91FF90EF90DF908A
:10011000CF900895089580E090E00895FC01538DFC
:10012000448D252F30E0842F90E0821B930B5417D1
:1001300010F0CF96089501970895FC01918D828D5E
:10014000981761F0828DDF01A80FB11D5D968C912B
:10015000928D9F5F9F73928F90E008958FEF9FEF36
:100160000895FC01918D828D981731F0828DE80FF2
:10017000F11D858D90E008958FEF9FEF0895FC01AC
:10018000918D228D892F90E0805C9F4F821B910979
:100190008F73992708958BEB92E00E94BF0021E0B6
:1001A000892B09F420E0822F0895FC01848DDF0162
:1001B000A80FB11DA35ABF4F2C91848D90E00196DA
:1001C0008F739927848FA689B7892C93A089B189C9
:1001D0008C9180648C93938D848D981306C00288D3
:1001E000F389E02D80818F7D80830895EF92FF92C7
:1001F0000F931F93CF93DF93EC0181E0888F9B8D4A
:100200008C8D981305C0E889F989808185FD24C00B
:10021000F62E0B8D10E00F5F1F4F0F731127E02E8E
:100220008C8DE8120CC00FB607FCFACFE889F9896B
:10023000808185FFF5CFCE010E94D500F1CF8B8D57
:10024000FE01E80FF11DE35AFF4FF0820B8FEA89A0
:10025000FB898081806207C0EE89FF896083E8891D
:10026000F98980818064808381E090E0DF91CF9183
:100270001F910F91FF90EF900895CF93DF93EC01C2
:10028000888D8823C9F0EA89FB89808185FD05C0B6
:10029000A889B9898C9186FD0FC00FB607FCF5CFF0
:1002A000808185FFF2CFA889B9898C9185FFEDCF38
:1002B000CE010E94D500E7CFDF91CF91089580E075
:1002C00090E0892B29F00E94CB0081110C94000052
:1002D00008953FB7F89480918B0190918C01A09183
:1002E0008D01B0918E0126B5A89B05C02F3F19F056
:1002F0000196A11DB11D3FBFBA2FA92F982F8827A6
:10030000820F911DA11DB11DBC01CD0142E0660F00
:10031000771F881F991F4A95D1F70895CF93DF93D0
:10032000009779F0FC0101900020E9F73197AF01C7
:10033000481B590BBC018BEB92E00E945F00EC0163
:1003400002C0C0E0D0E042E050E062E171E08BEB3F
:1003500092E00E945F008C0F9D1FDF91CF91089566
:100360000E94BE031F920F920FB60F9211242F937B
:100370003F934F935F936F937F938F939F93AF932D
:10038000BF93EF93FF938BEB92E00E94D500FF9118
:10039000EF91BF91AF919F918F917F916F915F91FD
:1003A0004F913F912F910F900FBE0F901F90189576
:1003B0001F920F920FB60F9211242F938F939F933A
:1003C000EF93FF93E091CB02F091CC028081E0911A
:1003D000D102F091D20282FD12C090818091D402AC
:1003E0008F5F8F732091D502821751F0E091D40274
:1003F000F0E0E554FD4F958F8093D40201C08081D9
:10040000FF91EF919F918F912F910F900FBE0F90C1
:100410001F9018951F920F920FB60F9211242F93D1
:100420003F938F939F93AF93BF9380918701909158
:100430008801A0918901B0918A013091860123E061
:10044000230F2D3720F40196A11DB11D05C026E80C
:10045000230F0296A11DB11D209386018093870171
:1004600090938801A0938901B0938A0180918B01B8
:1004700090918C01A0918D01B0918E010196A11DEA
:10048000B11D80938B0190938C01A0938D01B0934B
:100490008E01BF91AF919F918F913F912F910F90BE
:1004A0000FBE0F901F901895EBEBF2E013821282B3
:1004B00088EE93E0A0E0B0E084839583A683B783C1
:1004C00084E091E09183808385EC90E09587848738
:1004D00084EC90E09787868780EC90E0918B808B0E
:1004E00081EC90E0938B828B82EC90E0958B848BF7
:1004F00086EC90E0978B868B118E128E138E148E65
:10050000E8E5F3E08AED97E0938B828B81E0818BC5
:10051000808B15861686178685E0848B8BE080831A
:1005200011820895789484B5826084BD84B5816019
:1005300084BD85B5826085BD85B5816085BD8091AE
:100540006E00816080936E00109281008091810026
:10055000826080938100809181008160809381001E
:10056000809180008160809380008091B1008460E0
:100570008093B1008091B00081608093B000809141
:100580007A00846080937A0080917A008260809300
:100590007A0080917A00816080937A0080917A005D
:1005A000806880937A001092C100E091CB02F091B4
:1005B000CC0282E08083E091C702F091C8021082F1
:1005C000E091C902F091CA0280E180831092D302C7
:1005D000E091CF02F091D00286E08083E091CD02DD
:1005E000F091CE02808180618083E091CD02F09114
:1005F000CE02808188608083E091CD02F091CE02AE
:10060000808180688083E091CD02F091CE0280816C
:100610008F7D808385E191E00E948E01CFE8D1E05B
:1006200098EC792E0BE211E027EC622EFE01272DCB
:1006300011922A95E9F7809162031F928F9380911E
:1006400061031F928F93809160031F928F9380911B
:100650005F031F928F9380915E031F928F9380910F
:100660005D031F928F9380915C031F928F93809103
:100670005B031F928F9380915A031F928F938091F7
:1006800058031F928F931F930F931F926F92DF93C4
:10069000CF930E94C3038FE891E00E948E010E94D5
:1006A00069014B015C01EDB7FEB77A960FB6F8947D
:1006B000FEBF0FBEEDBF88EEC82E83E0D82EE12C22
:1006C000F12C0E946901DC01CB0188199909AA0962
:1006D000BB09883E9340A105B10558F0F1E0CF1A5F
:1006E000D108E108F10828EE820E23E0921EA11C39
:1006F000B11CC114D104E104F10419F70E945F0197
:1007000095CF2F923F924F925F926F927F928F92EE
:100710009F92AF92BF92CF92DF92EF92FF920F9390
:100720001F93CF93DF93CDB7DEB7CA1BDB0B0FB69A
:10073000F894DEBF0FBECDBF09942A883988488857
:100740005F846E847D848C849B84AA84B984C884ED
:10075000DF80EE80FD800C811B81AA81B981CE0FE4
:10076000D11D0FB6F894DEBF0FBECDBFED010895C9
:10077000EE0FFF1F0590F491E02D099481E090E0C9
:10078000F8940C947106AEE0B0E0E9ECF3E00C9460
:100790008F030D891E898F89988D26E02C831A83FB
:1007A000098397FF02C080E090E801979E838D83C4
:1007B000AE01455E5F4F698D7A8DCE0101960E9434
:1007C000F3034D815E8157FD0AC02F8138854217A2
:1007D00053070CF49A01F801E20FF31F10822E96D2
:1007E000E4E00C94AB03ACE0B0E0E9EFF3E00C9490
:1007F00081037C016B018A01FC01178216828381CF
:1008000081FFBDC1CE0101964C01F7019381F60134
:1008100093FD859193FF81916F01882309F4ABC10A
:10082000853239F493FD859193FF81916F01853273
:1008300029F4B70190E00E94DB05E7CF512C312C61
:1008400020E02032A0F48B3269F030F4803259F08D
:10085000833269F420612CC08D3239F0803339F451
:10086000216026C02260246023C0286021C027FDAB
:1008700027C030ED380F3A3078F426FF06C0FAE092
:100880005F9E300D1124532E13C08AE0389E300D28
:100890001124332E20620CC08E3221F426FD6BC150
:1008A000206406C08C3611F4206802C0883641F4FA
:1008B000F60193FD859193FF81916F018111C1CF65
:1008C000982F9F7D9554933028F40C5F1F4FFFE3C2
:1008D000F9830DC0833631F0833771F0833509F029
:1008E0005BC022C0F801808189830E5F1F4F4424C2
:1008F0004394512C540115C03801F2E06F0E711C65
:10090000F801A080B18026FF03C0652D70E002C011
:100910006FEF7FEFC5012C870E94D0052C0183016A
:100920002C852F77222E17C03801F2E06F0E711C34
:10093000F801A080B18026FF03C0652D70E002C0E1
:100940006FEF7FEFC5012C870E94C5052C012C8518
:100950002068222E830123FC1BC0832D90E04816C3
:100960005906B0F4B70180E290E00E94DB053A94AA
:10097000F4CFF50127FC859127FE81915F01B70136
:1009800090E00E94DB0531103A94F1E04F1A5108D3
:100990004114510471F7E5C0843611F0893639F5F8
:1009A000F80127FF07C060817181828193810C5F0C
:1009B0001F4F08C060817181072E000C880B990BB6
:1009C0000E5F1F4F2F76722E97FF09C0909580956E
:1009D000709561957F4F8F4F9F4F2068722E2AE050
:1009E00030E0A4010E941306A82EA81844C0853741
:1009F00029F42F7EB22E2AE030E025C0F22FF97FB5
:100A0000BF2E8F36C1F018F4883579F0B4C0803726
:100A100019F0883721F0AFC02F2F2061B22EB4FE1D
:100A20000DC08B2D8460B82E09C024FF0AC09F2FF3
:100A30009660B92E06C028E030E005C020E130E025
:100A400002C020E132E0F801B7FE07C06081718189
:100A5000828193810C5F1F4F06C06081718180E0AD
:100A600090E00E5F1F4FA4010E941306A82EA81845
:100A7000FB2DFF777F2E76FE0BC0372D3E7FA51412
:100A800050F474FE0AC072FC08C0372D3E7E05C0CB
:100A9000BA2C372D03C0BA2C01C0B52C34FF0DC0C1
:100AA000FE01EA0DF11D8081803311F4397E09C009
:100AB00032FF06C0B394B39404C0832F867809F044
:100AC000B39433FD13C030FF06C05A2CB31418F48E
:100AD000530C5B18B32CB31468F4B70180E290E0B8
:100AE0003C870E94DB05B3943C85F5CFB31410F42A
:100AF0003B1801C0312C34FF12C0B70180E390E0F5
:100B00003C870E94DB053C8532FF17C031FD03C0E6
:100B100088E790E002C088E590E0B7010CC0832F21
:100B2000867859F031FF02C08BE201C080E237FDC8
:100B30008DE2B70190E00E94DB05A51438F4B701FF
:100B400080E390E00E94DB055A94F7CFAA94F40169
:100B5000EA0DF11D8081B70190E00E94DB05A11034
:100B6000F5CF332009F451CEB70180E290E00E9426
:100B7000DB053A94F6CFF7018681978102C08FEFAB
:100B80009FEF2C96E2E10C949D03FC0105906150CF
:100B900070400110D8F7809590958E0F9F1F089593
:100BA000FC016150704001900110D8F7809590953C
:100BB0008E0F9F1F08950F931F93CF93DF93FB0119
:100BC000238121FD03C08FEF9FEF28C022FF16C0B5
:100BD00046815781248135814217530744F4A0810F
:100BE000B1819D012F5F3F4F318320838C932681FC
:100BF00037812F5F3F4F3783268310C0EB01092FCA
:100C0000182F0084F185E02D0995892BE1F68E815E
:100C10009F8101969F838E83812F902FDF91CF91AB
:100C20001F910F910895FA01AA27283051F1203120
:100C300081F1E8946F936E7F6E5F7F4F8F4F9F4F70
:100C4000AF4FB1E03ED0B4E03CD0670F781F891FB2
:100C50009A1FA11D680F791F8A1F911DA11D6A0F80
:100C6000711D811D911DA11D20D009F468943F9133
:100C70002AE0269F11243019305D3193DEF6CF0132
:100C80000895462F4770405D4193B3E00FD0C9F7F8
:100C9000F6CF462F4F70405D4A3318F0495D31FD65
:100CA0004052419302D0A9F7EACFB4E0A6959795B8
:100CB000879577956795BA95C9F70097610571058E
:100CC00008959B01AC010A2E0694579547953795D8
:100CD0002795BA95C9F7620F731F841F951FA01D32
:060CE0000895F894FFCF17
:100CE60000000000F6005F008E003D01BF009D0081
:100CF600B1000D0A0053657269616C20706F7274E1
:100D06002069732072656164792E0049443A25642E
:100D16002C2050696E3A2564205374617274204405
:100D26006179733A25784820537461727454696DF9
:100D3600653A253032643A253032643A25303264D9
:100D460020456E64446179733A2578482C20456EB7
:100D56006454696D653A253032643A253032643A16
:060D66002530326400009C
:00000001FF
