:1000000014C1000040C100003EC100003CC100001E
:100010003AC1000038C1000036C1000034C1000000
:1000200032C1000030C100002EC100002CC1000010
:100030002AC1000028C1000026C1000024C1000020
:1000400022C1000020C100001EC100001CC1000030
:100050001AC1000018C1000016C10000FFC3000053
:1000600012C10000C5C300009AC300000CC100000B
:100070000AC1000008C1000006C1000004C1000060
:1000800002C1000000C10000FEC00000FCC0000072
:10009000FAC00000F8C00000F6C00000F4C0000084
:1000A000F2C00000F0C00000EEC00000ECC0000094
:1000B000EAC00000E8C00000E6C00000E4C00000A4
:1000C000E2C00000E0C00000DEC00000DCC00000B4
:1000D000DAC00000D8C00000D6C00000D4C00000C4
:1000E000D2C000008F029202810285028B02C902F7
:1000F00096029A02A002A402A802AE02B202B602BE
:10010000C902BC02C002C40200002200250028006F
:100110002B002E003100340002010000050108010F
:100120000B0100002100240027002A002D003000D0
:10013000330001010000040107010A010000200052
:100140002300260029002C002F00320000010000AF
:10015000030106010901050505050705080808084A
:10016000020202020A0A080804040404010101014F
:10017000010101010303030303030303040707074A
:100180000C0C0C0C0C0C0C0C0202020206060606EF
:10019000060606060B0B0B0B0B0B0B0B01021020BC
:1001A00020080810204010204080020102010804AD
:1001B0000201010204081020408080402010080441
:1001C000020180040201804020100804020108049A
:1001D00002010102040810204080010204081020DE
:1001E000408000000A0B02090C0D0E0807030401F1
:1001F00000000000000000000000000000000000FF
:1002000000000000000000000000000000001211CB
:1002100010000000000000000000000000000000CE
:100220000000000000000000780411241FBECFEF82
:10023000D1E2DEBFCDBF00E00CBF23E0A2E7B2E019
:1002400001C01D92A13AB207E1F712E0A0E0B2E0CE
:10025000E0EFF1E100E00BBF02C007900D92A23782
:10026000B107D9F711E0C5E1D1E000E005C0219761
:100270000109802FFE01AED7C431D10780E0080705
:10028000B1F7F9D3B3C7BCCECF92DF92EF92FF9212
:100290000F931F93CF93DF936C017A018B01C0E022
:1002A000D0E0CE15DF0589F0D8016D918D01D60122
:1002B000ED91FC910190F081E02DC6011995892BFB
:1002C00011F47E0102C02196ECCFC701DF91CF91DE
:1002D0001F910F91FF90EF90DF90CF900895FC0158
:1002E000538D448D252F30E0842F90E0821B930B9B
:1002F000541710F0CF96089501970895FC01918D41
:10030000828D981761F0828DDF01A80FB11D5D9677
:100310008C91928D9F5F9F73928F90E008958FEFE5
:100320009FEF0895FC01918D828D981731F0828D99
:10033000E80FF11D858D90E008958FEF9FEF0895F0
:10034000FC01918D228D892F90E0805C9F4F821B54
:1003500091098F73992708958BE792E0F1DF21E0EF
:10036000892B09F420E0822F0895FC01848DDF01A0
:10037000A80FB11DA35ABF4F2C91848D90E0019618
:100380008F739927848FA689B7892C93A089B18907
:100390008C9180648C93938D848D981306C0028811
:1003A000F389E02D80818F7D80830895EF92FF9205
:1003B0000F931F93CF93DF93EC0181E0888F9B8D88
:1003C0008C8D981305C0E889F989808185FD23C04B
:1003D000F62E0B8D10E00F5F1F4F0F731127E02ECD
:1003E0008C8DE8120BC00FB607FCFACFE889F989AB
:1003F000808185FFF5CFCE01B8DFF2CF8B8DFE0176
:10040000E80FF11DE35AFF4FF0820B8FEA89FB8959
:100410008081806207C0EE89FF896083E889F9895D
:1004200080818064808381E090E0DF91CF911F9193
:100430000F91FF90EF900895CF93DF93EC01888D9B
:100440008823C1F0EA89FB89808185FD05C0A889E0
:10045000B9898C9186FD0EC00FB607FCF5CF80815F
:1004600085FFF2CFA889B9898C9185FFEDCFCE01A8
:100470007CDFE8CFDF91CF91089580E090E0892B79
:1004800019F06ADF811125C080E090E0892B41F0EE
:1004900080E090E0892B21F00E94000081111CC0B7
:1004A00080E090E0892B41F080E090E0892B21F002
:1004B0000E940000811113C080E090E0892BA1F020
:1004C00080E090E0892B81F00E94000081110AC039
:1004D00008950E940000D8CF0E940000E1CF0E9442
:1004E0000000EACF0C940000089590E0FC013197E1
:1004F000E231F10508F04DC08827EE58FF4F8F4FCD
:1005000069C6809180008F7703C0809180008F7DC5
:1005100080938000089580918000877FF9CF84B513
:100520008F7702C084B58F7D84BD08958091B0001F
:100530008F7703C08091B0008F7D8093B0000895C5
:10054000809190008F7707C0809190008F7D03C0CD
:1005500080919000877F8093900008958091A00003
:100560008F7707C08091A0008F7D03C08091A0008D
:10057000877F8093A0000895809120018F7707C026
:10058000809120018F7D03C080912001877F80931F
:10059000200108951F93CF93DF93282F30E0F901B6
:1005A000EE51FE4F8491F901E456FE4FD491F901CA
:1005B000EA5AFE4FC491CC23C1F0162F811195DF6A
:1005C000EC2FF0E0EE0FFF1FE85FFE4FA591B49116
:1005D0008FB7F894111105C09C91ED2FE095E92398
:1005E00002C0EC91ED2BEC938FBFDF91CF911F9167
:1005F00008952FB7F89460917702709178028091F6
:10060000790290917A022FBF0895089580E090E0DA
:100610000895CF93DF93FC0120E030E04081461342
:100620000CC043E0220F331F4A95E1F7EC01C20FE3
:10063000D31F8A818823F1F007C02F5F3F4F389680
:100640002630310559F716C01F828B81833090F018
:10065000853048F08D50823068F461E089819ADFFE
:100660001D821C8207C060E0898194DF81E090E0F8
:100670009D838C83DF91CF910895CF93DF93FC010D
:1006800020E030E0408146130CC043E0220F331FCE
:100690004A95E1F7EC01C20FD31F8A818823F9F054
:1006A00007C02F5F3F4F38962630310559F717C0E6
:1006B00081E08F838B81833090F0853058F08D50AE
:1006C000823068F460E0898165DF81E090E09D839D
:1006D0008C8305C061E089815DDF1D821C82DF9112
:1006E000CF910895009761F0FC0101900020E9F797
:1006F0003197AF01481B590BBC018BE792E0C4CD89
:1007000080E090E00895CF93DF93ECDFEC0182E18D
:1007100092E0E8DF8C0F9D1FDF91CF9108958F92BB
:100720009F92AF92BF920F931F93CF93DF93CDB75A
:10073000DEB7A1970FB6F894DEBF0FBECDBF19A2EA
:10074000423008F44AE08E010F5D1F4F842E912C39
:10075000A12CB12CA50194011BD5E62FB901CA012A
:1007600001501109EA3014F4E05D01C0E95CD801E0
:10077000EC93232B242B252B69F7C801B3DFA1961B
:100780000FB6F894DEBF0FBECDBFDF91CF911F91A2
:100790000F91BF90AF909F908F90089523D51F9297
:1007A0000F920FB60F9211240BB60F922F933F9317
:1007B0004F935F936F937F938F939F93AF93BF9369
:1007C000EF93FF938BE792E0D0DDFF91EF91BF9124
:1007D000AF919F918F917F916F915F914F913F91D9
:1007E0002F910F900BBE0F900FBE0F901F9018957A
:1007F0001F920F920FB60F9211240BB60F922F93E8
:100800008F939F93EF93FF93E0918B02F0918C0273
:100810008081E0919102F091920282FD12C090815C
:10082000809194028F5F8F7320919502821751F00F
:10083000E0919402F0E0E558FD4F958F809394028B
:1008400001C08081FF91EF919F918F912F910F9027
:100850000BBE0F900FBE0F901F9018951F920F9216
:100860000FB60F9211242F933F938F939F93AF93C3
:10087000BF938091770290917802A0917902B09114
:100880007A023091760223E0230F2D3720F401966F
:10089000A11DB11D05C026E8230F0296A11DB11DA3
:1008A000209376028093770290937802A093790246
:1008B000B0937A028091720290917302A0917402B7
:1008C000B09175020196A11DB11D809372029093A3
:1008D0007302A0937402B0937502BF91AF919F9180
:1008E0008F913F912F910F900FBE0F901F901895F1
:1008F0008F929F92AF92BF92EF92FF920F931F93AE
:10090000CF93DF9310927E0210927D0288EE93E0E7
:10091000A0E0B0E080937F0290938002A0938102D8
:10092000B093820284E092E090937C0280937B02F9
:1009300085EC90E0909388028093870284EC90E0AD
:1009400090938A028093890280EC90E090938C02CD
:1009500080938B0281EC90E090938E0280938D02C5
:1009600082EC90E09093900280938F0286EC90E06E
:1009700090939202809391021092940210929502A9
:1009800010929602109297021092710381E0809368
:10099000790382E08093810383E08093890384E07C
:1009A0008093910385E080939903C8E1D3E006E248
:1009B00013E0EE24E394F12C1CDE4B015C0122E0F9
:1009C000821A9108A108B108898E9A8EAB8EBC8ECE
:1009D0004B015C01E1E08E1A9108A108B1088D8EEF
:1009E0009E8EAF8EB8A2F801638B748B858B968B2D
:1009F000F88EEF8A3A971082319710821D821E82FC
:100A00001F82188619861A861B861C86F80110829A
:100A1000319710821F86188A198A1A8A1B8A1C8AA3
:100A20001D8A1E8AAB96055D1F4FF3E0CE36DF07A9
:100A300019F681E793E090936F0380936E03109211
:100A4000180310921A03909342038093410321E00C
:100A5000209343031092450390936D0380936C039E
:100A6000DF91CF911F910F91FF90EF90BF90AF90CA
:100A70009F908F900895CF93DF93CDB7DEB76797A0
:100A80000FB6F894DEBF0FBECDBF789484B58260F8
:100A900084BD84B5816084BD85B5826085BD85B522
:100AA000816085BD80916E00816080936E001092A0
:100AB000810080918100826080938100809181001B
:100AC00081608093810080918000816080938000AC
:100AD0008091B10084608093B1008091B00081600A
:100AE0008093B0008091910082608093910080910A
:100AF000910081608093910080919000816080934B
:100B000090008091A10082608093A1008091A1005B
:100B100081608093A1008091A00081608093A000FB
:100B20008091210182608093210180912101816067
:100B30008093210180912001816080932001809128
:100B40007A00846080937A0080917A00826080933A
:100B50007A0080917A00816080937A0080917A0097
:100B6000806880937A001092C100E0918B02F0912E
:100B70008C0212E01083E0918702F09188021082CB
:100B8000E0918902F0918A0280E1808310929302C1
:100B9000E0918F02F091900286E08083E0918D02D7
:100BA000F0918E02808180618083E0918D02F091CE
:100BB0008E02808188608083E0918D02F0918E02A8
:100BC000808180688083E0918D02F0918E02808127
:100BD0008F7D808385E192E096DD1092710386E13E
:100BE0008093720381E0809373039EE0909374037B
:100BF0008093790328E120937A0380937B03909379
:100C00007C03109381039AE1909382038093830382
:100C100094E09093840323E0209389032CE12093B4
:100C20008A0380938B0390938C0302E713E0E12CFB
:100C3000F12CCC24C394D12CD701AF58BC4F1296C1
:100C40008C911297882309F439C0F801808190E0D3
:100C5000FC01E456FE4F2491FC01EA5AFE4F8491B8
:100C60008823A1F090E0880F991FFC01EE5DFE4FF4
:100C700045915491FC01E85FFE4F859194918FB7A7
:100C8000F894FA019081292B20838FBF13968C91C1
:100C90008130A0F0853058F08B50843078F461E0DA
:100CA000D8018C9177DCF8011482138207C060E0D0
:100CB000D8018C916FDCF801D482C382F8E0EF0E8A
:100CC000F11C085F1F4F80E3E816F10409F0B4CF70
:100CD00078E1C72E73E0D72E06E213E0E3EFEE2EA5
:100CE000F12C570197E1A91AB108DE0111963D01D7
:100CF000C5012DD2F30181933F01FFEFAF1ABF0A67
:100D0000AE14BF04A9F78981D6018C938A81F801BA
:100D10003D9780839B81319690839C81319690830F
:100D20009D81319690834E815F8168857985F6013A
:100D300045835683678370879E85F801319790833A
:100D40009F85D8019C93488959896A897B89F601D6
:100D50004787508B618B728B90E0FC01E456FE4F0D
:100D60002491FC01EA5AFE4F84918823C9F090E057
:100D7000880F991FFC01EE5DFE4FA591B491FC0117
:100D8000E85FFE4F459154919FB7F8943C91822FB4
:100D9000809583238C93DA01EC912E2B2C939FBFAB
:100DA000BBE2CB0ED11C055D1F4FE7E1EE0EF11C3F
:100DB000F1E2EF16F1E0FF0609F093CF0FE213E046
:100DC0005CE1E52E53E0F52EF801759780818111E5
:100DD0000BC0055D1F4F8BE2E80EF11C93E0053858
:100DE000190791F74ADBEACFF8017697208130E0C6
:100DF000F901EE51FE4F8491F901E456FE4FC49083
:100E0000F901EA5AFE4FD490DD2099F081116DDB93
:100E1000ED2DF0E0EE0FFF1FE45CFE4FA591B491C5
:100E2000EC91EC2191E080E009F490E0C92ED82EFD
:100E300002C0C12CD12CD8018D919C91C816D90625
:100E400059F4D7DBF8016287738784879587CD28AB
:100E5000D1F481E090E03BC0CCDBD8011A964D90F4
:100E60005D906D907C901D97DC01CB0184199509F4
:100E7000A609B7094597A105B10540F4F80180819D
:100E80009181892B31F383E090E021C08BE292E0E5
:100E90003ADCF801D182C082ACDBD8011A966D939E
:100EA0007D938D939C931D97CD2841F4F801628327
:100EB00073838483958380E090E009C0D8011696FF
:100EC0006D937D938D939C93199782E090E082308F
:100ED000910509F47EC08330910509F4B7C00197EC
:100EE00009F43DC082E492E00EDC83DBD8011E965B
:100EF0006D937D938D939C9351976701A12CB12C99
:100F0000F6018081882301F121813281438154815E
:100F1000A8EEB3E024D1D8011E964D905D906D905F
:100F20007C905197DC01CB01840D951DA61DB71D4A
:100F300085839683A783B08731976081D8015296C5
:100F40008D919C91539799DBBAE0CB0ED11CAA945A
:100F5000AB2809F43ECFAA24A394B12CD1CF49DB0E
:100F6000D8011E966D937D938D939C935197670145
:100F7000A12CB12CF6018081882301F121813281DD
:100F800043815481A8EEB3E0EAD0D8011E964D907B
:100F90005D906D907C905197DC01CB01840D951D87
:100FA000A61DB71D85839683A783B087319760817F
:100FB000D80152968D919C9153975FDBBAE0CB0E8E
:100FC000D11CAA94AB2809F404CFAA24A394B12C71
:100FD000D1CF8CE492E097DB0CDBD8011E966D93A9
:100FE0007D938D939C9351976701A12CB12CF601B1
:100FF0008081882301F12181328143815481A8EECF
:10100000B3E0ADD0D8011E964D905D906D907C9070
:101010005197DC01CB01840D951DA61DB71D85835D
:101020009683A783B08731976081D80152968D91BE
:101030009C91539722DBBAE0CB0ED11CAA94AB282B
:1010400009F4C7CEAA24A394B12CD1CFD2DA2B01B4
:101050003C016801F4E1CF1AD108A12CB12CD601D2
:1010600011968C911197882309F466C016968D917C
:101070009D910D90BC91A02D0097A105B10511F493
:10108000F60153C0F8014685578560897189481774
:1010900059076A077B0730F544165506660677063A
:1010A00040F0481659066A067B0618F4D6016C9182
:1010B00026C083E592E016DBF601608170E080E0F7
:1010C00090E04AE02CDB82E192E00CDBD601169640
:1010D0001D921D921D921C9219976C91F8018289A4
:1010E000938929C0441655066606770628F44816E3
:1010F00059066A067B0638F4D6016C91F80182899C
:101100009389BBDA19C083E592E0ECDAD6016C91E1
:1011100070E080E090E04AE002DB82E192E0E2DA17
:10112000F60116821782108611866081D8015296C8
:101130008D919C9153976DDABAE0CB0ED11CAA9495
:10114000AB2809F446CEAA24A394B12C88CFF999F0
:10115000FECF92BD81BDF89A992780B5089509D038
:10116000A59F900DB49F900DA49F800D911D1124FB
:101170000895A29FB001B39FC001A39F700D811D70
:101180001124911DB29F700D811D1124911D089590
:10119000A1E21A2EAA1BBB1BFD010DC0AA1FBB1F7B
:1011A000EE1FFF1FA217B307E407F50720F0A21BED
:1011B000B30BE40BF50B661F771F881F991F1A945A
:1011C00069F760957095809590959B01AC01BD0184
:1011D000CF010895EE0FFF1F881F8BBF0790F69178
:1011E000E02D199481E090E0F89400C0F894FFCFCE
:1011F00000000000D60144016F011C02A0017E0125
:1012000092010D0A0053657269616C20706F7274EF
:101210002069732072656164792E00627574746F41
:101220006E20737461747573206368616E676564A2
:101230002E007075736820646F776E00706F702079
:10124000757000436C65616E20696E7374616E74B5
:101250002074696D657220666F722072656C6179A9
:0212600020006C
:00000001FF
