:1000000028C1000057C1000055C1000053C10000C5
:1000100051C100004FC100004DC100004BC10000A4
:1000200049C100000C9408100C9408100C9408109E
:1000300041C100003FC100003DC100003BC10000C4
:1000400039C1000037C1000035C1000033C10000D4
:1000500031C100002FC100002DC100000C94A00D83
:1000600029C100000C94CB0C0C94A20C23C10000FD
:1000700021C100001FC100001DC100001BC1000004
:1000800019C1000017C1000015C1000013C1000014
:1000900011C100000FC100000DC100000BC1000024
:1000A00009C1000007C1000005C1000003C1000034
:1000B00001C10000FFC00000FDC00000FBC0000047
:1000C000F9C00000F7C00000F5C00000F3C0000058
:1000D000F1C00000EFC00000EDC00000EBC0000068
:1000E000E9C00000DD1C0B1DA222A222A222A22236
:1000F000A222A222A222A222BD1DED1D081EA61E22
:10010000B81EA222A222A222D11EBC0BBF0BAE0B94
:10011000B20BB80BF60BC30BC70BCD0BD10BD50B2A
:10012000DB0BDF0BE30BF60BE90BED0BF10B000028
:100130002100240027002A002D0030003300010197
:100140000000040107010A0100000A0B02090C0D5E
:100150000E0807030401000000000000000000007A
:10016000000000000000000000000000000000008F
:10017000000000001211100000000000000000004C
:10018000000000000000000000000000000000006F
:100190002200250028002B002E003100340002012F
:1001A0000000050108010B010000200023002600CB
:1001B00029002C002F00320000010000030106017D
:1001C00009010505050507050808080802020202DD
:1001D0000A0A0808040404040101010101010101E3
:1001E0000303030303030303040707070C0C0C0CAE
:1001F0000C0C0C0C02020202060606060606060697
:100200000B0B0B0B0B0B0B0B010210202008081023
:100210002040102040800201020108040201010276
:10022000040810204080804020100804020180044F
:1002300002018040201008040201080402010102AA
:100240000408102040800102040810204080DD2BAB
:10025000B92B11241FBECFEFD1E2DEBFCDBF00E02E
:100260000CBF29E0AEE3B6E001C01D92AC35B20789
:10027000E1F716E0A0E0B2E0E2EFF6E600E00BBF47
:1002800002C007900D92AE33B107D9F711E0C8E272
:10029000D1E000E006C021970109802FFE010E94F5
:1002A000262EC732D10780E00807A9F70E94401424
:1002B0000C946833A5CE20E030E0FC014081461765
:1002C00049F02F5F3F4F089626303105B1F78FEF89
:1002D0009FEF0895C9010895CF93DF93EC01EBDF01
:1002E0008F3F2FEF920771F09C0183E0220F331FA5
:1002F0008A95E1F7FE01E20FF31F8281882311F056
:1003000081E08783DF91CF910895CF93DF93EC0154
:1003100061E089810E94290D1D821C82DF91CF91AD
:100320000895CF93DF93EC0160E089810E94290D4D
:1003300081E090E09D838C83DF91CF910895CF93EE
:10034000DF93EC01B8DF8F3F2FEF9207C9F19C01DB
:1003500083E0220F331F8A95E1F7C20FD31F8A81F2
:10036000882371F182E995E00E948611688170E02E
:1003700080E090E04AE00E94351183EC94E00E9416
:10038000861189810E9475111F828B81853049F009
:1003900018F4833069F014C08D3071F08F3029F07B
:1003A0000FC08E81882321F007C08E81882321F021
:1003B000CE01DF91CF91B5CFCE01DF91CF91A5CF07
:1003C000DF91CF910895EF92FF920F931F93CF93F8
:1003D000DF937C0170DF8F3F2FEF920709F446C057
:1003E0008C0183E0000F111F8A95E1F7E701C00F30
:1003F000D11F8A818823D1F18CEA95E00E94861171
:10040000688170E080E090E04AE00E94351183EC62
:1004100094E00E94861189810E94751181E08F838A
:100420009B81953099F028F4913049F0933071F028
:100430001DC09D3099F09F3089F09B30B9F4F701D1
:10044000E00FF11F84819581892B41F0CE01DF916E
:10045000CF911F910F91FF90EF9057CFCE01DF9179
:10046000CF911F910F91FF90EF905BCFDF91CF91D4
:100470001F910F91FF90EF900895CF92DF92EF922E
:10048000FF920F931F93CF93DF93CDB7DEB76197A2
:100490000FB6F894DEBF0FBECDBFFB012081273021
:1004A00008F040C0298383818A8382818B83818184
:1004B0008C8384818D8385818E8386819781A085BD
:1004C000B1858F839887A987BA8787858B8780892D
:1004D0008C8781899289A389B4898D879E87AF870C
:1004E000B88BF0E12F9F9001112479018CEDE80E7B
:1004F000F11CFE0131966F01890104511F4FF60175
:1005000061916F01C701698B0E94B62D69896817D7
:1005100019F0C7010E94BE2DFFEFEF1AFF0AE01687
:10052000F10669F780E061960FB6F894DEBF0FBE62
:10053000CDBFDF91CF911F910F91FF90EF90DF9092
:10054000CF900895CF92DF92EF92FF920F931F9377
:10055000CF93DF93CDB7DEB72D970FB6F894DEBFFC
:100560000FBECDBFFB0120812B30C8F581818A836E
:1005700082818B8383818C8384818D8385818E832B
:1005800086818F83808588878185898782858A8710
:1005900083858B8784858C87FCE02F9F90011124B5
:1005A000790184E6E80EF11CFE0131966F018901A4
:1005B00000591F4FF60161916F01C7016D870E94BD
:1005C000B62D6D85681719F0C7010E94BE2DFFEF8B
:1005D000EF1AFF0AE016F10669F780E001C081E03A
:1005E0002D960FB6F894DEBF0FBECDBFDF91CF9131
:1005F0001F910F91FF90EF90DF90CF900895CF92D1
:10060000DF92EF92FF920F931F93CF93DF93CDB7BB
:10061000DEB7C554D1090FB6F894DEBF0FBECDBF0B
:100620007C018B0164EC73E0CE01805C9F4F0E94E3
:100630002C14F80181818C3009F467C1853109F4EB
:10064000DFC3813009F0E1C564EC73E0C7010E94AB
:100650002C144AE0F8016081CE0101960E94CC136F
:1006600065EF75E0CE0188960E942C14BE01685D8E
:100670007F4FCE0182960E94F813BE016F5F7F4FBD
:10068000CE0182960E947A12BC01C7010E945C13BF
:10069000CE0182960E947113CE0188960E9471133A
:1006A000CE0101960E9471134AE0F8016181CE01EA
:1006B00001960E94CC1368EC75E0CE0188960E94EA
:1006C0002C14BE01685D7F4FCE0182960E94F81304
:1006D000BE016F5F7F4FCE0182960E947A12BC01ED
:1006E000C7010E942213CE0182960E947113CE018F
:1006F00088960E947113CE0101960E9471134AE000
:10070000F8016281CE0101960E94CC136EEC75E077
:10071000CE0188960E942C14BE01685D7F4FCE01E9
:1007200082960E94F813BE016F5F7F4FCE018296C2
:100730000E947A12BC01C7010E942213CE01829648
:100740000E947113CE0188960E947113CE0101960A
:100750000E947113F80182818111D1C04AE066893B
:10076000CE0101960E94CC134AE0F8016789CE01C0
:1007700082960E94CC13F801608D718D4AE0CE0103
:1007800088960E94761364ED75E0CE01C4960E94AF
:100790002C14BE016C5C7F4FCE018E960E94F81324
:1007A000BE01685D7F4FCE018E960E947A1269E786
:1007B00073E00E946312BE016E5D7F4F0E947A1249
:1007C00069E773E00E946312BE016F5F7F4F0E9472
:1007D0007A12BC01C7010E942213CE018E960E949C
:1007E0007113CE01C4960E947113CE0188960E94A7
:1007F0007113CE0182960E947113CE0101960E9460
:1008000071134AE0F801628DCE0101960E94CC136B
:100810006BED75E0CE0188960E942C14BE01685DD8
:100820007F4FCE0182960E94F813BE016F5F7F4F0B
:10083000CE0182960E947A12BC01C7010E94221347
:10084000CE0182960E947113CE0188960E94711388
:10085000CE0101960E9471134AE0F8016589CE012C
:1008600001960E94CC134AE0F8016489CE01829679
:100870000E94CC134AE0F8016389CE0188960E9459
:10088000CC1361EE75E0CE01C4960E942C14BE011B
:100890006C5C7F4FCE018E960E94F813BE01685D9E
:1008A0007F4FCE018E960E947A1262E074E00E9421
:1008B0006312BE016E5D7F4F0E947A1262E074E0A7
:1008C0000E946312BE016F5F7F4F0E947A12BC01CB
:1008D000C7010E942213CE018E960E947113CE0191
:1008E000C4960E947113CE0188960E947113CE01A6
:1008F00082960E947113CE0101960E94711364ECDE
:1009000072E0C7010E9414132DC564EC73E0C701A7
:100910000E942C144AE0F8016081CE0101960E94E9
:10092000CC1365EF75E0CE0188960E942C14BE01B1
:10093000685D7F4FCE0182960E94F813BE016F5F03
:100940007F4FCE0182960E947A12BC01C7010E949D
:100950005C13CE0182960E947113CE0188960E948C
:100960007113CE0101960E9471134AE0F801618172
:10097000CE0101960E94CC1368EC75E0CE018896FA
:100980000E942C14BE01685D7F4FCE0182960E94AA
:10099000F813BE016F5F7F4FCE0182960E947A12DC
:1009A000BC01C7010E942213CE0182960E947113DE
:1009B000CE0188960E947113CE0101960E94711398
:1009C0004AE0F8016281CE0101960E94CC136EECE0
:1009D00075E0CE0188960E942C14BE01685D7F4FA1
:1009E000CE0182960E94F813BE016F5F7F4FCE0149
:1009F00082960E947A12BC01C7010E942213CE0186
:100A000082960E947113CE0188960E947113CE01C6
:100A100001960E947113F8018281811170CF64ECFC
:100A200073E0CE01CA960E942C144AE0F80163815B
:100A3000CE0101960E94CC1368EE75E0CE01889637
:100A40000E942C14BE01685D7F4FCE0182960E94E9
:100A5000F813BE016F5F7F4FCE0182960E947A121B
:100A6000BC01CE01CA960E945C13CE0182960E9400
:100A70007113CE0188960E947113CE0101960E94D7
:100A800071134AE0F8016481CE0101960E94CC13F3
:100A90006DEE75E0CE0188960E942C14BE01685D53
:100AA0007F4FCE0182960E94F813BE016F5F7F4F89
:100AB000CE0182960E947A12BC01CE01CA960E9493
:100AC0002213CE0182960E947113CE0188960E9455
:100AD0007113CE0101960E947113F801848188235D
:100AE00009F46BC14AE06581CE0101960E94CC13E6
:100AF00063EF75E0CE0188960E942C14BE01685DFC
:100B00007F4FCE0182960E94F813BE016F5F7F4F28
:100B1000CE0182960E947A12BC01CE01CA960E9432
:100B20002213CE0182960E947113CE0188960E94F4
:100B30007113CE0101960E9471134AE0F80166819B
:100B4000CE0101960E94CC1369EF75E0CE01889624
:100B50000E942C14BE01685D7F4FCE0182960E94D8
:100B6000F813BE016F5F7F4FCE0182960E947A120A
:100B7000BC01CE01CA960E942213CE0182960E9429
:100B80007113CE0188960E947113CE0101960E94C6
:100B900071134AE0F8016185CE0101960E94CC13E1
:100BA0004AE0F8016085CE0182960E94CC134AE0AB
:100BB000F8016781CE0188960E94CC1361E076E04F
:100BC000CE01C4960E942C14BE016C5C7F4FCE01F6
:100BD0008E960E94F813BE01685D7F4FCE018E96FF
:100BE0000E947A1262E074E00E946312BE016E5DA0
:100BF0007F4F0E947A1262E074E00E946312BE018D
:100C00006F5F7F4F0E947A12BC01CE01CA960E948C
:100C10002213CE018E960E947113CE01C4960E94BB
:100C20007113CE0188960E947113CE0182960E94A4
:100C30007113CE0101960E9471134AE0F80162859A
:100C4000CE0101960E94CC1369E076E0CE01889631
:100C50000E942C14BE01685D7F4FCE0182960E94D7
:100C6000F813BE016F5F7F4FCE0182960E947A1209
:100C7000BC01CE01CA960E942213CE0182960E9428
:100C80007113CE0188960E947113CE0101960E94C5
:100C900071134AE0F8016585CE0101960E94CC13DC
:100CA0004AE0F8016485CE0182960E94CC134AE0A6
:100CB000F8016385CE0188960E94CC1361E176E04D
:100CC000CE01C4960E942C14BE016C5C7F4FCE01F5
:100CD0008E960E94F813BE01685D7F4FCE018E96FE
:100CE0000E947A1262E074E00E946312BE016E5D9F
:100CF0007F4F0E947A1262E074E00E946312BE018C
:100D00006F5F7F4F0E947A12BC01CE01CA960E948B
:100D10002213CE018E960E947113CE01C4960E94BA
:100D20007113CE0188960E947113CE0182960E94A3
:100D30007113CE0101960E9471134AE0F801678594
:100D4000CE0101960E94CC134AE0F8016685CE01DF
:100D500082960E94CC1369E176E0CE018E960E94C5
:100D60002C14BE01625D7F4FCE0188960E94F8135D
:100D7000BE016E5D7F4FCE0188960E947A1269E7B0
:100D800073E00E946312BE016F5F7F4F0E947A1270
:100D9000BC01CE01CA960E942213CE0188960E9401
:100DA0007113CE018E960E947113CE0182960E941D
:100DB0007113CE0101960E94711362E276E0CE01BA
:100DC00082960E942C14BE016E5D7F4FCE0101966B
:100DD0000E94F813BE01665C7F4FCE0101960E940F
:100DE0007A12BC01C7010E942213CE0101960E9413
:100DF0007113CE0182960E947113CE01CA967DCDE9
:100E000064EC73E0C7010E942C144AE0F801608191
:100E1000CE0101960E94CC1365EF75E0CE01889655
:100E20000E942C14BE01685D7F4FCE0182960E9405
:100E3000F813BE016F5F7F4FCE0182960E947A1237
:100E4000BC01C7010E945C13CE0182960E947113FF
:100E5000CE0188960E947113CE0101960E947113F3
:100E60004AE0F8016181CE0101960E94CC1368EC42
:100E700075E0CE0188960E942C14BE01685D7F4FFC
:100E8000CE0182960E94F813BE016F5F7F4FCE01A4
:100E900082960E947A12BC01C7010E942213CE01E1
:100EA00082960E947113CE0188960E947113CE0122
:100EB00001960E9471134AE0F8016281CE01019609
:100EC0000E94CC136EEC75E0CE0188960E942C1423
:100ED000BE01685D7F4FCE0182960E94F813BE016D
:100EE0006F5F7F4FCE0182960E947A12BC01C701CC
:100EF0000E942213CE0182960E947113CE01889621
:100F00000E947113CE0101960E947113F801828133
:100F10008111F5CC64EC73E0CE018E960E942C1406
:100F20004AE0F801638DCE0101960E94CC1364E281
:100F300076E0CE0188960E942C14BE01685D7F4F3A
:100F4000CE0182960E94F813BE016F5F7F4FCE01E3
:100F500082960E947A12BC01CE018E960E945C138A
:100F6000CE0182960E947113CE0188960E94711361
:100F7000CE0101960E9471134AE0F801668DCE0100
:100F800001960E94CC1369E276E0CE0188960E9419
:100F90002C14BE01685D7F4FCE0182960E94F8132B
:100FA000BE016F5F7F4FCE0182960E947A12BC0114
:100FB000CE018E960E942213CE0182960E9471135A
:100FC000CE0188960E947113CE0101960E94711382
:100FD0004AE0F801658DCE0101960E94CC1360E3D2
:100FE00076E0CE0188960E942C14BE01685D7F4F8A
:100FF000CE0182960E94F813BE016F5F7F4FCE0133
:1010000082960E947A12BC01CE018E960E94221313
:10101000CE0182960E947113CE0188960E947113B0
:10102000CE0101960E9471134AE0F801648DCE0151
:1010300001960E94CC136DEE75E0CE0188960E9459
:101040002C14BE01685D7F4FCE0182960E94F8137A
:10105000BE016F5F7F4FCE0182960E947A12BC0163
:10106000CE018E960E942213CE0182960E947113A9
:10107000CE0188960E947113CE0101960E947113D1
:10108000005E1F4FC12CD12C4AE0B601CE01019663
:101090000E94A11367E376E0CE0188960E942C148B
:1010A000BE01685D7F4FCE0182960E94F813BE019B
:1010B0006F5F7F4FCE0182960E947A12BC01CE01F3
:1010C0008E960E942213CE0182960E947113CE0149
:1010D00088960E947113CE0101960E9471134AE016
:1010E000F8016081CE0101960E94CC1369E773E09C
:1010F000CE0182960E942C14BE016F5F7F4FCE01FD
:1011000082960E947A12BC01CE018E960E94221312
:10111000CE0182960E947113CE0101960E94711336
:10112000F80131974AE06081CE0101960E94CC130C
:1011300069E773E0CE0182960E942C14BE016F5FB6
:101140007F4FCE0182960E947A12BC01CE018E960C
:101150000E942213CE0182960E947113CE01019645
:101160000E947113F80161817281838194811BA2B5
:101170001AA21DA21CA21FA21EA22AE0AE014F5F4E
:101180005F4F0E94622DBE016F5F7F4FCE0182963E
:101190000E94471369E773E0CE0101960E942C1468
:1011A000BE016E5D7F4FCE0101960E947A12BC0196
:1011B000CE018E960E942213CE0101960E947113D9
:1011C000CE0182960E947113055F1F4FCA94CD28ED
:1011D00021F0CC24C394D12C57CF62E276E0CE012B
:1011E00001960E942C14BE01625D7F4FCE010196D4
:1011F0000E947A12BC01C7010E942213CE010196FF
:101200000E947113CE018E9678CB4AE0F80160817E
:10121000CE0188960E94CC1365EF75E0CE01019651
:101220000E942C14BE016F5F7F4FCE0182960E94F8
:10123000F813BE01685D7F4FCE0182960E947A123C
:10124000BC01CE01805C9F4F0E945C13CE01829650
:101250000E947113CE0101960E947113CE018896EF
:101260000E9471134AE0F8016181CE0188960E94C4
:10127000CC1368EC75E0CE0101960E942C14BE01DF
:101280006F5F7F4FCE0182960E94F813BE01685DAA
:101290007F4FCE0182960E947A12BC01CE01805C03
:1012A0009F4F0E942213CE0182960E947113CE019D
:1012B00001960E947113CE0188960E9471134AE034
:1012C000F8016281CE0188960E94CC136EEC75E025
:1012D000CE0101960E942C14BE016F5F7F4FCE019C
:1012E00082960E94F813BE01685D7F4FCE01829600
:1012F0000E947A12BC01CE01805C9F4F0E94221393
:10130000CE0182960E947113CE0101960E94711344
:10131000CE0188960E94711364EC72E0CE01805C6D
:101320009F4F0E94141322968EAD9FAD2297F70116
:101330009183808324968EAD9FAD2497938382837F
:1013400026968EAD9FAD26979583848322961FAEF9
:101350001EAE229724961FAE1EAE249726961FAE71
:101360001EAE2697CE01805C9F4F0E947113C7016D
:10137000CB5BDF4F0FB6F894DEBF0FBECDBFDF9162
:10138000CF911F910F91FF90EF90DF90CF90089534
:101390004F925F926F927F928F929F92AF92BF9285
:1013A000CF92DF92EF92FF920F931F93CF93DF9331
:1013B00000D000D0CDB7DEB76B014901E12CF12C94
:1013C000A42E440FBB0886E0582ED60114968D91AA
:1013D0009C911597892B09F495C0D6016D907C904E
:1013E000B501C3010E946830009761F426E02E9D8C
:1013F000C0012F9D900D1124B601880D991D0E94EA
:101400005C1380C08C01061917090F3FBFEF1B0743
:1014100069F30115110539F441E050E060E070E036
:10142000C60193D7D2CF64EC73E0CE0101960E943F
:101430002C14F601848195810097D1F03801801732
:10144000910708F43C01D601ED91FC911197E60D4E
:10145000F71D408010826D917C91CE0101960E9413
:101460004713F60180819181FC01E60DF71D408252
:101470003701FFEF6F1A7F0A5E9CC0015F9C900DE1
:1014800011247401E80EF91ED7018D919C911197DA
:101490000097C1F069817A816115710589F0129612
:1014A0004D915C9113972D813E814217530740F077
:1014B0000E947C308D819E81F7019583848313C0C7
:1014C0000E94D72E89819A81F701918380838B8135
:1014D0009C81938382838D819E81958384831A82EC
:1014E00019821C821B821E821D82CE0101960E94DF
:1014F0007113A8014F5F5F4F60E070E0C60125D710
:10150000730163CFC701019626960FB6F894DEBF2C
:101510000FBECDBFDF91CF911F910F91FF90EF9044
:10152000DF90CF90BF90AF909F908F907F906F9003
:101530005F904F900895FC01538D448D252F30E02E
:10154000842F90E0821B930B541710F0CF960895D0
:1015500001970895FC01918D828D981761F0828D1D
:10156000DF01A80FB11D5D968C91928D9F5F9F73D7
:10157000928F90E008958FEF9FEF0895FC01918D79
:10158000828D981731F0828DE80FF11D858D90E0E6
:1015900008958FEF9FEF0895FC01918D228D892F83
:1015A00090E0805C9F4F821B91098F73992708956B
:1015B00083E996E0F1DF21E0892B09F420E0822F16
:1015C0000895FC01848DDF01A80FB11DA35ABF4F00
:1015D0002C91848D90E001968F739927848FA68932
:1015E000B7892C93A089B1898C9180648C93938D59
:1015F000848D981306C00288F389E02D80818F7D49
:1016000080830895EF92FF920F931F93CF93DF9300
:10161000EC0181E0888F9B8D8C8D981305C0E88943
:10162000F989808185FD23C0F62E0B8D10E00F5FB8
:101630001F4F0F731127E02E8C8DE8120BC00FB6D1
:1016400007FCFACFE889F989808185FFF5CFCE01C3
:10165000B8DFF2CF8B8DFE01E80FF11DE35AFF4F8B
:10166000F0820B8FEA89FB898081806207C0EE8956
:10167000FF896083E889F98980818064808381E0C3
:1016800090E0DF91CF911F910F91FF90EF9008951F
:10169000CF93DF93EC01888D8823C1F0EA89FB8921
:1016A000808185FD05C0A889B9898C9186FD0EC011
:1016B0000FB607FCF5CF808185FFF2CFA889B989E5
:1016C0008C9185FFEDCFCE017CDFE8CFDF91CF910C
:1016D000089580E090E0892B19F06ADF811125C020
:1016E00080E090E0892B41F080E090E0892B21F0B0
:1016F0000E94000081111CC080E090E0892B41F025
:1017000080E090E0892B21F00E940000811113C03D
:1017100080E090E0892BA1F080E090E0892B81F0BF
:101720000E94000081110AC008950E940000D8CFD5
:101730000E940000E1CF0E940000EACF0C9400005C
:10174000089590E0FC013197E231F10508F04EC0B8
:101750008827EB57FF4F8F4F0C94262E80918000E7
:101760008F7703C0809180008F7D809380000895E3
:1017700080918000877FF9CF84B58F7702C084B5D0
:101780008F7D84BD08958091B0008F7703C08091D4
:10179000B0008F7D8093B0000895809190008F7786
:1017A00007C0809190008F7D03C080919000877F5B
:1017B0008093900008958091A0008F7707C080915A
:1017C000A0008F7D03C08091A000877F8093A00040
:1017D0000895809120018F7707C0809120018F7D2F
:1017E00003C080912001877F80932001089520917C
:1017F0004006309141062817390771F490913E0652
:1018000080913F06981741F0E0913E06F0E0E65BDC
:10181000F94F808190E008958FEF9FEF089508952C
:101820001F93CF93DF93DC015C962D913C915D97E4
:101830002115310539F481E090E013969C938E9345
:1018400012973DC05196ED91FC91529750969C9104
:101850005097892F80951FB75E964C915E9741FBFC
:10186000772770F941FD6095F8944081772311F056
:10187000492B01C048234083E9012197F1F748E053
:10188000508160FF02C0592B01C058235083E901E9
:101890002197F1F76695415099F7772321F09081D0
:1018A0008923808303C08081982B90831FBF5C961F
:1018B0008D919C915D970197F1F721E030E0C9018E
:1018C000DF91CF911F9108952091400630914106FC
:1018D0002817390769F480913F0620913E0690E071
:1018E000805C9F4F821B910960E470E00C94F12DA5
:1018F00080E090E00895209140063091410628173D
:101900003907B9F490913E0680913F06981789F007
:10191000E0913E06F0E0E65BF94F808120913E06C3
:1019200030E02F5F3F4F2F73332720933E0690E028
:1019300008958FEF9FEF0895089580E090E0089557
:101940000E9453301F920F920FB60F9211240BB6C4
:101950000F922F933F934F935F936F937F938F9348
:101960009F93AF93BF93EF93FF9383E996E029DEB4
:10197000FF91EF91BF91AF919F918F917F916F9167
:101980005F914F913F912F910F900BBE0F900FBE23
:101990000F901F9018951F920F920FB60F9211245F
:1019A0000BB60F922F938F939F93EF93FF93E0913A
:1019B000A306F091A4068081E091A906F091AA0601
:1019C00082FD12C090818091AC068F5F8F73209151
:1019D000AD06821751F0E091AC06F0E0ED56F94FFC
:1019E000958F8093AC0601C08081FF91EF919F910C
:1019F0008F912F910F900BBE0F900FBE0F901F90E5
:101A00001895CF93DF93282F30E0F901E85BFE4F64
:101A10008491F901E85FFD4FD491F901EE53FE4F37
:101A2000C491CC2389F081118CDEEC2FF0E0EE0F15
:101A3000FF1FE855FE4FA591B491EC91ED2381E095
:101A400090E021F480E002C080E090E0DF91CF914F
:101A500008951F93CF93DF93282F30E0F901E85BBF
:101A6000FE4F8491F901E85FFD4FD491F901EE53E7
:101A7000FE4FC491CC23C1F0162F811162DEEC2FF2
:101A8000F0E0EE0FFF1FE257FE4FA591B4918FB724
:101A9000F894111105C09C91ED2FE095E92302C047
:101AA000EC91ED2BEC938FBFDF91CF911F910895B7
:101AB000CF93DF9390E0FC01E85FFD4F2491FC01A0
:101AC000EE53FE4F8491882361F190E0880F991FB7
:101AD000FC01E25DFE4FC591D491FC01E257FE4F3F
:101AE000A591B491611109C09FB7F89488812095A0
:101AF00082238883EC912E230BC0623061F49FB760
:101B0000F8943881822F809583238883EC912E2B43
:101B10002C939FBF06C08FB7F894E8812E2B2883A3
:101B20008FBFDF91CF9108952FB7F89460918F0602
:101B30007091900680919106909192062FBF089522
:101B40001F920F920FB60F9211242F933F938F93F2
:101B50009F93AF93BF9380918F0690919006A09131
:101B60009106B091920630918E0623E0230F2D3717
:101B700020F40196A11DB11D05C026E8230F029691
:101B8000A11DB11D20938E0680938F069093900621
:101B9000A0939106B093920680918A0690918B064D
:101BA000A0918C06B0918D060196A11DB11D809368
:101BB0008A0690938B06A0938C06B0938D06BF91F6
:101BC000AF919F918F913F912F910F900FBE0F90EA
:101BD0001F9018950F931F93CF93DF931F92CDB74C
:101BE000DEB78C01462F61E0FC018181498360DF13
:101BF0004981F801608181810F90DF91CF911F9120
:101C00000F910CC3FF920F931F93CF93DF938C011F
:101C100060E0FC0181814CDFC7E0D0E0F12C61E0A5
:101C2000F801808116DFF8018181EBDE9C0133270A
:101C30000C2E01C0220F0A94EAF7F22A60E0F801A4
:101C4000808107DF219758F78F2DDF91CF911F916A
:101C50000F91FF900895CF93DF93EC0160E08981AD
:101C600027DF61E08881F5DE8981CBDE0197E1F332
:101C700060E08881DF91CF91ECCECF93DF93EC01D0
:101C800061E0898115DF60E08881E3DE61E08981C0
:101C9000E0DE61E08881DDDE60E08881DADE60E040
:101CA0008981DF91CF9104CFCF93DF93EC0161E085
:101CB0008981FEDE60E08981CCDE61E08881C9DE59
:101CC00061E08981C6DE60E08981DF91CF91F0CE4D
:101CD0000F931F93CF93DF931F92CDB7DEB78C0185
:101CE000462F61E0FC0181814983E2DE61E0F80179
:101CF0008181AFDE61E0F8018081ABDE60E0F80158
:101D00008181A7DE60E0F8018081A3DE4981F801CE
:101D1000608181810F90DF91CF911F910F917EC2E1
:101D2000FC018AED97E09683858381E08483838339
:101D300010821182128285E087830895CF92DF920C
:101D4000EF92FF920F931F93CF93DF93CDB7DEB740
:101D500060970FB6F894DEBF0FBECDBF8C01CE01E9
:101D60000196DEDFF8018285882309F447C084EEFE
:101D70008093BC008091BC0087FFFCCF80ED8093F6
:101D8000BB0084EC8093BC008091BC0087FFFCCF3B
:101D90001092BB0084EC8093BC008091BC0087FF54
:101DA000FCCF84EE8093BC008091BC0087FFFCCF09
:101DB00081ED8093BB0084EC8093BC008091BC00DB
:101DC00087FFFCCFF8013296C801099634EC3093B6
:101DD000BC002091BC0027FFFCCF2091BB002193C9
:101DE000E817F907A1F784E88093BC008091BC0054
:101DF00087FFFCCF84E98093BC0042C060EDC8013E
:101E000067DFC80128DF60E0C801E4DEC80123DF26
:101E100061EDC8015DDFC8011EDF6801F2E0CF0E91
:101E2000D11CE12CF12CC801EDDEF60181936F018C
:101E3000F6E0EF16F104C9F061E0F801818138DEC7
:101E400060E0F801808105DE60E0F801818101DE5B
:101E500061E0F8018081FDDD60E0F8018081F9DD5D
:101E600060E0F801818124DE02C0C80106DFFFEFD7
:101E7000EF1AFF0A27E0E216F104A9F6C80114DF01
:101E8000F8018281982F9695969596959E70292FA8
:101E9000220F220F920F8F70890F8B838381982FCF
:101EA0009695969596959E70292F220F220F920F48
:101EB0008F70890F8A838481282F2F7087FF09C034
:101EC00085FB992790F9822FFCE09F9F800D1124BC
:101ED00009C08073869586958695982F990F990FDE
:101EE000890F820F8983F801858188878681982FE1
:101EF0009695969596959E70292F220F220F920FF8
:101F00008F70890F8C838781982F969596959695DB
:101F10009E70292F220F220F920F8F70890F8D83B1
:101F20008085982F92959F708F70FAE09F9F800D0B
:101F3000112490E08053984F9F838E8388E0FE01A8
:101F40003196DE01199601900D928A95E1F7298567
:101F50003A854B855C856D857E858F8598896096F1
:101F60000FB6F894DEBF0FBECDBFDF91CF911F91AA
:101F70000F91FF90EF90DF90CF9008950F931F93F4
:101F8000CF93DF93FC012285222359F184EE8093C5
:101F9000BC008091BC0087FFFCCF80ED8093BB002C
:101FA00084EC8093BC008091BC0087FFFCCF6093E1
:101FB000BB0084EC8093BC008091BC0087FFFCCF09
:101FC0004093BB0084EC8093BC008091BC0087FFF1
:101FD000FCCF84E98093BC00DF91CF911F910F91DA
:101FE0000895142F062FEC0160ED72DECE0133DE72
:101FF000602FCE01EFDDCE012EDE612FCE01EADDB6
:10200000CE0129DECE01DF91CF911F910F914CCEF1
:102010001F920F920FB60F9211240BB60F922F93AF
:102020003F934F935F936F937F938F939F93AF9360
:10203000BF93EF93FF93E0914006F09141063097F4
:1020400009F451C0968DA685B785858591FF04C09A
:102050009C91892329F447C09C91892309F043C0AE
:10206000A389B4899C918589809589238C938689DD
:1020700097890197F1F7608D718DA685B785558594
:1020800038E020E0CB010197F1F7822F90E09595A1
:102090008795282F4C91452309F02068315091F7FE
:1020A000868D81FD209580913F0690E001968F738B
:1020B000992730913E06381749F0A0913F06B0E0CD
:1020C000A65BB94F2C9380933F0603C0868D816039
:1020D000868F828D938D0197F1F7A389B4899C91A6
:1020E0008589892B8C93FF91EF91BF91AF919F913F
:1020F0008F917F916F915F914F913F912F910F90B1
:102100000BBE0F900FBE0F901F9018950F931F934B
:10211000CF93DF93EC011D821C821E821F821886E2
:1021200019861A861B861C861D861E86188A1F869F
:10213000198A1A8A1B8A1C8A1D8A1E8A1F8A188E6F
:10214000198EF2DC8B019C01025011092109310921
:102150000C8F1D8F2E8F3F8F8B019C010150110919
:102160002109310908A319A32AA33BA36CA37DA3CA
:102170008EA39FA381E090E09B8F8A8F198287E0D6
:1021800088831A82DF91CF911F910F910895CF9389
:10219000DF93EC010E945B018F3F2FEF920761F00C
:1021A0009C0183E0220F331F8A95E1F7FE01E20FC5
:1021B000F31F828181111782DF91CF910895CF9310
:1021C000DF93EC0188819981009711F00E94D72E4E
:1021D000198218821D821C821B821A82DF91CF9184
:1021E0000895009761F0FC0101900020E9F7319714
:1021F000AF01481B590BBC0183E996E002C380E0A4
:1022000090E00895CF93DF93ECDFEC0182EC93E054
:10221000E8DF8C0F9D1FDF91CF910895EF92FF9221
:102220000F931F93CF93DF93E82EF62EC7E0D0E0F5
:10223000042F10E098010C2E02C0359527950A94C2
:10224000E2F7B901617077278E2D03DC61E08F2DF5
:1022500000DC60E08F2DFDDB219760F7DF91CF91EF
:102260001F910F91FF90EF9008958F929F92AF92E0
:10227000BF920F931F93CF93DF93CDB7DEB7A19794
:102280000FB6F894DEBF0FBECDBF19A2423008F4DE
:102290004AE08E010F5D1F4F842E912CA12CB12C92
:1022A000A50194010E94042EE62FB901CA01015034
:1022B0001109EA3014F4E05D01C0E95CD801EC9347
:1022C000232B242B252B61F7C8018BDFA1960FB69A
:1022D000F894DEBF0FBECDBFDF91CF911F910F915C
:1022E000BF90AF909F908F900895CF93DF93682F0A
:1022F00070E080E090E04AE0B8DFEC0182EC93E02F
:1023000070DF8C0F9D1FDF91CF9108956ACFCF931F
:10231000DF93FC01448155816081718183E996E0FE
:1023200070D2EC0182EC93E05CDF8C0F9D1FDF919B
:10233000CF910895FC0180819181009711F00C9458
:10234000132D60E070E0CB010895CF93DF93DC01A3
:102350001496ED91FC9115976E177F0728F541159E
:10236000510511F19F01261B370B4217530708F443
:102370009A01DB01EC0188819981E21BF30BFD835B
:10238000EC83AF01461B570B260F371FBC01620FB2
:10239000731F8A0F9B1F0E948330E881F9818C8113
:1023A0009D81E80FF91F1082DF91CF910895EF9280
:1023B000FF920F931F93CF93DF938617970729F10F
:1023C000FC0124813581FB014481558124173507A7
:1023D000F1F4232BD1F0DC01CD91DC91008111814E
:1023E0008991882391F0082E000C990B0E94573098
:1023F0007C01F80181918F01082E000C990B0E943D
:102400005730E816F90661F302C081E001C080E0B0
:10241000DF91CF911F910F91FF90EF9008950F934F
:102420001F93CF93DF93EC0188819981009729F066
:102430002A813B812617370788F48B016F5F7F4F16
:102440000E946F2F009761F0998388831B830A8312
:102450002C813D81232B11F4FC01108281E001C00D
:1024600080E0DF91CF911F910F910895EF92FF923D
:102470000F931F93CF93DF93FC0124813581611566
:10248000710511F480E018C041155105A1F07B01E0
:10249000EC018A01020F131FB801C1DF882391F3F9
:1024A000288139818C819D81B701820F931F0E9401
:1024B0007C301D830C8381E0DF91CF911F910F91C0
:1024C000FF90EF900895CF93DF93EC0161157105B4
:1024D00059F0FB0101900020E9F73197AF01461B4D
:1024E000570BC4DF811102C0CE0169DECE01DF913E
:1024F000CF910895CF93DF93EC01FB014481558187
:1025000060817181B3DF811102C0CE0158DECE013E
:10251000DF91CF910895EF92FF920F931F93CF9386
:10252000DF93CDB7DEB72D970FB6F894DEBF0FBEA1
:10253000CDBF7C01CB01BA012AE08E010F5F1F4F96
:10254000A8010E94622DF80101900020E9F731975F
:10255000AF01401B510BB801C70188DF2D960FB6A4
:10256000F894DEBF0FBECDBFDF91CF911F910F91C9
:10257000FF90EF900895EF92FF920F931F93CF93E8
:10258000DF93CDB7DEB728970FB6F894DEBF0FBE46
:10259000CDBF7C01CB014AE08E010F5F1F4FB80118
:1025A0000E94432DF80101900020E9F73197AF0117
:1025B000401B510BB801C70159DF28960FB6F8949C
:1025C000DEBF0FBECDBFDF91CF911F910F91FF9066
:1025D000EF900895EF92FF920F931F93CF93DF93A5
:1025E00000D01F92CDB7DEB77C01862F4AE08E0166
:1025F0000F5F1F4FB80190E00E94432DF80101903A
:102600000020E9F73197AF01401B510BB801C7011A
:102610002DDF0F900F900F900F90DF91CF911F91B2
:102620000F91FF90EF9008956115710549F0FB013E
:1026300001900020E9F73197AF01461B570B16CFE9
:1026400080E00895FB0144815581608171810ECF46
:10265000EF92FF920F931F93CF93DF93EC017B01D7
:102660008A01BA01DCDE811103C0CE01A8DD07C0FA
:102670001D830C83B701888199810E947C30CE0133
:10268000DF91CF911F910F91FF90EF900895CF931D
:10269000DF93EC016115710551F0FB010190002001
:1026A000E9F73197AF01461B570BD2DF01C087DD39
:1026B000CE01DF91CF910895CF93DF93EC01FB0121
:1026C0008617970751F0608171816115710521F0BE
:1026D00044815581BDDF01C072DDCE01DF91CF9114
:1026E0000895FC01808191810C94D72E0F931F9344
:1026F000CF93DF93CDB7DEB761970FB6F894DEBF07
:102700000FBECDBF8C01CB01F80111821082138264
:1027100012821582148250E0BE016F5F7F4F0E94CB
:10272000832DBE016F5F7F4FC801B1DF61960FB689
:10273000F894DEBF0FBECDBFDF91CF911F910F91F7
:1027400008950F931F93CF93DF93CDB7DEB76297B2
:102750000FB6F894DEBF0FBECDBF8C01CB01F801E0
:1027600011821082138212821582148250E0BE01FF
:102770006F5F7F4F0E94392DBE016F5F7F4FC80191
:1027800086DF62960FB6F894DEBF0FBECDBFDF9135
:10279000CF911F910F9108950F931F93CF93DF93C4
:1027A000CDB7DEB729970FB6F894DEBF0FBECDBF09
:1027B0008C01862FF80111821082138212821582F9
:1027C000148250E0BE016F5F7F4F90E00E94832D26
:1027D000BE016F5F7F4FC8015ADF29960FB6F8948C
:1027E000DEBF0FBECDBFDF91CF911F910F91089536
:1027F000FC011182108213821282158214825CCF36
:102800000895CF92DF92EF92FF920F931F93CF9391
:10281000DF936C017A018B01C0E0D0E0CE15DF05BB
:1028200089F0D8016D918D01D601ED91FC91019057
:10283000F081E02DC6011995892B11F47E0102C0AB
:102840002196ECCFC701DF91CF911F910F91FF909F
:10285000EF90DF90CF900895FC01118210821382D7
:102860001282158214826115710549F0FB010190F5
:102870000020E9F73197AF01461B570BE9CE0895C9
:10288000CF93DF93CDB7DEB7CC5CD1400FB6F894D1
:10289000DEBF0FBECDBF789484B5826084BD84B5A1
:1028A000816084BD85B5826085BD85B5816085BD4B
:1028B00080916E00816080936E0010928100809103
:1028C000810082608093810080918100816080938B
:1028D0008100809180008160809380008091B100B0
:1028E00084608093B1008091B00081608093B000DB
:1028F000809191008260809391008091910081602D
:1029000080939100809190008160809390008091ED
:10291000A10082608093A1008091A10081608093DA
:10292000A1008091A00081608093A000809121018E
:102930008260809321018091210181608093210137
:102940008091200181608093200180917A008460D1
:1029500080937A0080917A00826080937A008091DF
:102960007A00816080937A0080917A0080688093F9
:102970007A001092C100E091A306F091A40612E043
:102980001083E0919F06F091A0061082E091A106CD
:10299000F091A20680E180831092AB06E091A70639
:1029A000F091A80686E08083E091A506F091A60646
:1029B000808180618083E091A506F091A6068081E8
:1029C00088608083E091A506F091A60680818068EA
:1029D0008083E091A506F091A60680818F7D80839B
:1029E0008CE492E00FDC109228098FE18093290992
:1029F00081E080932A0995E090932B098093300918
:102A000020E2209331098093320990933309109387
:102A1000380991E29093390980933A099FE09093A5
:102A20003B0923E02093400922E22093410980934F
:102A3000420990934309E12CF12C8701085D164F60
:102A4000D80112968C9112978823D9F061E01196E3
:102A50008C912ED8F8019381953061F020F491503B
:102A6000933078F407C09B3060F09E3038F09F3090
:102A700029F007C0C8010E94910103C0C8010E944B
:102A80008501F8E0EF0EF11C20E3E216F104A9F64F
:102A900082E692E0B7DB80911C09843101F58091D8
:102AA0001B098531E1F481E08093250961E084E12F
:102AB0000E94290D61E085E10E94290D8091B900F5
:102AC0008E7F8093B9008091B9008D7F8093B9008B
:102AD0008CE08093B80085E08093BC0007C0109222
:102AE000250961E080911B090E94580D80912509FC
:102AF000882309F43FC084EE8093BC008091BC0021
:102B000087FFFCCF80ED8093BB0084EC8093BC00FA
:102B10008091BC0087FFFCCF1092BB0084EC8093B7
:102B2000BC008091BC0087FFFCCF84EE8093BC008A
:102B30008091BC0087FFFCCF81ED8093BB0084ECCB
:102B40008093BC008091BC0087FFFCCF84EC809315
:102B5000BC008091BC0087FFFCCF1091BB0084E8D3
:102B60008093BC008091BC0087FFFCCF84E98093F8
:102B7000BC001FC060ED8BE199E0AAD88BE199E021
:102B80006AD860E08BE199E025D88BE199E063D8C1
:102B900061ED8BE199E09CD88BE199E05CD88BE109
:102BA00099E030D8182F8BE199E067D88BE199E054
:102BB0007BD8412F4F7760E08BE199E0DFD98AE73E
:102BC00092E020DB06E818E0A4E6EA2EF12C912C36
:102BD000B0E1AB2EB7E2BB2ECE0186589E4F3C0132
:102BE00067019CE0C90ED11CC7010E94B62DD3011C
:102BF0008D933D01BFEFEB1AFB0AEC14FD04A1F726
:102C0000F8013C979082C558DE4F8881CB57D14060
:102C100031968083C458DE4F8881CC57D14031969D
:102C20008083C358DE4F8881CD57D1403196808351
:102C3000C258DE4FA881CE57D1403196A083C158EB
:102C4000DE4FB881CF57D140980127503109F901A3
:102C5000B083C058DE4FF880C058D1402F5F3F4F3F
:102C6000F901F082CF57DE4F7881C158D140CE575D
:102C7000DE4F6881C258D140CD57DE4F9881C3588E
:102C8000D1407A9DA0017B9D500D1124F4E66F9FE9
:102C9000400D511D1124490F511DAA9D9001AB9D5E
:102CA000300D1124A4E6BA9F200D311D11242F0DE3
:102CB000311D421753074CF4880FF8013597808374
:102CC00087FF03C08F7781608083F801349770831A
:102CD00031966083319690833196CC57DE4F888150
:102CE000C458D1408083CB57DE4F8881C558D1402E
:102CF000F8018083005F1F4F93947601FAE09F12E2
:102D00006BCFEFE5AE2EE7E0BE2E0FE617E0FCEE50
:102D1000CF2ED12C9E012F5F3F4F2901760130E14C
:102D2000E31AF1084201C7010E94B62DD4018D9328
:102D30004D01BFEFEB1AFB0AEC14FD04A1F78981EA
:102D4000F50180838A81F8013D9780839B813197CB
:102D500090839C81319790832D81339620832E819F
:102D6000319620834F81588569857A85D5011696DD
:102D70004D935D936D937C9319972B853A962083A1
:102D80002C85F80120834D855E856F857889519665
:102D90004D935D936D937C935497992319F062E062
:102DA0000E94580DBEE2AB0EB11C025D1F4FE0E168
:102DB000CE0ED11CFCE4CF16F1E0DF0609F0AECF59
:102DC00010924B0710924A07109249071092480739
:102DD00010924707109246078DE991E090934D07B6
:102DE00080934C0780913C0796EF980F943048F001
:102DF0002EEC280F243028F022EC280F283008F081
:102E000070C02DEB30E030934707209346072BE945
:102E100031E030934907209348072CE231E03093AA
:102E20004B0720934A07943070F02EEC280F243083
:102E300050F022EC280F283010F40C94AF2BA0E0B7
:102E4000B0E00C94B12BA8E6B0E0E8E6F0E0208119
:102E5000943018F08E53883010F081E001C084E087
:102E6000822B8C9380913C0796EF980F943058F00A
:102E70002EEC280F243038F022EC280F283030F0C8
:102E800020E030E005C02BE630E002C02DE630E067
:102E90003093440720934307943010F49AEF0BC00B
:102EA000823381F0833381F0843381F092EC980F88
:102EB000983070F492EC980F81E001C0880F9A95D9
:102EC000EAF707C088E005C084E003C082E001C0E3
:102ED00081E08093450780914C0790914D070197C1
:102EE000F1F780914A0790914B07892B49F1E091C6
:102EF0004006F091410627E0E033F20709F13097F0
:102F000039F0A389B4899C918589809589238C9314
:102F100080914E078E7F80934E0710923F0610924D
:102F20003E0680E397E09093410680934006E0914F
:102F30004307F0914407908180914507892B808356
:102F400088E992E05FD910924206109243061092EF
:102F50004406109245068CEA92E054D989EC90E040
:102F60008C0F9D1F4496CA53DE4F99838883C65C9D
:102F7000D140A3E1B1E0AC0FBD1F5396C853DE4F63
:102F8000B983A883C85CD140FE01E758FF4FC45401
:102F9000DE4FF983E883CC5BD1402EE631E02C0F85
:102FA0003D1F2A5F3F4FC653DE4F39832883CA5CDB
:102FB000D1408CE591E08C0F9D1F0696CE53DE4FDD
:102FC00099838883C25CD14000E010E083E996E0F9
:102FD0000E94CC0A892B19F183E996E00E94AA0A83
:102FE0007C0197FD1CC089831A8241E050E0B20148
:102FF0008FE497E03BDA0F5F1F4F93E2E916F1048D
:1030000029F764EC72E0C20127DC2091530730916C
:1030100054074D815E812417350730F419C0012B08
:1030200011F40C940523EDCF80914F079091500738
:10303000009771F069817A816115710549F0241B4F
:10304000350B820F931F0E94733011E0892B09F01A
:1030500010E0C20146DB112311F40C941C2386EC12
:1030600092E054D98FE497E052D960915307709160
:1030700054076150710941E050E08FE497E065D951
:103080001BE0C353DF4F1883CD5CD040C253DF4FEA
:103090001882CE5CD040C652DF4F1882CA5DD04045
:1030A000CA53DE4F88819981C65CD1400E94900E40
:1030B00089EC90E08C0F9D1F4C9628D8C753DF4FAA
:1030C0001882C95CD040C653DF4F1882CA5CD0401A
:1030D000C553DF4F19821882CB5CD040CA5EDE4FE9
:1030E0001883C651D140C95EDE4F1882C751D14006
:1030F000CD5DDE4F1882C352D140C853DE4F888168
:103100009981C85CD1400E94900E83E191E08C0FC0
:103110009D1F4B960E948610CD5EDE4F1882C351D4
:10312000D140CC5EDE4F1882C451D140CB5EDE4F21
:103130001882C551D1404201820164EC73E0C8019C
:103140008BDB0A5F1F4FC454DE4FC880D980CC5B35
:10315000D1400C151D0589F764EC73E0CE0182594E
:103160009E4F7ADB64EC73E0C653DE4F8881998111
:10317000CA5CD14071DB9E01245A3E4F790189011E
:103180000E5E1F4F64EC73E0C70166DB36E0E30EB2
:10319000F11CE016F106B1F704E110E0920146E2FD
:1031A0006FE477E0CE0187539F4F0E94C8093C012E
:1031B000A12CB12C6EE6E62EFF24F394EC0EFD1E3E
:1031C00046E0E40EF11C332433947CE5C72EDD2465
:1031D000D394CC0EDD1E8CE0C80ED11CA614B7040F
:1031E0000CF043C302E010E09E0122593E4F4DE334
:1031F000B401CE0187539F4F0E94C809029709F07E
:1032000041C36CE073E0CE0182569E4F25DBBE01C8
:1032100062567E4FCE0182599E4FC9D8182FCE01DB
:1032200082569E4F5EDA112379F0C70183D8C753C7
:10323000DF4F6883C95CD040C553DF4F88819981D7
:10324000CB5CD0408160F1C26CED72E0CE01825661
:103250009E4F02DBBE0162567E4FCE0182599E4FC9
:10326000A6D8182FCE0182569E4F3BDA112379F053
:10327000C70160D8C653DF4F6883CA5CD040C553CE
:10328000DF4F88819981CB5CD0408260CEC260EEF6
:1032900072E0CE0182569E4FDFDABE0162567E4F4B
:1032A000CE0182599E4F83D8182FCE0182569E4F51
:1032B00018DA112309F445C003E010E09E01245AF6
:1032C0003E4F4DE2B701CE0187539F4F0E94C80980
:1032D000039709F0DAC2C6012DD8162FCE53DE4F60
:1032E00088819981C25CD14025D8062FCE01845AAD
:1032F0009E4F20D8693BABE07A0708F0C9C22FEF98
:10330000200F2C3008F0C4C22FEF210F2F3108F00E
:10331000BFC2CE51DF4F79836883C25ED040CF51A8
:10332000DF4F0883C15ED040C052DF4F1883C05EBC
:10333000D040C553DF4F88819981CB5CD0408460F9
:1033400074C26FEF72E0CE0182569E4F85DABE01E5
:1033500062567E4FCE0182599E4F29D8182FCE013A
:1033600082569E4FBED9112309F441C003E010E0FC
:103370009E01245A3E4F4AE3B701CE0187539F4F27
:103380000E94C809039709F086C2C6010E949A11DB
:10339000162FCE53DE4F88819981C25CD1400E94A6
:1033A0009A11062FCE01845A9E4F0E949A116831BD
:1033B00008F074C20C3308F071C21C3308F06EC2FE
:1033C000C352DF4F6883CD5DD040C252DF4F0883C8
:1033D000CE5DD040C152DF4F1883CF5DD040C55382
:1033E000DF4F88819981CB5CD04088601EC265EE3A
:1033F00072E0CE0182569E4F2FDABE0162567E4F9A
:10340000CE0182599E4F0E94D711182FCE018256AD
:103410009E4F67D91123A9F0C7010E949A118FEF1F
:10342000860F873008F03DC2CC51DF4F6883C45E01
:10343000D040C553DF4F88819981CB5CD0408061FB
:10344000F4C16AEE72E0CE0182569E4F05DABE01EB
:1034500062567E4FCE0182599E4F0E94D711182F7F
:10346000CE0182569E4F3DD9112399F0C7010E948B
:103470009A116B3008F018C2C353DF4F6883CD5CDC
:10348000D040C553DF4F88819981CB5CD0408062AA
:10349000CCC16EEE72E0CE0182569E4FDDD9BE01E8
:1034A00062567E4FCE0182599E4F0E94D711182F2F
:1034B000CE0182569E4F15D9112381F0C7010E947B
:1034C0009A11C153DF4F6883CF5CD040C553DF4FA3
:1034D00088819981CB5CD0408064A7C162EF72E0A3
:1034E000CE0182569E4FB8D9BE0162567E4FCE01A4
:1034F00082599E4F0E94D711182FCE0182569E4F9F
:10350000F0D81123A9F0C7010E949A11C053DF4FD0
:103510006883C05DD040CC52DF4F6883C45DD0402B
:10352000C553DF4F88819981CB5CD04080687DC1D5
:1035300068EF72E0CE0182569E4F8ED9BE01625670
:103540007E4FCE0182599E4F0E94D711182FCE0177
:1035500082569E4FC6D8112309F441C003E010E003
:103560009E01245A3E4F4AE3B701CE0187539F4F35
:103570000E94C809039709F09AC1C6010E949A11D6
:10358000162FCE53DE4F88819981C25CD1400E94B4
:103590009A11062FCE01845A9E4F0E949A116831CB
:1035A00008F088C10C3308F085C11C3308F082C1D3
:1035B000CF52DF4F6883C15DD040CE52DF4F0883CA
:1035C000C25DD040CD52DF4F1883C35DD040C5539C
:1035D000DF4F88819981CB5CD040916026C16EEF2E
:1035E00072E0CE0182569E4F37D9BE0162567E4FA1
:1035F000CE0182599E4F0E94D711182FCE018256BC
:103600009E4F6FD8112309F441C003E010E09E01E2
:10361000245A3E4F4AE3B701CE0187539F4F0E9481
:10362000C809039709F049C1C6010E949A11162FD3
:10363000CE53DE4F88819981C25CD1400E949A119D
:10364000062FCE01845A9E4F0E949A11683108F0CD
:1036500037C10C3308F034C11C3308F031C1CB52F0
:10366000DF4F6883C55DD040CA52DF4F0883C65D17
:10367000D040C952DF4F1883C75DD040C553DF4FDC
:1036800088819981CB5CD0409260CFC064E073E0C8
:10369000CE0182569E4FE0D8BE0162567E4FCE01CB
:1036A00082599E4F0E94D711182FCE0182569E4FED
:1036B00018D8112379F103E010E09E01245A3E4FFF
:1036C0004DE2B701CE0187539F4F0E94C809029770
:1036D00009F0F9C0CE53DE4F88819981C25CD14098
:1036E0000E949A11162FCE01845A9E4F0E949A1161
:1036F000C852DF4F6883C85DD040C752DF4F188380
:10370000C95DD040C553DF4F88819981CB5CD040E3
:1037100094608BC06BE073E0CE0182569E4F9CD8C4
:10372000BE0162567E4FCE0182599E4F0E94D71134
:10373000182FCE0182569E4F0E947113112381F0E3
:10374000C7010E949A11CB51DF4F6883C55ED040FC
:10375000C553DF4F88819981CB5CD040986065C0AC
:103760006FE073E0CE0182569E4F76D8BE0162565E
:103770007E4FCE0182599E4F0E94D711182FCE0145
:1037800082569E4F0E9471131123E9F0C7010E94D7
:103790009A11DC01CB019927AA27BB27C551DF4F1E
:1037A00088839983AA83BB83CB5ED040C651DF4F09
:1037B0003882CA5ED040C553DF4F88819981CB5C87
:1037C000D040906132C066E173E0CE0182569E4FD8
:1037D00043D8BE0162567E4FCE0182599E4F0E9451
:1037E000D711182FCE0182569E4F0E9471131123BC
:1037F00049F1C7010E949A11DC01CB019927AA2740
:10380000BB27CA50DF4F88839983AA83BB83C65FD7
:10381000D040CB50DF4F3882C55FD040C553DF4F1B
:1038200088819981CB5CD0409062C553DF4F9983EA
:103830008883CB5CD040BFEFAB1ABB0AE6E08E0EAC
:10384000911CCCCC8DE193E00E9486114D815E816C
:1038500069817A8183E996E00E9401148AE293E00B
:103860000E94021104E010E033C0C553DF4F88818D
:103870009981CB5CD04083709927039739F500E09C
:1038800010E026C00CE010E023C00DE010E020C0E6
:1038900007E110E01DC000E110E01AC00AE110E0ED
:1038A00017C00DE110E014C00EE110E011C00EE0F1
:1038B00010E00EC008E110E00BC002E110E008C00B
:1038C0000CE110E005C003E110E002C005E010E0EB
:1038D0008CE591E08C0F9D1F0C960E947113CE53C6
:1038E000DE4F88819981C25CD1400E947113CE0164
:1038F000845A9E4F0E9471138EE691E08C0F9D1F9B
:1039000006960E947113CE0182599E4F0E94711338
:103910009E0127583F4F790136E0E31AF108C701AD
:103920000E947113E414F504B9F7CB5EDE4F0883EF
:10393000C551D140012B61F08CE293E00E948611C9
:10394000CB5EDE4F8881C551D1400E94751145C6BE
:10395000C653DF4FE881CA5CD0408FEF8E0F8930AD
:1039600008F0F2C500915B0710915C07C753DF4F69
:103970008881C95CD040CD5EDE4F8883C351D14081
:10398000CC5EDE4FE883C451D140CB5EDE4F18825F
:10399000C551D140C353DF4F6881CD5CD0408E2FDD
:1039A00090E0FC013197E331F10508F0CBC58827A1
:1039B000EE58FF4F8F4F0C94262EC8018B559F4F0A
:1039C0000E949E0ECA5DDE4F2883C652D140C95D5B
:1039D000DE4F3883C752D140C85DDE4F4883C8529E
:1039E000D140C75DDE4F5883C952D140C65DDE4F1E
:1039F0006883CA52D140C55DDE4F7883CB52D14037
:103A0000C45DDE4F8883CC52D140C35DDE4F9883C6
:103A1000CD52D140E2C5C553DF4F8881CB5CD04049
:103A200083FF42C0C152DF4FC880CF5DD040C25239
:103A3000DF4FB880CE5DD040C352DF4F8881CD5D6F
:103A4000D040883188F54BE34B1570F14C1560F18F
:103A50005AE0D52E6D2D0E94E52D492FA0E18A9FB9
:103A6000400D112462E07801B5EAEB0EF11CC701AC
:103A70000E94BE0F8B2D6D2D0E94E52D492FE0E198
:103A80008E9F400D112461E0C7010E94BE0F8C2D56
:103A90006D2D0E94E52D492FF0E18F9F400D1124DF
:103AA00060E0C7010E94BE0FC553DF4F8881CB5C29
:103AB000D04082FF4AC0CE51DF4F88819981C25EDB
:103AC000D040CF51DF4FB880C15ED040C052DF4FF1
:103AD000C880C05ED0402FEF2C0D2F31B0F52FEFF6
:103AE0002B0D2C3090F5805D9740883E23E09207A7
:103AF00060F54AE0D42E6D2D0E94E52D492F30E16E
:103B0000839F400D112466E0780185EAE80EF11CE0
:103B1000C7010E94BE0F8B2D6D2D0E94E52D492FF0
:103B2000A0E18A9F400D112465E0C7010E94BE0FED
:103B30008C2D6D2D0E94E52D492FB0E18B9F400DFE
:103B4000112464E0C7010E94BE0FC553DF4F888176
:103B5000CB5CD04084FF41C5CC51DF4F4881C45E6F
:103B6000D0408FEF840F873008F037C563E0C8017D
:103B70008B559F4F0E94BE0F30C5C553DF4F8881C4
:103B80009981CB5CD04085FD03C08EE30C941E2749
:103B90006A3018F08FE30C941E27E0E16E9FB001AD
:103BA0001124D801A60FB71F15962C911597222323
:103BB00019F080E40C941E279C01207C3327203CC4
:103BC000310511F00C941D278827937081159340BF
:103BD00011F40C9424270C941D27C553DF4F8881C2
:103BE000CB5CD04085FFD1CF6A30A0F620E1629F48
:103BF000000D111D1124F801349680E1A3E1B1E01C
:103C0000AC0FBD1F139601900D928A95E1F7E5C4A4
:103C1000C553DF4F88819981CB5CD04085FFB5CFFC
:103C20006A3008F0B7CF70E086FF0EC0C153DF4F97
:103C30002881CF5CD040FB0134E0EE0FFF1F3A95A6
:103C4000E1F7E00FF11F268387FF0FC0C053DF4F5E
:103C50002881C05DD040FB01B4E0EE0FFF1FBA9594
:103C6000E1F7E00FF11F2783238790FF26C0CD5295
:103C7000DF4F2881C35DD040CE52DF4F3881C25D17
:103C8000D040CF52DF4F4881C15DD040483110F065
:103C90000C943F273C3310F00C943F272C3310F04A
:103CA0000C943F27FB01A4E0EE0FFF1FAA95E1F75C
:103CB000E00FF11F40873187228791FF26C0C9524C
:103CC000DF4F2881C75DD040CA52DF4F3881C65DC3
:103CD000D040CB52DF4F4881C55DD040483110F015
:103CE0000C943F273C3310F00C943F272C3310F0FA
:103CF0000C943F27FB0154E0EE0FFF1F5A95E1F7AC
:103D0000E00FF11F44873587268792FF18C0C852FD
:103D1000DF4F8881C85DD040FB0194E0EE0FFF1FAC
:103D20009A95E1F7E00FF11F8787FB01319624E0B8
:103D3000EE0FFF1F2A95E1F7E00FF11F808384E06B
:103D4000660F771F8A95E1F70C943527C553DF4F2F
:103D50008881CB5CD04085FF18CF6A3008F01ACF3D
:103D6000F80130E1639FE00DF11D1124158235C487
:103D7000780145E0E40EF11C680185EAC80ED11C0B
:103D80000C551F4FD7011C92B70161507109C80132
:103D90000E94A202B0E1EB0EF11CEC14FD0491F7BD
:103DA0001CC488ECF20111928A95E9F77801F5EAD2
:103DB000EF0EF11CCE01845A9E4F0E94900EC70157
:103DC0000E949E0EC45ADE4F2883CC55D140C35A60
:103DD000DE4F3883CD55D140C25ADE4F4883CE5591
:103DE000D140C15ADE4F5883CF55D140C05ADE4F23
:103DF0006883C056D140CF59DE4F7883C156D14039
:103E0000CE59DE4F8883C256D140CD59DE4F9883BC
:103E1000C356D1402A3010F480E305C0822F6AE0F7
:103E20000E94E52D805D809300023AE0822F632F8F
:103E30000E94E52D905D909301028AE38093020237
:103E4000C35ADE4F2881CD55D1402A3010F480E38B
:103E500005C0822F632F0E94E52D805D80930302B1
:103E60003AE0822F632F0E94E52D905D909304022B
:103E70008AE380930502C25ADE4F2881CE55D14095
:103E80002A3010F480E305C0822F632F0E94E52DB5
:103E9000805D80930602AAE0DA2E822F6D2D0E94AB
:103EA000E52D905D90930702109208028EE0EAE102
:103EB000F2E0DE01A45ABE4F01900D928A95E1F71F
:103EC000CE0182599E4F0E94900EC7010E949E0E05
:103ED000E92FC259DE4F2883CE56D140C159DE4F5B
:103EE0003883CF56D140C059DE4F4883C057D140A8
:103EF000CF58DE4F5883C157D140CE58DE4F68832C
:103F0000C257D140CD58DE4F7883C357D140CC58EB
:103F1000DE4F8883C457D140CB58DE4F9883C557B6
:103F2000D140CE01845A9E4F8E0F911D8E0F911D50
:103F3000FC013297C080B180CE01845A9E4F0E940E
:103F4000900EC7010E949E0EF62EC45ADE4F2883A3
:103F5000CC55D140C35ADE4F3883CD55D140C25ADB
:103F6000DE4F4883CE55D140C15ADE4F5883CF55DE
:103F7000D140C05ADE4F6883C056D140CF59DE4F82
:103F80007883C156D140CE59DE4F8883C256D14086
:103F9000CD59DE4F9883C356D140CF59DE4F28818B
:103FA0003981C156D140C90168EE73E00E94F12DFC
:103FB000605D60930902E4E6F0E0BF010E94F12D2C
:103FC000605D60930A02C901BF010E94F12DEAE021
:103FD000F0E0BF010E94F12D605D60930B02C9010A
:103FE000BF010E94F12D805D80930C028FE28093CF
:103FF0000D02B9E0EB2EEF1410F080E305C08F2D19
:104000006D2D0E94E52D805D80930E023AE08F2D8C
:10401000632F0E94E52D905D90930F028FE28093B5
:104020001002C15ADE4F2881CF55D1402A3010F4FA
:1040300080E305C0822F632F0E94E52D805D809371
:10404000110249E052E0822F6AE00E94E52D905D66
:10405000909312021092130280E092E09F938F934C
:10406000BF92CF925F934F9388E493E09F938F9397
:104070001F9288EC8F935F924F920E949230C20100
:104080000E940211780121E1E20EF11C0F541F4F32
:104090000FB6F894DEBF0FBECDBF64EC73E0CE0167
:1040A00086559E4F0E942C1464E670E0CE01865522
:1040B0009E4F0E940F124AE0F7013D976081CE01AA
:1040C000845A9E4F0E94CC1368E673E0CE0182565C
:1040D0009E4F0E942C14BE0162567E4FCE01825923
:1040E0009E4F0E94F813BE01645A7E4FCE01825942
:1040F0009E4F0E947A12BC01CE0186559E4F0E94AF
:104100002213CE0182599E4F0E947113CE01825616
:104110009E4F0E947113CE01845A9E4F0E947113CC
:104120004AE0F7013B976081CE01845A9E4F0E947E
:10413000CC1362EA75E0CE0182569E4F0E942C1489
:10414000BE0162567E4FCE0182599E4F0E94F813E7
:10415000BE01645A7E4FCE0182599E4F0E947A1250
:10416000BC01CE0186559E4F0E942213CE0182597A
:104170009E4F0E947113CE0182569E4F0E94711372
:10418000CE01845A9E4F0E947113F7013C978081A3
:10419000882309F4ADC161E773E0CE01845A9E4FD4
:1041A0000E942C14BE01645A7E4FCE0186559E4F4C
:1041B0000E942213CE01845A9E4F0E947113C12C7B
:1041C000D12C57019AE0A91AB108D5016C9170E081
:1041D0000C2C02C0759567950A94E2F761707727F9
:1041E0004AE0CE01845A9E4F0E94A113BE01645A38
:1041F0007E4FCE0186559E4F0E942213CE01845AD7
:104200009E4F0E947113BFEFCB1ADB0AE7E0CE1678
:10421000D104D9F669E773E0CE0186559E4F0E941E
:1042200014134AE0F70137976081CE01845A9E4FFC
:104230000E94CC134AE0F70138976081CE01825981
:104240009E4F0E94CC134AE0F70139976081CE015E
:104250008C559E4F0E94CC13BE016C557E4FCE01F3
:1042600082569E4F0E94F81362E074E0CE0182569F
:104270009E4F0E946312BE0162597E4F0E947A12C5
:1042800062E074E00E946312BE01645A7E4F0E9495
:104290007A12BC01CE0186559E4F0E942213CE0198
:1042A00082569E4F0E947113CE018C559E4F0E94E4
:1042B0007113CE0182599E4F0E947113CE01845A10
:1042C0009E4F0E9471136BE773E0CE01845A9E4F9C
:1042D0000E942C14BE01645A7E4FCE0186559E4F1B
:1042E0000E942213CE01845A9E4F0E947113C12C4A
:1042F000D12C5701F6E0AF1AB108D5016C9170E0EE
:104300000C2C02C0759567950A94E2F761707727C7
:104310004AE0CE01845A9E4F0E94A113BE01645A06
:104320007E4FCE0186559E4F0E942213CE01845AA5
:104330009E4F0E947113BFEFCB1ADB0AE7E0CE1647
:10434000D104D9F669E773E0CE0186559E4F0E94ED
:1043500014134AE0F70133976081CE01845A9E4FCF
:104360000E94CC134AE0F70134976081CE01825954
:104370009E4F0E94CC134AE0F70135976081CE0131
:104380008C559E4F0E94CC13BE016C557E4FCE01C2
:1043900082569E4F0E94F81362E074E0CE0182566E
:1043A0009E4F0E946312BE0162597E4F0E947A1294
:1043B00062E074E00E946312BE01645A7E4F0E9464
:1043C0007A12BC01CE0186559E4F0E942213CE0167
:1043D00082569E4F0E947113CE018C559E4F0E94B3
:1043E0007113CE0182599E4F0E947113CE01845ADF
:1043F0009E4F0E9471134AE0F70131976081CE0110
:10440000845A9E4F0E94CC134AE0F7013297608194
:10441000CE0182599E4F0E94CC1361E873E0CE0119
:104420008C559E4F0E942C14BE016C557E4FCE01C0
:1044300082569E4F0E94F813BE0162597E4FCE01F4
:1044400082569E4F0E947A1269E773E00E946312BF
:10445000BE01645A7E4F0E947A12BC01CE0186557D
:104460009E4F0E942213CE0182569E4F0E947113CE
:10447000CE018C559E4F0E947113CE0182599E4FE2
:104480000E947113CE01845A9E4F0E947113D7016E
:104490006C9170E04AE0CE01845A9E4F0E94A113B5
:1044A0006AE873E0CE0182569E4F0E942C14BE0132
:1044B00062567E4FCE0182599E4F0E94F813BE0174
:1044C000645A7E4FCE0182599E4F0E947A12BC01DF
:1044D000CE0186559E4F0E942213CE0182599E4FD7
:1044E0000E947113CE0182569E4F0E9471130FC01D
:1044F00064E973E0CE01845A9E4F0E942C14BE01E1
:10450000645A7E4FCE0186559E4F0E942213CE01E3
:10451000845A9E4F0E947113CE0186559E4F0E9471
:104520008711CE0186559E4F0E947113B0E1EB0EAC
:10453000F11CE016F10609F0B0CD84EC93E00E9486
:1045400002114BC08CE37AC485EF8E0F893008F4DA
:1045500009CA8BEE8E0F893008F093C400915D0775
:1045600010915E07CB51DF4F8881C55ED040C753A5
:10457000DF4F9881C95CD040CD5EDE4F9883C35138
:10458000D140CC5EDE4FE883C451D140CB5EDE4FDC
:104590001882C551D140E63109F40AC508F02BC58F
:1045A000E53109F026C5C553DF4F28813981CB5C41
:1045B000D04033FF05C5863008F006C59EE2F801FD
:1045C000989FE00DF11D1124A3E1B1E0AC0FBD1FD8
:1045D0005B9601900D929A95E1F7BE016D5E7E4F5C
:1045E000C2010E94FF0280E394E00E948611C20192
:1045F0000E9487114FEF5FEF60E070E08FE497E07B
:104600000E94A511C2010E94711343E6C42E47E027
:10461000D42E82E697E0C254DE4F99838883CE5B26
:10462000D14051E6252E57E0352E64E6662E67E030
:10463000762E08E717E029C084E494E00E948611F2
:104640008FE497E00E948711E0CF823009F4D5C053
:104650009EE2C90ED11CC254DE4FA881B981CE5B47
:10466000D1409E96C254DE4FB983A883CE5BD14021
:10467000BEE22B0E311CEEE26E0E711C025D1F4F6E
:10468000F8E00C381F0709F476C2F80178978081AA
:104690008823F1F2C254DE4FA881B981CE5BD140AC
:1046A0008C910E94010D7C01F80181819281E816B4
:1046B000F90671F40E94940DD8011B966D937D93B9
:1046C0008D939C931E97EF28C1F482E090E038C050
:1046D0000E94940DF80183849484A584B684DC013F
:1046E000CB0188199909AA09BB094597A105B1050C
:1046F00038F481819281892B41F384E090E020C0DD
:1047000088E594E00E940211D8011296FC92EE9284
:1047100011970E94940DF8016387748785879687A7
:10472000EF2839F4638374838583968381E090E076
:1047300007C0F801678370878187928783E090E0E4
:104740008330910509F427C18430910509F488C1AB
:10475000029709F4CBC08FE694E00E948611C25400
:10476000DE4FE881F981CE5BD14080810E947511D6
:104770000E94940DD8011F966D937D938D939C9309
:104780005297F1018081813009F05FCF7301812C54
:10479000912CD7018C91882329F111962D913D916F
:1047A0004D915C911497A8EEB3E00E94CC2DF801D6
:1047B0002785308941895289DC01CB01820F931F03
:1047C000A41FB51FF70185839683A783B08721E0D7
:1047D000218731976081D80153968D919C91549790
:1047E0000E94E301BBE0EB0EF11C8A94892809F4D6
:1047F0002FCF88248394912CCCCFD3018C91882304
:1048000021F0F8013B97808101C080E0F8013997E1
:104810009081992319F0F8019081892B882379F1EF
:104820007801FBE0EF1AF10822E0822E912CF701CB
:10483000399780818823C1F0D7018C918823A1F01A
:10484000F80187859089A189B289F701349780831F
:104850009183A283B383D7011C9236976081F801BC
:10486000838994890E949F01FBE0EF0EF11C8A94DA
:10487000892809F4EDCE88248394912CD8CF730134
:10488000812C912CD7018C91882329F111962D919F
:104890003D914D915C911497A8EEB3E00E94CC2D10
:1048A000F8012785308941895289DC01CB01820FCB
:1048B000931FA41FB51FF70185839683A783B08735
:1048C00021E0218731976081D80153968D919C9189
:1048D00054970E94E301BBE0EB0EF11C8A948928F7
:1048E00009F4B6CE88248394912CCCCF0E94940DE9
:1048F000D8011F966D937D938D939C93529776016B
:10490000B2E08B2E912CF70181818823C9F1D1016E
:10491000BC90B1E0BB1220C022813381448155811B
:10492000A8EEB3E00E94CC2DF8012785308941899B
:104930005289DC01CB01820F931FA41FB51FF70121
:1049400086839783A087B187B2866081D80153960A
:104950008D919C9154970DC0B2E0BB1211C0F7012C
:104960002285D80153968D919C915497222321F052
:1049700060810E946C0104C0F70160810E94C71031
:10498000FBE0EF0EF11C8A94892809F461CE88249B
:104990008394912CB8CF8FE794E00E948611C25483
:1049A000DE4FA881B981CE5BD1408C910E947511F8
:1049B0000E94940DF8016787708B818B928B760132
:1049C000812C912CD70111968C9111978823E9F1B4
:1049D000F101B080F1E0BF1224C012962D913D91FB
:1049E0004D915C911597A8EEB3E00E94CC2DD801B3
:1049F0001F962D913D914D915C915297DC01CB0119
:104A0000820F931FA41FB51FF70186839783A0878A
:104A1000B187B2866081D80153968D919C9154974D
:104A20000DC0B2E0BB1211C0F7012285D801539628
:104A30008D919C915497222321F060810E946C01FA
:104A400004C0F70160810E94C710FBE0EF0EF11C6B
:104A50008A94892809F4FCCD88248394912CB2CFC0
:104A60000E94940D4B015C017601CC53DE4F1982FC
:104A70001882C45CD140D70111968C91119788237C
:104A800009F463C01A968C911A97811107C06C9132
:104A9000F801838994890E94C71057C0D8011F96D6
:104AA0004D915D916D917C915297F701868197812F
:104AB000A085B185481759076A077B0710F584164A
:104AC0009506A606B70660F088169906AA06BB06E4
:104AD00038F46081D80153968D919C91549720C0F1
:104AE0008CE894E00E948611F70180810E94751184
:104AF000D7011A961C921A976C91F80183899489B0
:104B000022C084169506A606B70628F488169906CC
:104B1000AA06BB0640F4D7016C91F80183899489F9
:104B20000E946C0112C08CE894E00E948611D701AB
:104B30008C910E947511F70112866081D8015396FD
:104B40008D919C9154970E949F01BBE0EB0EF11C4C
:104B5000CC53DE4F28813981C45CD14021303105EE
:104B600009F476CD21E030E0CC53DE4F3983288341
:104B7000C45CD14080CF0E94940D60934606709330
:104B8000470680934806909349060091420610918B
:104B9000430620914406309145066B017C01C01A02
:104BA000D10AE20AF30A45E8C41643E0D406E10458
:104BB000F10408F43EC1609342067093430680936B
:104BC0004406909345068BE199E00E949E0EC257E1
:104BD000DE4F2883CE58D140C157DE4F3883CF589F
:104BE000D140C057DE4F4883C059D140CF56DE4F29
:104BF0005883C159D140CE56DE4F6883C259D14047
:104C0000CD56DE4F7883C359D140CC56DE4F8883D2
:104C1000C459D140CB56DE4F9883C559D14088E066
:104C2000FE01E257FE4FDE01AA56BE4F01900D92E3
:104C30008A95E1F788E0FE01EA56FE4FD201019025
:104C40000D928A95E1F707E818E06CE7662E68E0B8
:104C5000762E78E0C72EE0E12E2EE7E23E2EDD2410
:104C6000D394F8013C978081882309F4D8C0F201DD
:104C7000DE01AA57BE4F8C2D01900D928A95E1F767
:104C8000C957DE4F6881C758D140C357DE4FF880FF
:104C9000CD58D140F8013897208131973081329D2D
:104CA0004001339D900C112484E6289F800C911CB8
:104CB000112432962081820E911C092C000CAA0826
:104CC000BB083396208131973081329DA001339DFE
:104CD000500D112494E6299F400D511D1124329648
:104CE0002081420F511DCA01550FAA0BBB0BC254A4
:104CF000DE4F88839983AA83BB83CE5BD140CA579A
:104D0000DE4FE881C658D140E29D9001E39D300D11
:104D1000112495E6699F200D311D1124A901330F3F
:104D2000660B770BF8013A97AF2DB0E0CC53DE4F0E
:104D3000B983A883C45CD140D8011196ED90FC9052
:104D40001297BC91C453DE4FB883CC5CD140C2549F
:104D5000DE4F88819981AA81BB81CE5BD1402081C1
:104D600088169906AA06BB06B4F430E0CC53DE4F91
:104D700088819981C45CD140019702C035952795FF
:104D80008A95E2F720FF62C4481559056A057B053C
:104D90000CF45CC422C0CC53DE4FE881F981C45CC2
:104DA000D1403197822F90E00E2E02C095958795C5
:104DB0000A94E2F780FF05C0481559056A057B058E
:104DC000D4F4822F880F26FD816090E002C0959573
:104DD0008795EA95E2F780FF39C4C254DE4F888197
:104DE0009981AA81BB81CE5BD14084179507A60724
:104DF000B7070CF42BC4C453DE4F3881CC5CD140D0
:104E0000332309F4E0C3D3016C91C7010E945B0115
:104E10008F3FBFEF9B0709F0B9C3F801D082005F55
:104E20001F4FF0E16F0E711C29E00732120709F0E5
:104E300018CF0E94690B0C94E4178DE3CB5EDE4F14
:104E40008883C551D140C9CB81E0C253DF4F8883ED
:104E5000CE5CD040149680E1E9ECF0E0EC0FFD1F51
:104E6000349601900D928A95E1F76C5F7F4F600F49
:104E7000711FC8018C559F4F0E94A202AECB83E0E8
:104E8000DDCF84EE94E00E9402114AE0C753DF4F69
:104E90006881C95CD040C2010E94CC136CEF74E001
:104EA000CE01845A9E4F0E942C14B201CE01845A26
:104EB0009E4F0E947A12BC01CE018A549E4F0E94DE
:104EC000F813CE01845A9E4F0E947113C2010E94B2
:104ED00071134AE0C653DF4F6881CA5CD040C201FB
:104EE0000E94CC136CE075E0CE01845A9E4F0E9464
:104EF0002C14B201CE01845A9E4F0E947A12BC013A
:104F0000CE018A549E4F0E942213CE01845A9E4F96
:104F10000E947113C2010E947113C553DF4F688153
:104F20007981CB5CD0404AE0C2010E94761366E1F1
:104F300075E0CE01845A9E4F0E942C14B201CE011E
:104F4000845A9E4F0E947A12BC01CE018A549E4F11
:104F50000E942213CE01845A9E4F0E947113C201F7
:104F60000E947113C653DF4F8881CA5CD0408150C4
:104F7000893008F4CEC1C653DF4F8881CA5CD04067
:104F80008B50893008F4F2C2C653DF4F8881CA5C67
:104F9000D0408551893008F4F1C2CE018A549E4F29
:104FA0000E948711CE018A549E4F0E94711315CB27
:104FB000C553DF4F28813981CB5CD04033FD02C01F
:104FC00087E43CCF863010F088E438CFB901672FF2
:104FD000772762956F70562F5170232F33272295B4
:104FE00026952770422F4170262B372B20FD58C164
:104FF000E7CF86E423CFE73109F09BC0F8011082A8
:1050000081E0818382839AE293831482858343E0E3
:1050100050E060E070E04683578360877187878740
:10502000808B45E050E060E070E0418B528B638BF9
:10503000748B86A787A780AB9BE291AB92E092AB83
:1050400083AB47E050E060E070E044AB55AB66AB4B
:1050500077AB16AEE45AFF4F90833196808331963A
:10506000908331962CE22083319623E02083319681
:105070008083319649E050E060E070E040835183E6
:10508000628373833A9610827E9620833196808362
:105090003196908331962DE220833196108231969D
:1050A000808331964BE050E060E070E040835183B4
:1050B000628373833A9610827E9624E02083319631
:1050C00080833196908331969EE2908331968083DF
:1050D0003196808331968FE090E0A0E0B0E080834D
:1050E0009183A283B3833A9610826801B3E0CB0E1A
:1050F000D11CB12C7801EAEEEE1AEEEFFE0AD801CF
:10510000BC92B801C7010E943D02F601329780812E
:10511000882329F062E0F60180810E94580DB39443
:10512000025D1F4FFEE2CF0ED11C26E0B212E7CF88
:1051300054CAED3109F05DCF82EA93E00E9402117A
:1051400082EB93E00E9486110E94940D4AE00E9437
:10515000351182EC93E00E94F110780135E0E30E06
:10516000F11C075E1E4F64EC73E0C2010E942C1418
:1051700064E670E0C2010E940F1265EC73E0C201A8
:105180000E941413F70135976081C2010E94EA1250
:1051900060ED73E0C2010E941413F7013297608141
:1051A000C2010E94EA126CED73E0C2010E94141366
:1051B000F70133976081C2010E94EA12F701349728
:1051C0008081811106C064E973E0C2010E9414135A
:1051D00059C069EE73E0C2010E941413D7015596BD
:1051E0006D917C915697C2010E94BB126701A12C60
:1051F000B12C66EF73E0C2010E941413B501C20125
:105200000E94BB1261E074E0C2010E941413F60117
:105210008081882341F164E074E0C2010E9414138C
:10522000F60131976081C2010E94EA126DE074E0DC
:10523000C2010E941413D60111964D915D916D919A
:105240007C911497C2010E948B1268E174E0C20144
:105250000E941413F6014581568167817085C20151
:105260000E948B1205C064E274E0C2010E94141314
:10527000FBE0CF0ED11CAA94AB2821F0AA24A39462
:10528000B12CB7CFC2010E948711C2010E947113D5
:105290003EE2E30EF11CE016F10609F064CF9DC971
:1052A00090E0552399F02EE2289FD001299FB00D60
:1052B0001124A00FB11F14962BE0E9ECF0E0EC0FE5
:1052C000FD1FB09601900D922A95E1F7442399F0C5
:1052D0002EE2289FD001299FB00D1124A00FB11FED
:1052E0001F962BE0E9ECF0E0EC0FFD1FBB96019060
:1052F0000D922A95E1F72EE2289FB001299F700DAB
:105300001124600F711FC8018A5E9E4F0E943D02EA
:1053100064C94AE0C052DF4F6881C05ED040C2011C
:105320000E94CC1362E275E0CE01845A9E4F0E9427
:105330002C144AE0CF51DF4F6881C15ED040CE01CE
:1053400082599E4F0E94CC1362E275E0CE018256D4
:105350009E4F0E942C14CE51DF4F68817981C25E2E
:10536000D0404AE0CE018C559E4F0E94761364E2F5
:1053700075E0CE0180559E4F0E942C14BE016055F1
:105380007E4FCE0186559E4F0E94F813BE016C558C
:105390007E4FCE0186559E4F0E947A12BE01625604
:1053A0007E4F0E947A12BE0162597E4F0E947A128D
:1053B000BE01645A7E4F0E947A12B2010E947A1294
:1053C000BC01CE018A549E4F0E942213CE01865505
:1053D0009E4F0E947113CE0180559E4F0E94711303
:1053E000CE018C559E4F0E947113CE0182569E4F66
:1053F0000E947113CE0182599E4F0E947113CE01FB
:10540000845A9E4F0E947113C2010E9471134AE098
:10541000C152DF4F6881CF5DD040C2010E94CC13E2
:1054200062E074E0CE01845A9E4F0E942C144AE040
:10543000C252DF4F6881CE5DD040CE0182599E4F6F
:105440000E94CC1362E074E0CE0182569E4F0E940F
:105450002C144AE0C352DF4F6881CD5DD040CE01AD
:105460008C559E4F0E94CC136BE275E0CE018055A7
:105470009E4F0E942C14BE0160557E4FCE01865572
:105480009E4F0E94F813BE016C557E4FCE0186558B
:105490009E4F0E947A12BE0162567E4F0E947A127F
:1054A000BE0162597E4F0E947A12BE01645A7E4F3D
:1054B0000E947A12B2010E947A12BC01CE018A5473
:1054C0009E4F0E942213CE0186559E4F0E9471135B
:1054D000CE0180559E4F0E947113CE018C559E4F78
:1054E0000E947113CE0182569E4F0E947113CE010D
:1054F00082599E4F0E947113CE01845A9E4F0E9482
:105500007113C2010E9471134AE0CC51DF4F6881D0
:10551000C45ED040C2010E94CC1362E375E0CE01AC
:1055200082599E4F0E942C14BE0162597E4FCE01BB
:10553000845A9E4F0E94F813B201CE01845A9E4FA6
:105540000E947A12BC01CE018A549E4F0E942213FF
:10555000CE01845A9E4F0E947113CE0182599E4FF4
:105560000E947113C2010E94711305CD68E375E0BA
:10557000CE018A549E4F0E94141306CD68E475E054
:10558000CE018A549E4F0E94141307CD53E0880F1A
:10559000991F5A95E1F78E0D9F1DFC012281222350
:1055A00009F43BCCD6822381253009F448C020F48D
:1055B000223009F444C031CC2C3009F444C02F30DF
:1055C00009F441C02ACCD3016C91C7010E945B0150
:1055D0008F3FBFEF9B0709F420CC43E0880F991F52
:1055E0004A95E1F7E80EF91EF7018281882309F454
:1055F00014CC8BEA94E00E948611D7016C9170E084
:1056000080E090E04AE00E94351183EC94E00E9433
:105610008611F70181810E947511D7011696DC92DF
:10562000169713968C91853049F018F4823031F03A
:10563000F4CB8C3039F08F3029F0EFCBC7010E94CA
:105640008501EBCBC7010E949101E7CBC453DE4F2C
:105650004881CC5CD140442309F449C0D3016C910A
:10566000C7010E945B018F3FBFEF9B0709F474C025
:1056700033E0880F991F3A95E1F7E80EF91EF7011C
:105680008281882309F468C08EEC94E00E94861120
:10569000D7016C9170E080E090E04AE00E94351103
:1056A00083EC94E00E948611F70181810E947511BC
:1056B000D70116961C92169713968C91853049F057
:1056C00018F4823081F048C08C3079F08F3031F09E
:1056D00043C0F7018781882331F007C0D7011796AF
:1056E0008C91882311F0C70132C0C70133C0F30188
:1056F0006081C7010E945B018F3FFFEF9F0761F14F
:1057000023E0880F991F2A95E1F78E0D9F1DDC017C
:1057100012962C9112972223F9F016961C92169746
:1057200013962C91253049F018F4223081F014C0E2
:105730002C3081F02F3031F00FC0FC012781222363
:1057400031F008C0DC0117962C91222319F00E9439
:10575000910102C00E948501F801108260CBA8E689
:10576000B0E0283010F40C942517E0E0F0E00C9441
:10577000271785E597E00E9471138FE497E00E9458
:1057800071138EE392E090933107809330078091FC
:105790004006909141068053974071F4E091430791
:1057A000F0914407908180914507809589238083FB
:1057B000109241061092400608950F931F93CF93C5
:1057C000DF93109296061092950688EE93E0A0E083
:1057D000B0E08093970690939806A0939906B093B3
:1057E0009A068CE292E0909394068093930685EC5F
:1057F00090E09093A00680939F0684EC90E09093B5
:10580000A2068093A10680EC90E09093A40680937A
:10581000A30681EC90E09093A6068093A50682EC07
:1058200090E09093A8068093A70686EC90E0909372
:10583000AA068093A9061092AC061092AD061092AB
:10584000AE061092AF061092280981E080933009CD
:1058500082E08093380983E08093400984E080935C
:10586000480985E08093500980E090E02BE0FC013E
:10587000EA58F74F24831582118A4096803A9105A1
:10588000B1F784E180931C0985E180931B0988E2CC
:1058900099E0909327098093260910927608109238
:1058A00077081092780810927908EAE7F8E080E02B
:1058B00028E239E08083378726878F5F70968A30A9
:1058C000C9F7CFE5D7E08E01C8010E948610025DBE
:1058D0001F4F88E003371807B9F788E299E09093E3
:1058E00074088093730880E028E239E08883198285
:1058F0003DA72CA78F5FAE968630C1F71092330775
:105900001092320788EE93E0A0E0B0E08093340775
:1059100090933507A0933607B09337078EE392E054
:1059200090933107809330071092470710924607F3
:10593000109249071092480710924B0710924A079D
:1059400010924D0710924C0760914E076E7F6D7F4D
:1059500060934E076695617081E0682781E10E943F
:10596000290D61E081E10E94580DE9E1F2E0E49146
:10597000E0934007E3EDF1E0E491F0E0EE0FFF1F6C
:10598000E257FE4F8591949190934207809341078F
:1059900060E080E10E94580D80914E0781FD04C0B7
:1059A00061E080E10E94290D80E180933C07E8E1FD
:1059B000F2E0E491E0933D07E2EDF1E0E491F0E004
:1059C000EE0FFF1FE855FE4F8591949190933F078E
:1059D00080933E0764EC73E08FE497E00E942C1400
:1059E00064EC73E085E597E00E942C1464EC73E0AE
:1059F0008FE497E00E94471364EC73E085E597E03D
:105A00000E94471386E798E090935C0780935B07BA
:105A10008FE597E090935E0780935D07DF91CF91CC
:105A20001F910F9108951F93FC0199278827BC01AE
:105A3000E89411911032E9F3193010F01E30C8F3D8
:105A40001B3249F01D3241F4689405C026D0610F25
:105A5000711D811D911D119110531A30B8F33EF440
:105A600090958095709561957F4F8F4F9F4F1F91B7
:105A700008954532510518F4423008F004C0FB0186
:105A80001082CB010895BB274A3031F4992322F4C8
:105A9000BDE2909581959F4F41C0592F482F372FD8
:105AA000262F660F771F881F991F660F771F881F85
:105AB000991F620F731F841F951F660F771F881F22
:105AC000991F0895BB27FA01A62F6217710581055A
:105AD0009105330B30FB66F0AA27660F771F881FEE
